{
  "contractName": "BNDESRegistry",
  "abi": [
    {
      "inputs": [
        {
          "internalType": "address",
          "name": "upgraderInfo",
          "type": "address"
        },
        {
          "internalType": "address",
          "name": "legalEntityMappingAddr",
          "type": "address"
        }
      ],
      "payable": false,
      "stateMutability": "nonpayable",
      "type": "constructor"
    },
    {
      "anonymous": false,
      "inputs": [
        {
          "indexed": false,
          "internalType": "address",
          "name": "oldAddr",
          "type": "address"
        },
        {
          "indexed": false,
          "internalType": "address",
          "name": "newAddr",
          "type": "address"
        },
        {
          "indexed": false,
          "internalType": "uint256",
          "name": "cnpj",
          "type": "uint256"
        },
        {
          "indexed": false,
          "internalType": "uint64",
          "name": "idFinancialSupportAgreement",
          "type": "uint64"
        },
        {
          "indexed": false,
          "internalType": "string",
          "name": "idProofHash",
          "type": "string"
        }
      ],
      "name": "AccountChange",
      "type": "event"
    },
    {
      "anonymous": false,
      "inputs": [
        {
          "indexed": false,
          "internalType": "address",
          "name": "addr",
          "type": "address"
        },
        {
          "indexed": false,
          "internalType": "uint256",
          "name": "cnpj",
          "type": "uint256"
        },
        {
          "indexed": false,
          "internalType": "uint256",
          "name": "idFinancialSupportAgreement",
          "type": "uint256"
        }
      ],
      "name": "AccountInvalidation",
      "type": "event"
    },
    {
      "anonymous": false,
      "inputs": [
        {
          "indexed": false,
          "internalType": "address",
          "name": "addr",
          "type": "address"
        },
        {
          "indexed": false,
          "internalType": "uint256",
          "name": "cnpj",
          "type": "uint256"
        },
        {
          "indexed": false,
          "internalType": "uint256",
          "name": "idFinancialSupportAgreement",
          "type": "uint256"
        },
        {
          "indexed": false,
          "internalType": "string",
          "name": "idProofHash",
          "type": "string"
        }
      ],
      "name": "AccountRegistration",
      "type": "event"
    },
    {
      "anonymous": false,
      "inputs": [
        {
          "indexed": false,
          "internalType": "address",
          "name": "addr",
          "type": "address"
        },
        {
          "indexed": false,
          "internalType": "uint256",
          "name": "cnpj",
          "type": "uint256"
        },
        {
          "indexed": false,
          "internalType": "uint256",
          "name": "idFinancialSupportAgreement",
          "type": "uint256"
        }
      ],
      "name": "AccountValidation",
      "type": "event"
    },
    {
      "anonymous": false,
      "inputs": [
        {
          "indexed": false,
          "internalType": "address",
          "name": "account",
          "type": "address"
        }
      ],
      "name": "Paused",
      "type": "event"
    },
    {
      "anonymous": false,
      "inputs": [
        {
          "indexed": true,
          "internalType": "address",
          "name": "account",
          "type": "address"
        }
      ],
      "name": "PauserAdded",
      "type": "event"
    },
    {
      "anonymous": false,
      "inputs": [
        {
          "indexed": true,
          "internalType": "address",
          "name": "account",
          "type": "address"
        }
      ],
      "name": "PauserRemoved",
      "type": "event"
    },
    {
      "anonymous": false,
      "inputs": [
        {
          "indexed": false,
          "internalType": "address",
          "name": "account",
          "type": "address"
        }
      ],
      "name": "Unpaused",
      "type": "event"
    },
    {
      "constant": true,
      "inputs": [],
      "name": "_dataAvailable",
      "outputs": [
        {
          "internalType": "bool",
          "name": "",
          "type": "bool"
        }
      ],
      "payable": false,
      "stateMutability": "view",
      "type": "function"
    },
    {
      "constant": false,
      "inputs": [
        {
          "internalType": "address",
          "name": "account",
          "type": "address"
        }
      ],
      "name": "addPauser",
      "outputs": [],
      "payable": false,
      "stateMutability": "nonpayable",
      "type": "function"
    },
    {
      "constant": true,
      "inputs": [],
      "name": "bndesReserveAccountAddress",
      "outputs": [
        {
          "internalType": "address",
          "name": "",
          "type": "address"
        }
      ],
      "payable": false,
      "stateMutability": "view",
      "type": "function"
    },
    {
      "constant": true,
      "inputs": [],
      "name": "dataAvailable",
      "outputs": [
        {
          "internalType": "bool",
          "name": "",
          "type": "bool"
        }
      ],
      "payable": false,
      "stateMutability": "view",
      "type": "function"
    },
    {
      "constant": true,
      "inputs": [],
      "name": "isAllowedUpgrader",
      "outputs": [
        {
          "internalType": "bool",
          "name": "",
          "type": "bool"
        }
      ],
      "payable": false,
      "stateMutability": "view",
      "type": "function"
    },
    {
      "constant": true,
      "inputs": [
        {
          "internalType": "address",
          "name": "account",
          "type": "address"
        }
      ],
      "name": "isPauser",
      "outputs": [
        {
          "internalType": "bool",
          "name": "",
          "type": "bool"
        }
      ],
      "payable": false,
      "stateMutability": "view",
      "type": "function"
    },
    {
      "constant": true,
      "inputs": [
        {
          "internalType": "address",
          "name": "",
          "type": "address"
        }
      ],
      "name": "legalEntitiesChangeAccount",
      "outputs": [
        {
          "internalType": "bool",
          "name": "",
          "type": "bool"
        }
      ],
      "payable": false,
      "stateMutability": "view",
      "type": "function"
    },
    {
      "constant": true,
      "inputs": [],
      "name": "legalEntityMapping",
      "outputs": [
        {
          "internalType": "contract LegalEntityMapping",
          "name": "",
          "type": "address"
        }
      ],
      "payable": false,
      "stateMutability": "view",
      "type": "function"
    },
    {
      "constant": false,
      "inputs": [],
      "name": "pause",
      "outputs": [],
      "payable": false,
      "stateMutability": "nonpayable",
      "type": "function"
    },
    {
      "constant": true,
      "inputs": [],
      "name": "paused",
      "outputs": [
        {
          "internalType": "bool",
          "name": "",
          "type": "bool"
        }
      ],
      "payable": false,
      "stateMutability": "view",
      "type": "function"
    },
    {
      "constant": true,
      "inputs": [],
      "name": "redemptionAddress",
      "outputs": [
        {
          "internalType": "address",
          "name": "",
          "type": "address"
        }
      ],
      "payable": false,
      "stateMutability": "view",
      "type": "function"
    },
    {
      "constant": false,
      "inputs": [],
      "name": "renouncePauser",
      "outputs": [],
      "payable": false,
      "stateMutability": "nonpayable",
      "type": "function"
    },
    {
      "constant": true,
      "inputs": [],
      "name": "responsibleForDisbursement",
      "outputs": [
        {
          "internalType": "address",
          "name": "",
          "type": "address"
        }
      ],
      "payable": false,
      "stateMutability": "view",
      "type": "function"
    },
    {
      "constant": true,
      "inputs": [],
      "name": "responsibleForRegistryValidation",
      "outputs": [
        {
          "internalType": "address",
          "name": "",
          "type": "address"
        }
      ],
      "payable": false,
      "stateMutability": "view",
      "type": "function"
    },
    {
      "constant": true,
      "inputs": [],
      "name": "responsibleForSettlement",
      "outputs": [
        {
          "internalType": "address",
          "name": "",
          "type": "address"
        }
      ],
      "payable": false,
      "stateMutability": "view",
      "type": "function"
    },
    {
      "constant": false,
      "inputs": [
        {
          "internalType": "bool",
          "name": "b",
          "type": "bool"
        }
      ],
      "name": "setDataAvailable",
      "outputs": [],
      "payable": false,
      "stateMutability": "nonpayable",
      "type": "function"
    },
    {
      "constant": true,
      "inputs": [],
      "name": "tokenAddress",
      "outputs": [
        {
          "internalType": "address",
          "name": "",
          "type": "address"
        }
      ],
      "payable": false,
      "stateMutability": "view",
      "type": "function"
    },
    {
      "constant": false,
      "inputs": [],
      "name": "unpause",
      "outputs": [],
      "payable": false,
      "stateMutability": "nonpayable",
      "type": "function"
    },
    {
      "constant": true,
      "inputs": [],
      "name": "upgraderInfo",
      "outputs": [
        {
          "internalType": "contract UpgraderInfo",
          "name": "",
          "type": "address"
        }
      ],
      "payable": false,
      "stateMutability": "view",
      "type": "function"
    },
    {
      "constant": true,
      "inputs": [],
      "name": "upgraderInfoAddr",
      "outputs": [
        {
          "internalType": "address",
          "name": "",
          "type": "address"
        }
      ],
      "payable": false,
      "stateMutability": "view",
      "type": "function"
    },
    {
      "constant": false,
      "inputs": [
        {
          "internalType": "address",
          "name": "newAddr",
          "type": "address"
        }
      ],
      "name": "setLegalEntityMapping",
      "outputs": [],
      "payable": false,
      "stateMutability": "nonpayable",
      "type": "function"
    },
    {
      "constant": false,
      "inputs": [
        {
          "internalType": "uint64",
          "name": "id",
          "type": "uint64"
        }
      ],
      "name": "registryLegalEntity",
      "outputs": [],
      "payable": false,
      "stateMutability": "nonpayable",
      "type": "function"
    },
    {
      "constant": false,
      "inputs": [],
      "name": "registryLegalEntity2TESTE",
      "outputs": [],
      "payable": false,
      "stateMutability": "nonpayable",
      "type": "function"
    },
    {
      "constant": false,
      "inputs": [],
      "name": "registryLegalEntity2TESTE2",
      "outputs": [],
      "payable": false,
      "stateMutability": "nonpayable",
      "type": "function"
    },
    {
      "constant": false,
      "inputs": [],
      "name": "registryLegalEntity2TESTE4",
      "outputs": [],
      "payable": false,
      "stateMutability": "nonpayable",
      "type": "function"
    },
    {
      "constant": true,
      "inputs": [
        {
          "internalType": "address",
          "name": "addr",
          "type": "address"
        }
      ],
      "name": "getId",
      "outputs": [
        {
          "internalType": "uint256",
          "name": "",
          "type": "uint256"
        }
      ],
      "payable": false,
      "stateMutability": "view",
      "type": "function"
    },
    {
      "constant": false,
      "inputs": [],
      "name": "kill",
      "outputs": [],
      "payable": false,
      "stateMutability": "nonpayable",
      "type": "function"
    }
  ],
  "bytecode": "0x60806040523480156200001157600080fd5b5060405162001c5d38038062001c5d833981810160405260408110156200003757600080fd5b8101908080519060200190929190805190602001909291905050508162000073620000676200013260201b60201c565b6200013a60201b60201c565b6000600160006101000a81548160ff021916908315150217905550806001806101000a81548173ffffffffffffffffffffffffffffffffffffffff021916908373ffffffffffffffffffffffffffffffffffffffff16021790555060018060156101000a81548160ff0219169083151502179055505080600260006101000a81548173ffffffffffffffffffffffffffffffffffffffff021916908373ffffffffffffffffffffffffffffffffffffffff16021790555050506200035f565b600033905090565b620001558160006200019b60201b6200171a1790919060201c565b8073ffffffffffffffffffffffffffffffffffffffff167f6719d08c1888103bea251a4ed56406bd0c3e69723c8a1686e017e7bbe159b6f860405160405180910390a250565b620001ad82826200027f60201b60201c565b1562000221576040517f08c379a000000000000000000000000000000000000000000000000000000000815260040180806020018281038252601f8152602001807f526f6c65733a206163636f756e7420616c72656164792068617320726f6c650081525060200191505060405180910390fd5b60018260000160008373ffffffffffffffffffffffffffffffffffffffff1673ffffffffffffffffffffffffffffffffffffffff16815260200190815260200160002060006101000a81548160ff0219169083151502179055505050565b60008073ffffffffffffffffffffffffffffffffffffffff168273ffffffffffffffffffffffffffffffffffffffff16141562000308576040517f08c379a000000000000000000000000000000000000000000000000000000000815260040180806020018281038252602281526020018062001c3b6022913960400191505060405180910390fd5b8260000160008373ffffffffffffffffffffffffffffffffffffffff1673ffffffffffffffffffffffffffffffffffffffff16815260200190815260200160002060009054906101000a900460ff16905092915050565b6118cc806200036f6000396000f3fe608060405234801561001057600080fd5b50600436106101a95760003560e01c806365f68c89116100f95780638cabf1281161009757806396a0604a1161007157806396a0604a146106565780639d76ea5814610678578063bf857051146106c2578063eca214971461070c576101a9565b80638cabf128146105a0578063900126f4146105ea578063901fe04714610634576101a9565b806379aa330c116100d357806379aa330c146104c457806382dc1ec4146105085780638456cb591461054c5780638766c44a14610556576101a9565b806365f68c89146104585780636ef8d66d146104b0578063790a7f8f146104ba576101a9565b806341c0e1b5116101665780634dde3fe1116101405780634dde3fe11461034657806352bf2c3c14610390578063576590cb146103da5780635c975abb14610436576101a9565b806341c0e1b514610296578063456ca961146102a057806346fbf68e146102ea576101a9565b80630968f2f9146101ae57806309ea2709146101b85780631b49f03a146101e8578063214538001461020a57806322495780146102545780633f4ba83a1461028c575b600080fd5b6101b6610716565b005b6101e6600480360360208110156101ce57600080fd5b8101908080351515906020019092919050505061079a565b005b6101f06108e5565b604051808215151515815260200191505060405180910390f35b6102126108f8565b604051808273ffffffffffffffffffffffffffffffffffffffff1673ffffffffffffffffffffffffffffffffffffffff16815260200191505060405180910390f35b61028a6004803603602081101561026a57600080fd5b81019080803567ffffffffffffffff16906020019092919050505061091e565b005b6102946109ec565b005b61029e610b5a565b005b6102a8610ca2565b604051808273ffffffffffffffffffffffffffffffffffffffff1673ffffffffffffffffffffffffffffffffffffffff16815260200191505060405180910390f35b61032c6004803603602081101561030057600080fd5b81019080803573ffffffffffffffffffffffffffffffffffffffff169060200190929190505050610cc8565b604051808215151515815260200191505060405180910390f35b61034e610ce5565b604051808273ffffffffffffffffffffffffffffffffffffffff1673ffffffffffffffffffffffffffffffffffffffff16815260200191505060405180910390f35b610398610d0b565b604051808273ffffffffffffffffffffffffffffffffffffffff1673ffffffffffffffffffffffffffffffffffffffff16815260200191505060405180910390f35b61041c600480360360208110156103f057600080fd5b81019080803573ffffffffffffffffffffffffffffffffffffffff169060200190929190505050610d34565b604051808215151515815260200191505060405180910390f35b61043e610d54565b604051808215151515815260200191505060405180910390f35b61049a6004803603602081101561046e57600080fd5b81019080803573ffffffffffffffffffffffffffffffffffffffff169060200190929190505050610d6b565b6040518082815260200191505060405180910390f35b6104b8610e4e565b005b6104c2610e60565b005b610506600480360360208110156104da57600080fd5b81019080803573ffffffffffffffffffffffffffffffffffffffff169060200190929190505050610f3a565b005b61054a6004803603602081101561051e57600080fd5b81019080803573ffffffffffffffffffffffffffffffffffffffff1690602001909291905050506110ac565b005b61055461111d565b005b61055e61128b565b604051808273ffffffffffffffffffffffffffffffffffffffff1673ffffffffffffffffffffffffffffffffffffffff16815260200191505060405180910390f35b6105a86112b1565b604051808273ffffffffffffffffffffffffffffffffffffffff1673ffffffffffffffffffffffffffffffffffffffff16815260200191505060405180910390f35b6105f26112d7565b604051808273ffffffffffffffffffffffffffffffffffffffff1673ffffffffffffffffffffffffffffffffffffffff16815260200191505060405180910390f35b61063c6112fc565b604051808215151515815260200191505060405180910390f35b61065e611313565b604051808215151515815260200191505060405180910390f35b6106806113f3565b604051808273ffffffffffffffffffffffffffffffffffffffff1673ffffffffffffffffffffffffffffffffffffffff16815260200191505060405180910390f35b6106ca611419565b604051808273ffffffffffffffffffffffffffffffffffffffff1673ffffffffffffffffffffffffffffffffffffffff16815260200191505060405180910390f35b61071461143f565b005b600260009054906101000a900473ffffffffffffffffffffffffffffffffffffffff1673ffffffffffffffffffffffffffffffffffffffff1663841e00846040518163ffffffff1660e01b8152600401600060405180830381600087803b15801561078057600080fd5b505af1158015610794573d6000803e3d6000fd5b50505050565b6001809054906101000a900473ffffffffffffffffffffffffffffffffffffffff1673ffffffffffffffffffffffffffffffffffffffff16637e96549f336040518263ffffffff1660e01b8152600401808273ffffffffffffffffffffffffffffffffffffffff1673ffffffffffffffffffffffffffffffffffffffff16815260200191505060206040518083038186803b15801561083857600080fd5b505afa15801561084c573d6000803e3d6000fd5b505050506040513d602081101561086257600080fd5b81019080805190602001909291905050506108c8576040517f08c379a000000000000000000000000000000000000000000000000000000000815260040180806020018281038252602f8152602001806117f6602f913960400191505060405180910390fd5b80600160156101000a81548160ff02191690831515021790555050565b600160159054906101000a900460ff1681565b600660009054906101000a900473ffffffffffffffffffffffffffffffffffffffff1681565b600260009054906101000a900473ffffffffffffffffffffffffffffffffffffffff1673ffffffffffffffffffffffffffffffffffffffff1663b43f06ad33836040518363ffffffff1660e01b8152600401808373ffffffffffffffffffffffffffffffffffffffff1673ffffffffffffffffffffffffffffffffffffffff1681526020018267ffffffffffffffff16815260200192505050600060405180830381600087803b1580156109d157600080fd5b505af11580156109e5573d6000803e3d6000fd5b5050505050565b6109fc6109f76114c3565b610cc8565b610a51576040517f08c379a00000000000000000000000000000000000000000000000000000000081526004018080602001828103825260308152602001806118256030913960400191505060405180910390fd5b600160009054906101000a900460ff16610ad3576040517f08c379a00000000000000000000000000000000000000000000000000000000081526004018080602001828103825260148152602001807f5061757361626c653a206e6f742070617573656400000000000000000000000081525060200191505060405180910390fd5b6000600160006101000a81548160ff0219169083151502179055507f5db9ee0a495bf2e6ff9c91a7834c1ba4fdd244a5e8aa4e537bd38aeae4b073aa610b176114c3565b604051808273ffffffffffffffffffffffffffffffffffffffff1673ffffffffffffffffffffffffffffffffffffffff16815260200191505060405180910390a1565b6001809054906101000a900473ffffffffffffffffffffffffffffffffffffffff1673ffffffffffffffffffffffffffffffffffffffff16637e96549f336040518263ffffffff1660e01b8152600401808273ffffffffffffffffffffffffffffffffffffffff1673ffffffffffffffffffffffffffffffffffffffff16815260200191505060206040518083038186803b158015610bf857600080fd5b505afa158015610c0c573d6000803e3d6000fd5b505050506040513d6020811015610c2257600080fd5b8101908080519060200190929190505050610c88576040517f08c379a000000000000000000000000000000000000000000000000000000000815260040180806020018281038252602f8152602001806117f6602f913960400191505060405180910390fd5b600073ffffffffffffffffffffffffffffffffffffffff16ff5b600460009054906101000a900473ffffffffffffffffffffffffffffffffffffffff1681565b6000610cde8260006114cb90919063ffffffff16565b9050919050565b600760009054906101000a900473ffffffffffffffffffffffffffffffffffffffff1681565b60006001809054906101000a900473ffffffffffffffffffffffffffffffffffffffff16905090565b60096020528060005260406000206000915054906101000a900460ff1681565b6000600160009054906101000a900460ff16905090565b6000600260009054906101000a900473ffffffffffffffffffffffffffffffffffffffff1673ffffffffffffffffffffffffffffffffffffffff166365f68c89836040518263ffffffff1660e01b8152600401808273ffffffffffffffffffffffffffffffffffffffff1673ffffffffffffffffffffffffffffffffffffffff16815260200191505060206040518083038186803b158015610e0c57600080fd5b505afa158015610e20573d6000803e3d6000fd5b505050506040513d6020811015610e3657600080fd5b81019080805190602001909291905050509050919050565b610e5e610e596114c3565b6115a9565b565b600260009054906101000a900473ffffffffffffffffffffffffffffffffffffffff1673ffffffffffffffffffffffffffffffffffffffff1663b43f06ad73ff1465539f3f22df5bc197312ab28b04e38156246201e2406040518363ffffffff1660e01b8152600401808373ffffffffffffffffffffffffffffffffffffffff1673ffffffffffffffffffffffffffffffffffffffff16815260200182815260200192505050600060405180830381600087803b158015610f2057600080fd5b505af1158015610f34573d6000803e3d6000fd5b50505050565b6001809054906101000a900473ffffffffffffffffffffffffffffffffffffffff1673ffffffffffffffffffffffffffffffffffffffff16637e96549f336040518263ffffffff1660e01b8152600401808273ffffffffffffffffffffffffffffffffffffffff1673ffffffffffffffffffffffffffffffffffffffff16815260200191505060206040518083038186803b158015610fd857600080fd5b505afa158015610fec573d6000803e3d6000fd5b505050506040513d602081101561100257600080fd5b8101908080519060200190929190505050611068576040517f08c379a000000000000000000000000000000000000000000000000000000000815260040180806020018281038252602f8152602001806117f6602f913960400191505060405180910390fd5b80600260006101000a81548173ffffffffffffffffffffffffffffffffffffffff021916908373ffffffffffffffffffffffffffffffffffffffff16021790555050565b6110bc6110b76114c3565b610cc8565b611111576040517f08c379a00000000000000000000000000000000000000000000000000000000081526004018080602001828103825260308152602001806118256030913960400191505060405180910390fd5b61111a81611603565b50565b61112d6111286114c3565b610cc8565b611182576040517f08c379a00000000000000000000000000000000000000000000000000000000081526004018080602001828103825260308152602001806118256030913960400191505060405180910390fd5b600160009054906101000a900460ff1615611205576040517f08c379a00000000000000000000000000000000000000000000000000000000081526004018080602001828103825260108152602001807f5061757361626c653a207061757365640000000000000000000000000000000081525060200191505060405180910390fd5b60018060006101000a81548160ff0219169083151502179055507f62e78cea01bee320cd4e420270b5ea74000d11b0c9f74754ebdbfc544b05a2586112486114c3565b604051808273ffffffffffffffffffffffffffffffffffffffff1673ffffffffffffffffffffffffffffffffffffffff16815260200191505060405180910390a1565b600360009054906101000a900473ffffffffffffffffffffffffffffffffffffffff1681565b600560009054906101000a900473ffffffffffffffffffffffffffffffffffffffff1681565b6001809054906101000a900473ffffffffffffffffffffffffffffffffffffffff1681565b6000600160159054906101000a900460ff16905090565b60006001809054906101000a900473ffffffffffffffffffffffffffffffffffffffff1673ffffffffffffffffffffffffffffffffffffffff16637e96549f336040518263ffffffff1660e01b8152600401808273ffffffffffffffffffffffffffffffffffffffff1673ffffffffffffffffffffffffffffffffffffffff16815260200191505060206040518083038186803b1580156113b357600080fd5b505afa1580156113c7573d6000803e3d6000fd5b505050506040513d60208110156113dd57600080fd5b8101908080519060200190929190505050905090565b600860009054906101000a900473ffffffffffffffffffffffffffffffffffffffff1681565b600260009054906101000a900473ffffffffffffffffffffffffffffffffffffffff1681565b600260009054906101000a900473ffffffffffffffffffffffffffffffffffffffff1673ffffffffffffffffffffffffffffffffffffffff1663134bb0386040518163ffffffff1660e01b8152600401600060405180830381600087803b1580156114a957600080fd5b505af11580156114bd573d6000803e3d6000fd5b50505050565b600033905090565b60008073ffffffffffffffffffffffffffffffffffffffff168273ffffffffffffffffffffffffffffffffffffffff161415611552576040517f08c379a00000000000000000000000000000000000000000000000000000000081526004018080602001828103825260228152602001806118766022913960400191505060405180910390fd5b8260000160008373ffffffffffffffffffffffffffffffffffffffff1673ffffffffffffffffffffffffffffffffffffffff16815260200190815260200160002060009054906101000a900460ff16905092915050565b6115bd81600061165d90919063ffffffff16565b8073ffffffffffffffffffffffffffffffffffffffff167fcd265ebaf09df2871cc7bd4133404a235ba12eff2041bb89d9c714a2621c7c7e60405160405180910390a250565b61161781600061171a90919063ffffffff16565b8073ffffffffffffffffffffffffffffffffffffffff167f6719d08c1888103bea251a4ed56406bd0c3e69723c8a1686e017e7bbe159b6f860405160405180910390a250565b61166782826114cb565b6116bc576040517f08c379a00000000000000000000000000000000000000000000000000000000081526004018080602001828103825260218152602001806118556021913960400191505060405180910390fd5b60008260000160008373ffffffffffffffffffffffffffffffffffffffff1673ffffffffffffffffffffffffffffffffffffffff16815260200190815260200160002060006101000a81548160ff0219169083151502179055505050565b61172482826114cb565b15611797576040517f08c379a000000000000000000000000000000000000000000000000000000000815260040180806020018281038252601f8152602001807f526f6c65733a206163636f756e7420616c72656164792068617320726f6c650081525060200191505060405180910390fd5b60018260000160008373ffffffffffffffffffffffffffffffffffffffff1673ffffffffffffffffffffffffffffffffffffffff16815260200190815260200160002060006101000a81548160ff021916908315150217905550505056fe546869732066756e6374696f6e2063616e206f6e6c7920626520657865637574656420627920557067726164657273506175736572526f6c653a2063616c6c657220646f6573206e6f742068617665207468652050617573657220726f6c65526f6c65733a206163636f756e7420646f6573206e6f74206861766520726f6c65526f6c65733a206163636f756e7420697320746865207a65726f2061646472657373a265627a7a72315820634a3ec4a22df0da7aa279b77ce1b143111d59ee96fa30526fc03abe0dc5a14b64736f6c63430005100032526f6c65733a206163636f756e7420697320746865207a65726f2061646472657373",
  "source": "pragma solidity ^0.5.0;\n\nimport \"openzeppelin-solidity/contracts/lifecycle/Pausable.sol\";\n\nimport \"../appCommonUpgrade/IdRegistry.sol\";\nimport \"../appChangeManagementUpgrade/Updatable.sol\";\n\nimport \"./LegalEntityMapping.sol\";\n\ncontract BNDESRegistry is Updatable {\n\n\n    LegalEntityMapping public legalEntityMapping;\n\n    address public bndesReserveAccountAddress;\n    address public responsibleForRegistryValidation;\n    address public responsibleForDisbursement;\n    address public responsibleForSettlement;\n    address public redemptionAddress;\n    address public tokenAddress;\n\n\n    event AccountRegistration(address addr, uint cnpj, uint idFinancialSupportAgreement, string idProofHash);\n    event AccountChange(address oldAddr, address newAddr, uint cnpj, uint64 idFinancialSupportAgreement, string idProofHash);\n    event AccountValidation(address addr, uint cnpj, uint idFinancialSupportAgreement);\n    event AccountInvalidation(address addr, uint cnpj, uint idFinancialSupportAgreement);\n\n    /**\n        Links Ethereum addresses to the possibility to change the account\n        Since the Ethereum account can be changed once, it is not necessary to put the bool to false.\n        TODO: Discuss later what is the best data structure\n     */\n    mapping(address => bool) public legalEntitiesChangeAccount;\n\n\n    constructor (address upgraderInfo, address legalEntityMappingAddr) Updatable (upgraderInfo) public {\n        legalEntityMapping = LegalEntityMapping(legalEntityMappingAddr);\n    }\n\n    function setLegalEntityMapping (address newAddr) public onlyAllowedUpgrader {\n        legalEntityMapping = LegalEntityMapping(newAddr);\n    }\n\n    function registryLegalEntity(uint64 id) public {\n        legalEntityMapping.setId(msg.sender, id);\n    }\n\n////TESTE************************\n    function registryLegalEntity2TESTE() public {\n        legalEntityMapping.setId(address(0xff1465539F3F22Df5bc197312AB28B04E3815624), 123456);\n    }\n    function registryLegalEntity2TESTE2() public {\n        legalEntityMapping.setHANDTESTE();\n    }\n    function registryLegalEntity2TESTE4() public {\n        legalEntityMapping.setTESTE();\n    }\n\n\n\n    //Implemented because of IdRegistry\n    function getId(address addr) external view returns (uint) {\n        return legalEntityMapping.getId(addr);\n    }\n\n    function kill() external onlyAllowedUpgrader {\n        selfdestruct(address(0));\n    }\n\n/*\n//TEST\n    function isAvailable(address addr) public view returns (bool) {\n        return legalEntityMapping.isAvailable(addr);\n    }\n*/\n\n}",
  "sourcePath": "/Users/suzana.moreno/workspace/bndestoken-d/Upgrade/contracts/appTestUpgrade/BNDESRegistry.sol",
  "compiler": {
    "name": "solc",
    "version": "0.5.16+commit.9c3226ce.Emscripten.clang"
  },
  "schemaVersion": "3.0.23",
  "updatedAt": "2020-04-17T19:07:01.453Z",
  "networkType": "ethereum",
  "devdoc": {
    "methods": {
      "pause()": {
        "details": "Called by a pauser to pause, triggers stopped state."
      },
      "paused()": {
        "details": "Returns true if the contract is paused, and false otherwise."
      },
      "unpause()": {
        "details": "Called by a pauser to unpause, returns to normal state."
      }
    }
  },
  "userdoc": {
    "methods": {
      "registryLegalEntity2TESTE()": {
        "notice": "/TESTE************************"
      }
    }
  }
}