{
  "contractName": "ChangeManagement",
  "abi": [
    {
      "inputs": [
        {
          "internalType": "address",
          "name": "adminOfNewContractsAddr",
          "type": "address"
        }
      ],
      "payable": false,
      "stateMutability": "nonpayable",
      "type": "constructor"
    },
    {
      "anonymous": false,
      "inputs": [
        {
          "indexed": false,
          "internalType": "uint256",
          "name": "changeNumber",
          "type": "uint256"
        }
      ],
      "name": "ChangeApproved",
      "type": "event"
    },
    {
      "anonymous": false,
      "inputs": [
        {
          "indexed": false,
          "internalType": "uint256",
          "name": "changeNumber",
          "type": "uint256"
        }
      ],
      "name": "ChangeCancelled",
      "type": "event"
    },
    {
      "anonymous": false,
      "inputs": [
        {
          "indexed": false,
          "internalType": "uint256",
          "name": "changeNumber",
          "type": "uint256"
        }
      ],
      "name": "ChangeDisapproved",
      "type": "event"
    },
    {
      "anonymous": false,
      "inputs": [
        {
          "indexed": false,
          "internalType": "uint256",
          "name": "changeNumber",
          "type": "uint256"
        }
      ],
      "name": "ChangeExecuted",
      "type": "event"
    },
    {
      "anonymous": false,
      "inputs": [
        {
          "indexed": false,
          "internalType": "uint256",
          "name": "changeNumber",
          "type": "uint256"
        },
        {
          "indexed": false,
          "internalType": "uint256",
          "name": "index",
          "type": "uint256"
        }
      ],
      "name": "ChangePartialExecuted",
      "type": "event"
    },
    {
      "anonymous": false,
      "inputs": [
        {
          "indexed": false,
          "internalType": "uint256",
          "name": "changeNumber",
          "type": "uint256"
        },
        {
          "indexed": false,
          "internalType": "bytes32",
          "name": "hashChangeMotivation",
          "type": "bytes32"
        },
        {
          "indexed": false,
          "internalType": "address[]",
          "name": "upgraderContractsAddr",
          "type": "address[]"
        },
        {
          "indexed": false,
          "internalType": "address",
          "name": "decisionContractAddr",
          "type": "address"
        }
      ],
      "name": "NewChangeCreated",
      "type": "event"
    },
    {
      "anonymous": false,
      "inputs": [
        {
          "indexed": true,
          "internalType": "address",
          "name": "previousOwner",
          "type": "address"
        },
        {
          "indexed": true,
          "internalType": "address",
          "name": "newOwner",
          "type": "address"
        }
      ],
      "name": "OwnershipTransferred",
      "type": "event"
    },
    {
      "anonymous": false,
      "inputs": [
        {
          "indexed": false,
          "internalType": "address",
          "name": "account",
          "type": "address"
        }
      ],
      "name": "Paused",
      "type": "event"
    },
    {
      "anonymous": false,
      "inputs": [
        {
          "indexed": true,
          "internalType": "address",
          "name": "account",
          "type": "address"
        }
      ],
      "name": "PauserAdded",
      "type": "event"
    },
    {
      "anonymous": false,
      "inputs": [
        {
          "indexed": true,
          "internalType": "address",
          "name": "account",
          "type": "address"
        }
      ],
      "name": "PauserRemoved",
      "type": "event"
    },
    {
      "anonymous": false,
      "inputs": [
        {
          "indexed": false,
          "internalType": "address",
          "name": "addr",
          "type": "address"
        }
      ],
      "name": "SetGovernance",
      "type": "event"
    },
    {
      "anonymous": false,
      "inputs": [
        {
          "indexed": false,
          "internalType": "address",
          "name": "account",
          "type": "address"
        }
      ],
      "name": "Unpaused",
      "type": "event"
    },
    {
      "constant": true,
      "inputs": [],
      "name": "_governanceAddress",
      "outputs": [
        {
          "internalType": "address",
          "name": "",
          "type": "address"
        }
      ],
      "payable": false,
      "stateMutability": "view",
      "type": "function"
    },
    {
      "constant": false,
      "inputs": [
        {
          "internalType": "address",
          "name": "account",
          "type": "address"
        }
      ],
      "name": "addPauser",
      "outputs": [],
      "payable": false,
      "stateMutability": "nonpayable",
      "type": "function"
    },
    {
      "constant": true,
      "inputs": [
        {
          "internalType": "uint256",
          "name": "",
          "type": "uint256"
        }
      ],
      "name": "governingChanges",
      "outputs": [
        {
          "internalType": "bytes32",
          "name": "hashChangeMotivation",
          "type": "bytes32"
        },
        {
          "internalType": "uint256",
          "name": "upgraderContractToBeExecutedIndex",
          "type": "uint256"
        },
        {
          "internalType": "address",
          "name": "decisionContractAddr",
          "type": "address"
        },
        {
          "internalType": "enum ChangeManagement.ChangeState",
          "name": "changeState",
          "type": "uint8"
        }
      ],
      "payable": false,
      "stateMutability": "view",
      "type": "function"
    },
    {
      "constant": true,
      "inputs": [],
      "name": "isOwner",
      "outputs": [
        {
          "internalType": "bool",
          "name": "",
          "type": "bool"
        }
      ],
      "payable": false,
      "stateMutability": "view",
      "type": "function"
    },
    {
      "constant": true,
      "inputs": [
        {
          "internalType": "address",
          "name": "account",
          "type": "address"
        }
      ],
      "name": "isPauser",
      "outputs": [
        {
          "internalType": "bool",
          "name": "",
          "type": "bool"
        }
      ],
      "payable": false,
      "stateMutability": "view",
      "type": "function"
    },
    {
      "constant": true,
      "inputs": [],
      "name": "owner",
      "outputs": [
        {
          "internalType": "address",
          "name": "",
          "type": "address"
        }
      ],
      "payable": false,
      "stateMutability": "view",
      "type": "function"
    },
    {
      "constant": false,
      "inputs": [],
      "name": "pause",
      "outputs": [],
      "payable": false,
      "stateMutability": "nonpayable",
      "type": "function"
    },
    {
      "constant": true,
      "inputs": [],
      "name": "paused",
      "outputs": [
        {
          "internalType": "bool",
          "name": "",
          "type": "bool"
        }
      ],
      "payable": false,
      "stateMutability": "view",
      "type": "function"
    },
    {
      "constant": false,
      "inputs": [],
      "name": "renounceOwnership",
      "outputs": [],
      "payable": false,
      "stateMutability": "nonpayable",
      "type": "function"
    },
    {
      "constant": false,
      "inputs": [],
      "name": "renouncePauser",
      "outputs": [],
      "payable": false,
      "stateMutability": "nonpayable",
      "type": "function"
    },
    {
      "constant": false,
      "inputs": [
        {
          "internalType": "address",
          "name": "newOwner",
          "type": "address"
        }
      ],
      "name": "transferOwnership",
      "outputs": [],
      "payable": false,
      "stateMutability": "nonpayable",
      "type": "function"
    },
    {
      "constant": false,
      "inputs": [],
      "name": "unpause",
      "outputs": [],
      "payable": false,
      "stateMutability": "nonpayable",
      "type": "function"
    },
    {
      "constant": true,
      "inputs": [],
      "name": "upgraderInfo",
      "outputs": [
        {
          "internalType": "contract UpgraderInfo",
          "name": "",
          "type": "address"
        }
      ],
      "payable": false,
      "stateMutability": "view",
      "type": "function"
    },
    {
      "constant": false,
      "inputs": [
        {
          "internalType": "bytes32",
          "name": "hashChangeMotivation",
          "type": "bytes32"
        },
        {
          "internalType": "address[]",
          "name": "upgraderContractsAddr",
          "type": "address[]"
        },
        {
          "internalType": "address",
          "name": "decisionContractAddr",
          "type": "address"
        }
      ],
      "name": "createNewChange",
      "outputs": [],
      "payable": false,
      "stateMutability": "nonpayable",
      "type": "function"
    },
    {
      "constant": false,
      "inputs": [
        {
          "internalType": "bytes32",
          "name": "hashChangeMotivation",
          "type": "bytes32"
        },
        {
          "internalType": "address[]",
          "name": "upgraderContractsAddr",
          "type": "address[]"
        }
      ],
      "name": "createNewChange",
      "outputs": [],
      "payable": false,
      "stateMutability": "nonpayable",
      "type": "function"
    },
    {
      "constant": false,
      "inputs": [
        {
          "internalType": "uint256",
          "name": "changeNumber",
          "type": "uint256"
        }
      ],
      "name": "executeChange",
      "outputs": [],
      "payable": false,
      "stateMutability": "nonpayable",
      "type": "function"
    },
    {
      "constant": false,
      "inputs": [
        {
          "internalType": "uint256",
          "name": "changeNumber",
          "type": "uint256"
        },
        {
          "internalType": "uint256",
          "name": "index",
          "type": "uint256"
        }
      ],
      "name": "executeChange",
      "outputs": [],
      "payable": false,
      "stateMutability": "nonpayable",
      "type": "function"
    },
    {
      "constant": false,
      "inputs": [
        {
          "internalType": "uint256",
          "name": "changeNumber",
          "type": "uint256"
        }
      ],
      "name": "cancelChange",
      "outputs": [],
      "payable": false,
      "stateMutability": "nonpayable",
      "type": "function"
    },
    {
      "constant": true,
      "inputs": [
        {
          "internalType": "uint256",
          "name": "changeNumber",
          "type": "uint256"
        }
      ],
      "name": "getChange",
      "outputs": [
        {
          "internalType": "bytes32",
          "name": "",
          "type": "bytes32"
        },
        {
          "internalType": "address[]",
          "name": "",
          "type": "address[]"
        },
        {
          "internalType": "uint256",
          "name": "",
          "type": "uint256"
        },
        {
          "internalType": "address",
          "name": "",
          "type": "address"
        },
        {
          "internalType": "enum ChangeManagement.ChangeState",
          "name": "",
          "type": "uint8"
        }
      ],
      "payable": false,
      "stateMutability": "view",
      "type": "function"
    },
    {
      "constant": true,
      "inputs": [
        {
          "internalType": "uint256",
          "name": "changeNumber",
          "type": "uint256"
        }
      ],
      "name": "getDecisionContractToMakeResult",
      "outputs": [
        {
          "internalType": "address",
          "name": "",
          "type": "address"
        }
      ],
      "payable": false,
      "stateMutability": "view",
      "type": "function"
    },
    {
      "constant": false,
      "inputs": [
        {
          "internalType": "uint256",
          "name": "changeNumber",
          "type": "uint256"
        }
      ],
      "name": "approveChange",
      "outputs": [],
      "payable": false,
      "stateMutability": "nonpayable",
      "type": "function"
    },
    {
      "constant": false,
      "inputs": [
        {
          "internalType": "uint256",
          "name": "changeNumber",
          "type": "uint256"
        }
      ],
      "name": "reproveChange",
      "outputs": [],
      "payable": false,
      "stateMutability": "nonpayable",
      "type": "function"
    },
    {
      "constant": false,
      "inputs": [
        {
          "internalType": "address",
          "name": "governanceAddress",
          "type": "address"
        }
      ],
      "name": "setGovernanceAddress",
      "outputs": [],
      "payable": false,
      "stateMutability": "nonpayable",
      "type": "function"
    },
    {
      "constant": false,
      "inputs": [
        {
          "internalType": "address",
          "name": "newAddr",
          "type": "address"
        }
      ],
      "name": "setAdminAddr",
      "outputs": [],
      "payable": false,
      "stateMutability": "nonpayable",
      "type": "function"
    },
    {
      "constant": true,
      "inputs": [],
      "name": "upgraderInfoAddr",
      "outputs": [
        {
          "internalType": "address",
          "name": "",
          "type": "address"
        }
      ],
      "payable": false,
      "stateMutability": "view",
      "type": "function"
    }
  ],
  "bytecode": "0x60806040523480156200001157600080fd5b506040516200481638038062004816833981810160405260208110156200003757600080fd5b8101908080519060200190929190505050620000686200005c620001dd60201b60201c565b620001e560201b60201c565b6000600160006101000a81548160ff021916908315150217905550600062000095620001dd60201b60201c565b9050806001806101000a81548173ffffffffffffffffffffffffffffffffffffffff021916908373ffffffffffffffffffffffffffffffffffffffff1602179055508073ffffffffffffffffffffffffffffffffffffffff16600073ffffffffffffffffffffffffffffffffffffffff167f8be0079c531659141344cd1fd0a4f28419497f9722a3daafe3b4186f6b6457e060405160405180910390a3508060405162000142906200040a565b808273ffffffffffffffffffffffffffffffffffffffff1673ffffffffffffffffffffffffffffffffffffffff168152602001915050604051809103906000f08015801562000195573d6000803e3d6000fd5b50600360006101000a81548173ffffffffffffffffffffffffffffffffffffffff021916908373ffffffffffffffffffffffffffffffffffffffff1602179055505062000418565b600033905090565b620002008160006200024660201b6200313a1790919060201c565b8073ffffffffffffffffffffffffffffffffffffffff167f6719d08c1888103bea251a4ed56406bd0c3e69723c8a1686e017e7bbe159b6f860405160405180910390a250565b6200025882826200032a60201b60201c565b15620002cc576040517f08c379a000000000000000000000000000000000000000000000000000000000815260040180806020018281038252601f8152602001807f526f6c65733a206163636f756e7420616c72656164792068617320726f6c650081525060200191505060405180910390fd5b60018260000160008373ffffffffffffffffffffffffffffffffffffffff1673ffffffffffffffffffffffffffffffffffffffff16815260200190815260200160002060006101000a81548160ff0219169083151502179055505050565b60008073ffffffffffffffffffffffffffffffffffffffff168273ffffffffffffffffffffffffffffffffffffffff161415620003b3576040517f08c379a0000000000000000000000000000000000000000000000000000000008152600401808060200182810382526022815260200180620047f46022913960400191505060405180910390fd5b8260000160008373ffffffffffffffffffffffffffffffffffffffff1673ffffffffffffffffffffffffffffffffffffffff16815260200190815260200160002060009054906101000a900460ff16905092915050565b610dff80620039f583390190565b6135cd80620004286000396000f3fe608060405234801561001057600080fd5b50600436106101735760003560e01c8063715018a6116100de578063900126f411610097578063e34183d611610071578063e34183d614610742578063e741940d14610804578063e92bdfe714610872578063f2fde38b146108a057610173565b8063900126f41461067c578063c23619ea146106c6578063cfc16254146106fe57610173565b8063715018a6146105275780637636ca6e1461053157806382dc1ec4146105c25780638456cb59146106065780638da5cb5b146106105780638f32d59b1461065a57610173565b806346fbf68e1161013057806346fbf68e1461034e57806352bf2c3c146103aa57806354a8bd07146103f45780635b57a2ed146104cd5780635c975abb146104fb5780636ef8d66d1461051d57610173565b8063196fe7b1146101785780631f80f1b1146101a657806335e3aa21146102885780633f4ba83a146102b657806341a28df6146102c0578063439bb83f14610304575b600080fd5b6101a46004803603602081101561018e57600080fd5b81019080803590602001909291905050506108e4565b005b610286600480360360608110156101bc57600080fd5b8101908080359060200190929190803590602001906401000000008111156101e357600080fd5b8201836020820111156101f557600080fd5b8035906020019184602083028401116401000000008311171561021757600080fd5b919080806020026020016040519081016040528093929190818152602001838360200280828437600081840152601f19601f820116905080830192505050505050509192919290803573ffffffffffffffffffffffffffffffffffffffff1690602001909291905050506108f2565b005b6102b46004803603602081101561029e57600080fd5b8101908080359060200190929190505050610cfd565b005b6102be611060565b005b610302600480360360208110156102d657600080fd5b81019080803573ffffffffffffffffffffffffffffffffffffffff1690602001909291905050506111ce565b005b61030c6113b9565b604051808273ffffffffffffffffffffffffffffffffffffffff1673ffffffffffffffffffffffffffffffffffffffff16815260200191505060405180910390f35b6103906004803603602081101561036457600080fd5b81019080803573ffffffffffffffffffffffffffffffffffffffff1690602001909291905050506113df565b604051808215151515815260200191505060405180910390f35b6103b26113fc565b604051808273ffffffffffffffffffffffffffffffffffffffff1673ffffffffffffffffffffffffffffffffffffffff16815260200191505060405180910390f35b6104206004803603602081101561040a57600080fd5b8101908080359060200190929190505050611426565b60405180868152602001806020018581526020018473ffffffffffffffffffffffffffffffffffffffff1673ffffffffffffffffffffffffffffffffffffffff16815260200183600581111561047257fe5b60ff168152602001828103825286818151815260200191508051906020019060200280838360005b838110156104b557808201518184015260208101905061049a565b50505050905001965050505050505060405180910390f35b6104f9600480360360208110156104e357600080fd5b810190808035906020019092919050505061162e565b005b6105036119af565b604051808215151515815260200191505060405180910390f35b6105256119c6565b005b61052f6119d8565b005b61055d6004803603602081101561054757600080fd5b8101908080359060200190929190505050611b11565b604051808581526020018481526020018373ffffffffffffffffffffffffffffffffffffffff1673ffffffffffffffffffffffffffffffffffffffff1681526020018260058111156105ab57fe5b60ff16815260200194505050505060405180910390f35b610604600480360360208110156105d857600080fd5b81019080803573ffffffffffffffffffffffffffffffffffffffff169060200190929190505050611b7b565b005b61060e611bec565b005b610618611d5a565b604051808273ffffffffffffffffffffffffffffffffffffffff1673ffffffffffffffffffffffffffffffffffffffff16815260200191505060405180910390f35b610662611d83565b604051808215151515815260200191505060405180910390f35b610684611de1565b604051808273ffffffffffffffffffffffffffffffffffffffff1673ffffffffffffffffffffffffffffffffffffffff16815260200191505060405180910390f35b6106fc600480360360408110156106dc57600080fd5b810190808035906020019092919080359060200190929190505050611e07565b005b6107406004803603602081101561071457600080fd5b81019080803573ffffffffffffffffffffffffffffffffffffffff1690602001909291905050506125ba565b005b6108026004803603604081101561075857600080fd5b81019080803590602001909291908035906020019064010000000081111561077f57600080fd5b82018360208201111561079157600080fd5b803590602001918460208302840111640100000000831117156107b357600080fd5b919080806020026020016040519081016040528093929190818152602001838360200280828437600081840152601f19601f8201169050808301925050505050505091929192905050506126db565b005b6108306004803603602081101561081a57600080fd5b8101908080359060200190929190505050612765565b604051808273ffffffffffffffffffffffffffffffffffffffff1673ffffffffffffffffffffffffffffffffffffffff16815260200191505060405180910390f35b61089e6004803603602081101561088857600080fd5b81019080803590602001909291905050506129b6565b005b6108e2600480360360208110156108b657600080fd5b81019080803573ffffffffffffffffffffffffffffffffffffffff169060200190929190505050612d19565b005b6108ef816000611e07565b50565b6108fa611d83565b61096c576040517f08c379a00000000000000000000000000000000000000000000000000000000081526004018080602001828103825260208152602001807f4f776e61626c653a2063616c6c6572206973206e6f7420746865206f776e657281525060200191505060405180910390fd5b6000600280549050905061097e613215565b600073ffffffffffffffffffffffffffffffffffffffff168373ffffffffffffffffffffffffffffffffffffffff1614610abf576040518060a00160405280868152602001858152602001600081526020018473ffffffffffffffffffffffffffffffffffffffff168152602001600060058111156109f957fe5b81525090507fd546849b0889a5bec23c81690ccf246e96207848430c4fced15c9defa658e0838286868660405180858152602001848152602001806020018373ffffffffffffffffffffffffffffffffffffffff1673ffffffffffffffffffffffffffffffffffffffff168152602001828103825284818151815260200191508051906020019060200280838360005b83811015610aa4578082015181840152602081019050610a89565b505050509050019550505050505060405180910390a1610c24565b6040518060a0016040528086815260200185815260200160008152602001600073ffffffffffffffffffffffffffffffffffffffff16815260200160016005811115610b0757fe5b81525090507fd546849b0889a5bec23c81690ccf246e96207848430c4fced15c9defa658e083828686600060405180858152602001848152602001806020018373ffffffffffffffffffffffffffffffffffffffff1673ffffffffffffffffffffffffffffffffffffffff168152602001828103825284818151815260200191508051906020019060200280838360005b83811015610bb3578082015181840152602081019050610b98565b505050509050019550505050505060405180910390a1600181608001906005811115610bdb57fe5b90816005811115610be857fe5b815250507ff6c7f9b41b46dcd0ed5e8a9b5ea016cc15493d731db259a2efb7dd055af86684826040518082815260200191505060405180910390a15b60028190806001815401808255809150509060018203906000526020600020906004020160009091929091909150600082015181600001556020820151816001019080519060200190610c78929190613268565b506040820151816002015560608201518160030160006101000a81548173ffffffffffffffffffffffffffffffffffffffff021916908373ffffffffffffffffffffffffffffffffffffffff16021790555060808201518160030160146101000a81548160ff02191690836005811115610cee57fe5b02179055505050505050505050565b600460009054906101000a900473ffffffffffffffffffffffffffffffffffffffff1673ffffffffffffffffffffffffffffffffffffffff163373ffffffffffffffffffffffffffffffffffffffff1614610da3576040517f08c379a000000000000000000000000000000000000000000000000000000000815260040180806020018281038252603081526020018061341b6030913960400191505060405180910390fd5b6002805490508110610e1d576040517f08c379a00000000000000000000000000000000000000000000000000000000081526004018080602001828103825260158152602001807f496e76616c6964206368616e6765206e756d626572000000000000000000000081525060200191505060405180910390fd5b610e25613215565b60028281548110610e3257fe5b90600052602060002090600402016040518060a00160405290816000820154815260200160018201805480602002602001604051908101604052809291908181526020018280548015610eda57602002820191906000526020600020905b8160009054906101000a900473ffffffffffffffffffffffffffffffffffffffff1673ffffffffffffffffffffffffffffffffffffffff1681526020019060010190808311610e90575b50505050508152602001600282015481526020016003820160009054906101000a900473ffffffffffffffffffffffffffffffffffffffff1673ffffffffffffffffffffffffffffffffffffffff1673ffffffffffffffffffffffffffffffffffffffff1681526020016003820160149054906101000a900460ff166005811115610f6157fe5b6005811115610f6c57fe5b81525050905060006005811115610f7f57fe5b81608001516005811115610f8f57fe5b14610fe5576040517f08c379a00000000000000000000000000000000000000000000000000000000081526004018080602001828103825260278152602001806135136027913960400191505060405180910390fd5b600160028381548110610ff457fe5b906000526020600020906004020160030160146101000a81548160ff0219169083600581111561102057fe5b02179055507ff6c7f9b41b46dcd0ed5e8a9b5ea016cc15493d731db259a2efb7dd055af86684826040518082815260200191505060405180910390a15050565b61107061106b612d9f565b6113df565b6110c5576040517f08c379a00000000000000000000000000000000000000000000000000000000081526004018080602001828103825260308152602001806133c56030913960400191505060405180910390fd5b600160009054906101000a900460ff16611147576040517f08c379a00000000000000000000000000000000000000000000000000000000081526004018080602001828103825260148152602001807f5061757361626c653a206e6f742070617573656400000000000000000000000081525060200191505060405180910390fd5b6000600160006101000a81548160ff0219169083151502179055507f5db9ee0a495bf2e6ff9c91a7834c1ba4fdd244a5e8aa4e537bd38aeae4b073aa61118b612d9f565b604051808273ffffffffffffffffffffffffffffffffffffffff1673ffffffffffffffffffffffffffffffffffffffff16815260200191505060405180910390a1565b600360009054906101000a900473ffffffffffffffffffffffffffffffffffffffff1673ffffffffffffffffffffffffffffffffffffffff16637e96549f336040518263ffffffff1660e01b8152600401808273ffffffffffffffffffffffffffffffffffffffff1673ffffffffffffffffffffffffffffffffffffffff16815260200191505060206040518083038186803b15801561126d57600080fd5b505afa158015611281573d6000803e3d6000fd5b505050506040513d602081101561129757600080fd5b81019080805190602001909291905050506112fd576040517f08c379a000000000000000000000000000000000000000000000000000000000815260040180806020018281038252602f81526020018061335e602f913960400191505060405180910390fd5b600360009054906101000a900473ffffffffffffffffffffffffffffffffffffffff1673ffffffffffffffffffffffffffffffffffffffff166341a28df6826040518263ffffffff1660e01b8152600401808273ffffffffffffffffffffffffffffffffffffffff1673ffffffffffffffffffffffffffffffffffffffff168152602001915050600060405180830381600087803b15801561139e57600080fd5b505af11580156113b2573d6000803e3d6000fd5b5050505050565b600460009054906101000a900473ffffffffffffffffffffffffffffffffffffffff1681565b60006113f5826000612da790919063ffffffff16565b9050919050565b6000600360009054906101000a900473ffffffffffffffffffffffffffffffffffffffff16905090565b60006060600080600060028054905086106114a9576040517f08c379a00000000000000000000000000000000000000000000000000000000081526004018080602001828103825260158152602001807f496e76616c6964206368616e6765206e756d626572000000000000000000000081525060200191505060405180910390fd5b6114b1613215565b600287815481106114be57fe5b90600052602060002090600402016040518060a0016040529081600082015481526020016001820180548060200260200160405190810160405280929190818152602001828054801561156657602002820191906000526020600020905b8160009054906101000a900473ffffffffffffffffffffffffffffffffffffffff1673ffffffffffffffffffffffffffffffffffffffff168152602001906001019080831161151c575b50505050508152602001600282015481526020016003820160009054906101000a900473ffffffffffffffffffffffffffffffffffffffff1673ffffffffffffffffffffffffffffffffffffffff1673ffffffffffffffffffffffffffffffffffffffff1681526020016003820160149054906101000a900460ff1660058111156115ed57fe5b60058111156115f857fe5b81525050905080600001518160200151826040015183606001518460800151839350955095509550955095505091939590929450565b611636611d83565b6116a8576040517f08c379a00000000000000000000000000000000000000000000000000000000081526004018080602001828103825260208152602001807f4f776e61626c653a2063616c6c6572206973206e6f7420746865206f776e657281525060200191505060405180910390fd5b6002805490508110611722576040517f08c379a00000000000000000000000000000000000000000000000000000000081526004018080602001828103825260158152602001807f496e76616c6964206368616e6765206e756d626572000000000000000000000081525060200191505060405180910390fd5b61172a613215565b6002828154811061173757fe5b90600052602060002090600402016040518060a001604052908160008201548152602001600182018054806020026020016040519081016040528092919081815260200182805480156117df57602002820191906000526020600020905b8160009054906101000a900473ffffffffffffffffffffffffffffffffffffffff1673ffffffffffffffffffffffffffffffffffffffff1681526020019060010190808311611795575b50505050508152602001600282015481526020016003820160009054906101000a900473ffffffffffffffffffffffffffffffffffffffff1673ffffffffffffffffffffffffffffffffffffffff1673ffffffffffffffffffffffffffffffffffffffff1681526020016003820160149054906101000a900460ff16600581111561186657fe5b600581111561187157fe5b8152505090506000600581111561188457fe5b8160800151600581111561189457fe5b14806118ba5750600160058111156118a857fe5b816080015160058111156118b857fe5b145b806118df5750600260058111156118cd57fe5b816080015160058111156118dd57fe5b145b611934576040517f08c379a000000000000000000000000000000000000000000000000000000000815260040180806020018281038252604081526020018061344b6040913960400191505060405180910390fd5b60046002838154811061194357fe5b906000526020600020906004020160030160146101000a81548160ff0219169083600581111561196f57fe5b02179055507f5edd520c0103960fbe1e1fc55ae80c123b61704fa2429473cef253e3c90ae27e826040518082815260200191505060405180910390a15050565b6000600160009054906101000a900460ff16905090565b6119d66119d1612d9f565b612e85565b565b6119e0611d83565b611a52576040517f08c379a00000000000000000000000000000000000000000000000000000000081526004018080602001828103825260208152602001807f4f776e61626c653a2063616c6c6572206973206e6f7420746865206f776e657281525060200191505060405180910390fd5b600073ffffffffffffffffffffffffffffffffffffffff166001809054906101000a900473ffffffffffffffffffffffffffffffffffffffff1673ffffffffffffffffffffffffffffffffffffffff167f8be0079c531659141344cd1fd0a4f28419497f9722a3daafe3b4186f6b6457e060405160405180910390a360006001806101000a81548173ffffffffffffffffffffffffffffffffffffffff021916908373ffffffffffffffffffffffffffffffffffffffff160217905550565b60028181548110611b1e57fe5b90600052602060002090600402016000915090508060000154908060020154908060030160009054906101000a900473ffffffffffffffffffffffffffffffffffffffff16908060030160149054906101000a900460ff16905084565b611b8b611b86612d9f565b6113df565b611be0576040517f08c379a00000000000000000000000000000000000000000000000000000000081526004018080602001828103825260308152602001806133c56030913960400191505060405180910390fd5b611be981612edf565b50565b611bfc611bf7612d9f565b6113df565b611c51576040517f08c379a00000000000000000000000000000000000000000000000000000000081526004018080602001828103825260308152602001806133c56030913960400191505060405180910390fd5b600160009054906101000a900460ff1615611cd4576040517f08c379a00000000000000000000000000000000000000000000000000000000081526004018080602001828103825260108152602001807f5061757361626c653a207061757365640000000000000000000000000000000081525060200191505060405180910390fd5b60018060006101000a81548160ff0219169083151502179055507f62e78cea01bee320cd4e420270b5ea74000d11b0c9f74754ebdbfc544b05a258611d17612d9f565b604051808273ffffffffffffffffffffffffffffffffffffffff1673ffffffffffffffffffffffffffffffffffffffff16815260200191505060405180910390a1565b60006001809054906101000a900473ffffffffffffffffffffffffffffffffffffffff16905090565b60006001809054906101000a900473ffffffffffffffffffffffffffffffffffffffff1673ffffffffffffffffffffffffffffffffffffffff16611dc5612d9f565b73ffffffffffffffffffffffffffffffffffffffff1614905090565b600360009054906101000a900473ffffffffffffffffffffffffffffffffffffffff1681565b6002805490508210611e81576040517f08c379a00000000000000000000000000000000000000000000000000000000081526004018080602001828103825260158152602001807f496e76616c6964206368616e6765206e756d626572000000000000000000000081525060200191505060405180910390fd5b600360009054906101000a900473ffffffffffffffffffffffffffffffffffffffff1673ffffffffffffffffffffffffffffffffffffffff166324d7806c336040518263ffffffff1660e01b8152600401808273ffffffffffffffffffffffffffffffffffffffff1673ffffffffffffffffffffffffffffffffffffffff16815260200191505060206040518083038186803b158015611f2057600080fd5b505afa158015611f34573d6000803e3d6000fd5b505050506040513d6020811015611f4a57600080fd5b8101908080519060200190929190505050611fb0576040517f08c379a00000000000000000000000000000000000000000000000000000000081526004018080602001828103825260288152602001806133366028913960400191505060405180910390fd5b611fb8613215565b60028381548110611fc557fe5b90600052602060002090600402016040518060a0016040529081600082015481526020016001820180548060200260200160405190810160405280929190818152602001828054801561206d57602002820191906000526020600020905b8160009054906101000a900473ffffffffffffffffffffffffffffffffffffffff1673ffffffffffffffffffffffffffffffffffffffff1681526020019060010190808311612023575b50505050508152602001600282015481526020016003820160009054906101000a900473ffffffffffffffffffffffffffffffffffffffff1673ffffffffffffffffffffffffffffffffffffffff1673ffffffffffffffffffffffffffffffffffffffff1681526020016003820160149054906101000a900460ff1660058111156120f457fe5b60058111156120ff57fe5b8152505090506001600581111561211257fe5b8160800151600581111561212257fe5b148061214857506002600581111561213657fe5b8160800151600581111561214657fe5b145b61219d576040517f08c379a000000000000000000000000000000000000000000000000000000000815260040180806020018281038252603881526020018061338d6038913960400191505060405180910390fd5b606081602001519050805183106121ff576040517f08c379a00000000000000000000000000000000000000000000000000000000081526004018080602001828103825260348152602001806134be6034913960400191505060405180910390fd5b816040015183101561225c576040517f08c379a000000000000000000000000000000000000000000000000000000000815260040180806020018281038252603381526020018061348b6033913960400191505060405180910390fd5b81604001518311156122b9576040517f08c379a000000000000000000000000000000000000000000000000000000000815260040180806020018281038252603d81526020018061353a603d913960400191505060405180910390fd5b60008184815181106122c757fe5b60200260200101519050600360009054906101000a900473ffffffffffffffffffffffffffffffffffffffff1673ffffffffffffffffffffffffffffffffffffffff166311a1c423826040518263ffffffff1660e01b8152600401808273ffffffffffffffffffffffffffffffffffffffff1673ffffffffffffffffffffffffffffffffffffffff168152602001915050600060405180830381600087803b15801561237257600080fd5b505af1158015612386573d6000803e3d6000fd5b5050505060008190508073ffffffffffffffffffffffffffffffffffffffff1663d55ec6976040518163ffffffff1660e01b8152600401600060405180830381600087803b1580156123d757600080fd5b505af11580156123eb573d6000803e3d6000fd5b50505050600286815481106123fc57fe5b90600052602060002090600402016002016000815480929190600101919050555082516002878154811061242c57fe5b9060005260206000209060040201600201541015612512577f41946281f85c39b347ef098a9c9a8d2aae5e51c510aee0293cc4359bd7de35d48686604051808381526020018281526020019250505060405180910390a16001600581111561249057fe5b6002878154811061249d57fe5b906000526020600020906004020160030160149054906101000a900460ff1660058111156124c757fe5b141561250d5760028087815481106124db57fe5b906000526020600020906004020160030160146101000a81548160ff0219169083600581111561250757fe5b02179055505b6125b2565b82516002878154811061252157fe5b90600052602060002090600402016002015414156125b15760056002878154811061254857fe5b906000526020600020906004020160030160146101000a81548160ff0219169083600581111561257457fe5b02179055507f917059c1f4e69f15a941c78efb433b9957e94aceae99b068787c32e18c4a9b8d866040518082815260200191505060405180910390a15b5b505050505050565b6125c2611d83565b612634576040517f08c379a00000000000000000000000000000000000000000000000000000000081526004018080602001828103825260208152602001807f4f776e61626c653a2063616c6c6572206973206e6f7420746865206f776e657281525060200191505060405180910390fd5b80600460006101000a81548173ffffffffffffffffffffffffffffffffffffffff021916908373ffffffffffffffffffffffffffffffffffffffff1602179055507f24a8c4807b324a269a51827c3446b8ac1cc13810d7d0c0ca1efafabddd7b621981604051808273ffffffffffffffffffffffffffffffffffffffff1673ffffffffffffffffffffffffffffffffffffffff16815260200191505060405180910390a150565b6126e3611d83565b612755576040517f08c379a00000000000000000000000000000000000000000000000000000000081526004018080602001828103825260208152602001807f4f776e61626c653a2063616c6c6572206973206e6f7420746865206f776e657281525060200191505060405180910390fd5b612761828260006108f2565b5050565b600060028054905082106127e1576040517f08c379a00000000000000000000000000000000000000000000000000000000081526004018080602001828103825260158152602001807f496e76616c6964206368616e6765206e756d626572000000000000000000000081525060200191505060405180910390fd5b6127e9613215565b600283815481106127f657fe5b90600052602060002090600402016040518060a0016040529081600082015481526020016001820180548060200260200160405190810160405280929190818152602001828054801561289e57602002820191906000526020600020905b8160009054906101000a900473ffffffffffffffffffffffffffffffffffffffff1673ffffffffffffffffffffffffffffffffffffffff1681526020019060010190808311612854575b50505050508152602001600282015481526020016003820160009054906101000a900473ffffffffffffffffffffffffffffffffffffffff1673ffffffffffffffffffffffffffffffffffffffff1673ffffffffffffffffffffffffffffffffffffffff1681526020016003820160149054906101000a900460ff16600581111561292557fe5b600581111561293057fe5b8152505090506000600581111561294357fe5b8160800151600581111561295357fe5b146129a9576040517f08c379a00000000000000000000000000000000000000000000000000000000081526004018080602001828103825260278152602001806135136027913960400191505060405180910390fd5b8060600151915050919050565b600460009054906101000a900473ffffffffffffffffffffffffffffffffffffffff1673ffffffffffffffffffffffffffffffffffffffff163373ffffffffffffffffffffffffffffffffffffffff1614612a5c576040517f08c379a000000000000000000000000000000000000000000000000000000000815260040180806020018281038252603081526020018061341b6030913960400191505060405180910390fd5b6002805490508110612ad6576040517f08c379a00000000000000000000000000000000000000000000000000000000081526004018080602001828103825260158152602001807f496e76616c6964206368616e6765206e756d626572000000000000000000000081525060200191505060405180910390fd5b612ade613215565b60028281548110612aeb57fe5b90600052602060002090600402016040518060a00160405290816000820154815260200160018201805480602002602001604051908101604052809291908181526020018280548015612b9357602002820191906000526020600020905b8160009054906101000a900473ffffffffffffffffffffffffffffffffffffffff1673ffffffffffffffffffffffffffffffffffffffff1681526020019060010190808311612b49575b50505050508152602001600282015481526020016003820160009054906101000a900473ffffffffffffffffffffffffffffffffffffffff1673ffffffffffffffffffffffffffffffffffffffff1673ffffffffffffffffffffffffffffffffffffffff1681526020016003820160149054906101000a900460ff166005811115612c1a57fe5b6005811115612c2557fe5b81525050905060006005811115612c3857fe5b81608001516005811115612c4857fe5b14612c9e576040517f08c379a00000000000000000000000000000000000000000000000000000000081526004018080602001828103825260278152602001806135136027913960400191505060405180910390fd5b600360028381548110612cad57fe5b906000526020600020906004020160030160146101000a81548160ff02191690836005811115612cd957fe5b02179055507ff1a8ffd21fe9ef7be34e0f4bf577d3bf31ce3c19c68d2c046d22275cb8b715f4826040518082815260200191505060405180910390a15050565b612d21611d83565b612d93576040517f08c379a00000000000000000000000000000000000000000000000000000000081526004018080602001828103825260208152602001807f4f776e61626c653a2063616c6c6572206973206e6f7420746865206f776e657281525060200191505060405180910390fd5b612d9c81612f39565b50565b600033905090565b60008073ffffffffffffffffffffffffffffffffffffffff168273ffffffffffffffffffffffffffffffffffffffff161415612e2e576040517f08c379a00000000000000000000000000000000000000000000000000000000081526004018080602001828103825260228152602001806135776022913960400191505060405180910390fd5b8260000160008373ffffffffffffffffffffffffffffffffffffffff1673ffffffffffffffffffffffffffffffffffffffff16815260200190815260200160002060009054906101000a900460ff16905092915050565b612e9981600061307d90919063ffffffff16565b8073ffffffffffffffffffffffffffffffffffffffff167fcd265ebaf09df2871cc7bd4133404a235ba12eff2041bb89d9c714a2621c7c7e60405160405180910390a250565b612ef381600061313a90919063ffffffff16565b8073ffffffffffffffffffffffffffffffffffffffff167f6719d08c1888103bea251a4ed56406bd0c3e69723c8a1686e017e7bbe159b6f860405160405180910390a250565b600073ffffffffffffffffffffffffffffffffffffffff168173ffffffffffffffffffffffffffffffffffffffff161415612fbf576040517f08c379a00000000000000000000000000000000000000000000000000000000081526004018080602001828103825260268152602001806133f56026913960400191505060405180910390fd5b8073ffffffffffffffffffffffffffffffffffffffff166001809054906101000a900473ffffffffffffffffffffffffffffffffffffffff1673ffffffffffffffffffffffffffffffffffffffff167f8be0079c531659141344cd1fd0a4f28419497f9722a3daafe3b4186f6b6457e060405160405180910390a3806001806101000a81548173ffffffffffffffffffffffffffffffffffffffff021916908373ffffffffffffffffffffffffffffffffffffffff16021790555050565b6130878282612da7565b6130dc576040517f08c379a00000000000000000000000000000000000000000000000000000000081526004018080602001828103825260218152602001806134f26021913960400191505060405180910390fd5b60008260000160008373ffffffffffffffffffffffffffffffffffffffff1673ffffffffffffffffffffffffffffffffffffffff16815260200190815260200160002060006101000a81548160ff0219169083151502179055505050565b6131448282612da7565b156131b7576040517f08c379a000000000000000000000000000000000000000000000000000000000815260040180806020018281038252601f8152602001807f526f6c65733a206163636f756e7420616c72656164792068617320726f6c650081525060200191505060405180910390fd5b60018260000160008373ffffffffffffffffffffffffffffffffffffffff1673ffffffffffffffffffffffffffffffffffffffff16815260200190815260200160002060006101000a81548160ff0219169083151502179055505050565b6040518060a00160405280600080191681526020016060815260200160008152602001600073ffffffffffffffffffffffffffffffffffffffff1681526020016000600581111561326257fe5b81525090565b8280548282559060005260206000209081019282156132e1579160200282015b828111156132e05782518260006101000a81548173ffffffffffffffffffffffffffffffffffffffff021916908373ffffffffffffffffffffffffffffffffffffffff16021790555091602001919060010190613288565b5b5090506132ee91906132f2565b5090565b61333291905b8082111561332e57600081816101000a81549073ffffffffffffffffffffffffffffffffffffffff0219169055506001016132f8565b5090565b9056fe546865206368616e6765206e6565647320746f2062652065786563757465642062792041646d696e546869732066756e6374696f6e2063616e206f6e6c7920626520657865637574656420627920557067726164657273546865206368616e6765206e6565647320746f20626520696e20415050524f564544206f7220696e20455845435554494e47207374617465506175736572526f6c653a2063616c6c657220646f6573206e6f742068617665207468652050617573657220726f6c654f776e61626c653a206e6577206f776e657220697320746865207a65726f2061646472657373546869732066756e6374696f6e2063616e206f6e6c7920626520657865637574656420627920476f7665726e616e6365546865206368616e6765206e6565647320746f20626520696e2057414954494e47206f7220415050524f564544206f7220455845435554494e47207374617465696e6465782062656c6f6e677320746f2061206368616e676520746861742077617320616c7265616479206578656375746564696e646578206d757374206265206c6f776572207468616e2074686520746f74616c2073697a65206f6620557067726164657273526f6c65733a206163636f756e7420646f6573206e6f74206861766520726f6c65546865206368616e6765206e6565647320746f20626520696e2057414954494e472073746174656974206973206e656365737361727920746f206578656375746520616e2075706772616465722077697468206c6f77657220696e646578206669727374526f6c65733a206163636f756e7420697320746865207a65726f2061646472657373a265627a7a72315820e5d335084ecc22c702d3d8ac8de36d3051027e64ac9fb58c7f09a2352930a08764736f6c63430005100032608060405234801561001057600080fd5b50604051610dff380380610dff8339818101604052602081101561003357600080fd5b810190808051906020019092919050505060006100546101b560201b60201c565b9050806000806101000a81548173ffffffffffffffffffffffffffffffffffffffff021916908373ffffffffffffffffffffffffffffffffffffffff1602179055508073ffffffffffffffffffffffffffffffffffffffff16600073ffffffffffffffffffffffffffffffffffffffff167f8be0079c531659141344cd1fd0a4f28419497f9722a3daafe3b4186f6b6457e060405160405180910390a3508073ffffffffffffffffffffffffffffffffffffffff16600260009054906101000a900473ffffffffffffffffffffffffffffffffffffffff1673ffffffffffffffffffffffffffffffffffffffff167f7e644d79422f17c01e4894b5f4f588d331ebfa28653d42ae832dc59e38c9798f60405160405180910390a380600260006101000a81548173ffffffffffffffffffffffffffffffffffffffff021916908373ffffffffffffffffffffffffffffffffffffffff160217905550506101bd565b600033905090565b610c33806101cc6000396000f3fe608060405234801561001057600080fd5b50600436106100b45760003560e01c80637e96549f116100715780637e96549f1461023b57806381830593146102975780638da5cb5b146102e15780638f32d59b1461032b578063eff2dcc61461034d578063f2fde38b14610397576100b4565b8063030aa320146100b957806311a1c4231461010357806324d7806c146101475780632ea6895e146101a357806341a28df6146101ed578063715018a614610231575b600080fd5b6100c16103db565b604051808273ffffffffffffffffffffffffffffffffffffffff1673ffffffffffffffffffffffffffffffffffffffff16815260200191505060405180910390f35b6101456004803603602081101561011957600080fd5b81019080803573ffffffffffffffffffffffffffffffffffffffff169060200190929190505050610401565b005b6101896004803603602081101561015d57600080fd5b81019080803573ffffffffffffffffffffffffffffffffffffffff16906020019092919050505061053b565b604051808215151515815260200191505060405180910390f35b6101ab610595565b604051808273ffffffffffffffffffffffffffffffffffffffff1673ffffffffffffffffffffffffffffffffffffffff16815260200191505060405180910390f35b61022f6004803603602081101561020357600080fd5b81019080803573ffffffffffffffffffffffffffffffffffffffff1690602001909291905050506105bb565b005b610239610798565b005b61027d6004803603602081101561025157600080fd5b81019080803573ffffffffffffffffffffffffffffffffffffffff1690602001909291905050506108d1565b604051808215151515815260200191505060405180910390f35b61029f61092b565b604051808273ffffffffffffffffffffffffffffffffffffffff1673ffffffffffffffffffffffffffffffffffffffff16815260200191505060405180910390f35b6102e9610955565b604051808273ffffffffffffffffffffffffffffffffffffffff1673ffffffffffffffffffffffffffffffffffffffff16815260200191505060405180910390f35b61033361097e565b604051808215151515815260200191505060405180910390f35b6103556109dc565b604051808273ffffffffffffffffffffffffffffffffffffffff1673ffffffffffffffffffffffffffffffffffffffff16815260200191505060405180910390f35b6103d9600480360360208110156103ad57600080fd5b81019080803573ffffffffffffffffffffffffffffffffffffffff169060200190929190505050610a06565b005b600260009054906101000a900473ffffffffffffffffffffffffffffffffffffffff1681565b61040961097e565b61047b576040517f08c379a00000000000000000000000000000000000000000000000000000000081526004018080602001828103825260208152602001807f4f776e61626c653a2063616c6c6572206973206e6f7420746865206f776e657281525060200191505060405180910390fd5b8073ffffffffffffffffffffffffffffffffffffffff16600160009054906101000a900473ffffffffffffffffffffffffffffffffffffffff1673ffffffffffffffffffffffffffffffffffffffff167f9cc0fca95bdc66b57e27ff56ce70619d6c76e891759b10768345411032913ecf60405160405180910390a380600160006101000a81548173ffffffffffffffffffffffffffffffffffffffff021916908373ffffffffffffffffffffffffffffffffffffffff16021790555050565b60008173ffffffffffffffffffffffffffffffffffffffff16600260009054906101000a900473ffffffffffffffffffffffffffffffffffffffff1673ffffffffffffffffffffffffffffffffffffffff16149050919050565b600160009054906101000a900473ffffffffffffffffffffffffffffffffffffffff1681565b6105c361097e565b610635576040517f08c379a00000000000000000000000000000000000000000000000000000000081526004018080602001828103825260208152602001807f4f776e61626c653a2063616c6c6572206973206e6f7420746865206f776e657281525060200191505060405180910390fd5b600073ffffffffffffffffffffffffffffffffffffffff168173ffffffffffffffffffffffffffffffffffffffff1614156106d8576040517f08c379a000000000000000000000000000000000000000000000000000000000815260040180806020018281038252601e8152602001807f4e657741646472206973206e6f7420612076616c69642061646472657373000081525060200191505060405180910390fd5b8073ffffffffffffffffffffffffffffffffffffffff16600260009054906101000a900473ffffffffffffffffffffffffffffffffffffffff1673ffffffffffffffffffffffffffffffffffffffff167f7e644d79422f17c01e4894b5f4f588d331ebfa28653d42ae832dc59e38c9798f60405160405180910390a380600260006101000a81548173ffffffffffffffffffffffffffffffffffffffff021916908373ffffffffffffffffffffffffffffffffffffffff16021790555050565b6107a061097e565b610812576040517f08c379a00000000000000000000000000000000000000000000000000000000081526004018080602001828103825260208152602001807f4f776e61626c653a2063616c6c6572206973206e6f7420746865206f776e657281525060200191505060405180910390fd5b600073ffffffffffffffffffffffffffffffffffffffff166000809054906101000a900473ffffffffffffffffffffffffffffffffffffffff1673ffffffffffffffffffffffffffffffffffffffff167f8be0079c531659141344cd1fd0a4f28419497f9722a3daafe3b4186f6b6457e060405160405180910390a360008060006101000a81548173ffffffffffffffffffffffffffffffffffffffff021916908373ffffffffffffffffffffffffffffffffffffffff160217905550565b6000600160009054906101000a900473ffffffffffffffffffffffffffffffffffffffff1673ffffffffffffffffffffffffffffffffffffffff168273ffffffffffffffffffffffffffffffffffffffff16149050919050565b6000600260009054906101000a900473ffffffffffffffffffffffffffffffffffffffff16905090565b60008060009054906101000a900473ffffffffffffffffffffffffffffffffffffffff16905090565b60008060009054906101000a900473ffffffffffffffffffffffffffffffffffffffff1673ffffffffffffffffffffffffffffffffffffffff166109c0610a8c565b73ffffffffffffffffffffffffffffffffffffffff1614905090565b6000600160009054906101000a900473ffffffffffffffffffffffffffffffffffffffff16905090565b610a0e61097e565b610a80576040517f08c379a00000000000000000000000000000000000000000000000000000000081526004018080602001828103825260208152602001807f4f776e61626c653a2063616c6c6572206973206e6f7420746865206f776e657281525060200191505060405180910390fd5b610a8981610a94565b50565b600033905090565b600073ffffffffffffffffffffffffffffffffffffffff168173ffffffffffffffffffffffffffffffffffffffff161415610b1a576040517f08c379a0000000000000000000000000000000000000000000000000000000008152600401808060200182810382526026815260200180610bd96026913960400191505060405180910390fd5b8073ffffffffffffffffffffffffffffffffffffffff166000809054906101000a900473ffffffffffffffffffffffffffffffffffffffff1673ffffffffffffffffffffffffffffffffffffffff167f8be0079c531659141344cd1fd0a4f28419497f9722a3daafe3b4186f6b6457e060405160405180910390a3806000806101000a81548173ffffffffffffffffffffffffffffffffffffffff021916908373ffffffffffffffffffffffffffffffffffffffff1602179055505056fe4f776e61626c653a206e6577206f776e657220697320746865207a65726f2061646472657373a265627a7a723158206c03dc7c01ec2b9bc99e776d68cd7ecf45e9cc49a2fb37060c6f48d8d6c6784e64736f6c63430005100032526f6c65733a206163636f756e7420697320746865207a65726f2061646472657373",
  "source": "pragma solidity ^0.5.0;\n\nimport \"openzeppelin-solidity/contracts/ownership/Ownable.sol\";\nimport \"openzeppelin-solidity/contracts/lifecycle/Pausable.sol\";\n\nimport \"./UpgraderInfo.sol\";\nimport \"./Upgrader.sol\";\n\ncontract ChangeManagement is Pausable, Ownable() {\n\n    enum ChangeState { WAITING, APPROVED, EXECUTING, DISAPPROVED, CANCELED, FINISHED }\n\n    struct ChangeDataStructure {\n        \n        //Hash of the change motivation\n        bytes32 hashChangeMotivation;\n        \n        //Address of upgrader contract\n        address[] upgraderContractsAddr;\n\n        //Stores the next executed upgrader of this change data structure - it will finish with upgraderContractsAddr.lenght\n        uint upgraderContractToBeExecutedIndex;\n\n        //Address of decision contract (if necessary)\n        address decisionContractAddr;\n\n        ChangeState changeState;\n    }\n\n    ChangeDataStructure[] public governingChanges;\n    UpgraderInfo public upgraderInfo;\n    address public _governanceAddress;\n\n    modifier onlyAllowedUpgrader() {\n        require(upgraderInfo.isAllowedUpgrader(msg.sender), \"This function can only be executed by Upgraders\");\n        _;\n    }\n    modifier onlyGovernance() {\n        require(msg.sender==_governanceAddress, \"This function can only be executed by Governance\");\n        _;\n    }\n\n    constructor (address adminOfNewContractsAddr) public {\n        upgraderInfo = new UpgraderInfo(adminOfNewContractsAddr);\n    }\n\n    event NewChangeCreated(uint changeNumber, bytes32 hashChangeMotivation, address[] upgraderContractsAddr,\n            address decisionContractAddr);\n    event ChangeApproved(uint changeNumber);\n    event ChangePartialExecuted(uint changeNumber, uint index);\n    event ChangeExecuted(uint changeNumber);\n    event ChangeDisapproved(uint changeNumber);\n    event ChangeCancelled(uint changeNumber);\n    event SetGovernance(address addr);\n\n    function createNewChange (bytes32 hashChangeMotivation, address[] memory upgraderContractsAddr) public onlyOwner {\n          createNewChange(hashChangeMotivation, upgraderContractsAddr, address(0));\n    }\n\n    function createNewChange (bytes32 hashChangeMotivation, address[] memory upgraderContractsAddr,\n            address decisionContractAddr) public onlyOwner {\n            \n            uint changeNumber = governingChanges.length;\n\n            ChangeDataStructure memory cds;\n            \n            //TODO: funciona?\n            if (decisionContractAddr != address(0)) {\n                //GovernanceDecision governanceDecision = new GovernanceDecision(governanceMembersId, percentageDecision, address(idRegistry), changeNumber);\n                cds = ChangeDataStructure(hashChangeMotivation, upgraderContractsAddr, 0,\n                        decisionContractAddr, ChangeState.WAITING);\n                emit NewChangeCreated(changeNumber, hashChangeMotivation, upgraderContractsAddr, decisionContractAddr);\n\n            }\n            else { //The owner decided by itself\n                cds = ChangeDataStructure(hashChangeMotivation, upgraderContractsAddr, 0,\n                                    address(0), ChangeState.APPROVED);\n                emit NewChangeCreated(changeNumber, hashChangeMotivation, upgraderContractsAddr, address(0));\n                cds.changeState = ChangeState.APPROVED;\n                emit ChangeApproved(changeNumber);\n\n            }\n            governingChanges.push(cds);\n    }\n\n    function executeChange (uint changeNumber) public {\n        executeChange(changeNumber, 0);\n    }\n\n    function executeChange (uint changeNumber, uint index) public {\n\n        require (changeNumber<governingChanges.length, \"Invalid change number\");\n\n        require (upgraderInfo.isAdmin(msg.sender), \"The change needs to be executed by Admin\");\n\n        ChangeDataStructure memory cds = governingChanges[changeNumber];\n\n        require(cds.changeState==ChangeState.APPROVED || cds.changeState==ChangeState.EXECUTING,\n            \"The change needs to be in APPROVED or in EXECUTING state\");\n\n        address[] memory upgraderContractsAddr = cds.upgraderContractsAddr;\n\n        require (index < upgraderContractsAddr.length, \"index must be lower than the total size of Upgraders\");\n        require (!(index < cds.upgraderContractToBeExecutedIndex), \"index belongs to a change that was already executed\");\n        require (!(index > cds.upgraderContractToBeExecutedIndex), \"it is necessary to execute an upgrader with lower index first\");\n\n        address upgraderAddr = upgraderContractsAddr[index];\n        upgraderInfo.setAllowedUpgrader(upgraderAddr);\n        Upgrader upgrader = Upgrader(upgraderAddr);\n        upgrader.upgrade();\n        governingChanges[changeNumber].upgraderContractToBeExecutedIndex++;\n\n        if (governingChanges[changeNumber].upgraderContractToBeExecutedIndex < upgraderContractsAddr.length) { //still need to execute more changes\n            emit ChangePartialExecuted(changeNumber, index);\n            if (governingChanges[changeNumber].changeState == ChangeState.APPROVED) {\n                governingChanges[changeNumber].changeState = ChangeState.EXECUTING;\n            }\n        }\n        \n        else if (governingChanges[changeNumber].upgraderContractToBeExecutedIndex == upgraderContractsAddr.length) {\n            governingChanges[changeNumber].changeState = ChangeState.FINISHED;\n            emit ChangeExecuted(changeNumber);\n        }\n    }\n\n\n    function cancelChange (uint changeNumber) public onlyOwner {\n\n        require (changeNumber<governingChanges.length, \"Invalid change number\");\n\n        ChangeDataStructure memory cds = governingChanges[changeNumber];\n\n        require(cds.changeState==ChangeState.WAITING || cds.changeState==ChangeState.APPROVED || cds.changeState==ChangeState.EXECUTING,\n            \"The change needs to be in WAITING or APPROVED or EXECUTING state\");\n\n        governingChanges[changeNumber].changeState = ChangeState.CANCELED;\n\n        emit ChangeCancelled(changeNumber);\n    }\n\n    function getChange(uint changeNumber) public view returns (bytes32, address[] memory, uint, address, ChangeState) {\n\n        require (changeNumber<governingChanges.length, \"Invalid change number\");\n\n        ChangeDataStructure memory cds = governingChanges[changeNumber];\n        return (cds.hashChangeMotivation, cds.upgraderContractsAddr, cds.upgraderContractToBeExecutedIndex,\n                cds.decisionContractAddr, cds.changeState);\n\n    }\n\n\n    function getDecisionContractToMakeResult(uint changeNumber) public view returns (address) {\n\n        require (changeNumber<governingChanges.length, \"Invalid change number\");\n\n        ChangeDataStructure memory cds = governingChanges[changeNumber];\n\n        require(cds.changeState==ChangeState.WAITING, \"The change needs to be in WAITING state\");\n\n        return (cds.decisionContractAddr);\n    }\n\n    function approveChange(uint changeNumber) public onlyGovernance {\n\n        require (changeNumber<governingChanges.length, \"Invalid change number\");\n\n        ChangeDataStructure memory cds = governingChanges[changeNumber];\n\n        require(cds.changeState==ChangeState.WAITING, \"The change needs to be in WAITING state\");\n        \n        governingChanges[changeNumber].changeState = ChangeState.APPROVED;\n        \n        emit ChangeApproved(changeNumber);\n    }\n\n    function reproveChange(uint changeNumber) public onlyGovernance {\n\n        require (changeNumber<governingChanges.length, \"Invalid change number\");\n\n        ChangeDataStructure memory cds = governingChanges[changeNumber];\n\n        require(cds.changeState==ChangeState.WAITING, \"The change needs to be in WAITING state\");\n\n        governingChanges[changeNumber].changeState = ChangeState.DISAPPROVED;\n        \n        emit ChangeDisapproved(changeNumber);\n    }\n\n    function setGovernanceAddress(address governanceAddress) public onlyOwner {\n\n        _governanceAddress = governanceAddress;\n        emit SetGovernance(governanceAddress);\n\n    }\n\n    //This function should not be called alone. In order to change the admin, it is necessary to change the pausables.\n    function setAdminAddr (address newAddr) public onlyAllowedUpgrader {\n        upgraderInfo.setAdminAddr(newAddr);\n    }\n\n    function upgraderInfoAddr() public view returns (address)  {\n        return address(upgraderInfo);\n    }\n   \n }",
  "sourcePath": "/Users/suzana.moreno/workspace/bndestoken-d/Upgrade/contracts/appChangeManagementUpgrade/ChangeManagement.sol",
  "compiler": {
    "name": "solc",
    "version": "0.5.16+commit.9c3226ce.Emscripten.clang"
  },
  "schemaVersion": "3.0.23",
  "updatedAt": "2020-04-17T19:07:01.438Z",
  "networkType": "ethereum",
  "devdoc": {
    "methods": {
      "isOwner()": {
        "details": "Returns true if the caller is the current owner."
      },
      "owner()": {
        "details": "Returns the address of the current owner."
      },
      "pause()": {
        "details": "Called by a pauser to pause, triggers stopped state."
      },
      "paused()": {
        "details": "Returns true if the contract is paused, and false otherwise."
      },
      "renounceOwnership()": {
        "details": "Leaves the contract without owner. It will not be possible to call `onlyOwner` functions anymore. Can only be called by the current owner.     * NOTE: Renouncing ownership will leave the contract without an owner, thereby removing any functionality that is only available to the owner."
      },
      "transferOwnership(address)": {
        "details": "Transfers ownership of the contract to a new account (`newOwner`). Can only be called by the current owner."
      },
      "unpause()": {
        "details": "Called by a pauser to unpause, returns to normal state."
      }
    }
  },
  "userdoc": {
    "methods": {}
  }
}