{
  "contractName": "GovernanceDecision",
  "abi": [
    {
      "inputs": [
        {
          "internalType": "bytes32",
          "name": "hashChangeMotivation",
          "type": "bytes32"
        },
        {
          "internalType": "uint256[]",
          "name": "votersId",
          "type": "uint256[]"
        },
        {
          "internalType": "uint256",
          "name": "_percentage",
          "type": "uint256"
        },
        {
          "internalType": "address",
          "name": "idRegistryAddr",
          "type": "address"
        }
      ],
      "payable": false,
      "stateMutability": "nonpayable",
      "type": "constructor"
    },
    {
      "anonymous": false,
      "inputs": [
        {
          "indexed": true,
          "internalType": "address",
          "name": "previousOwner",
          "type": "address"
        },
        {
          "indexed": true,
          "internalType": "address",
          "name": "newOwner",
          "type": "address"
        }
      ],
      "name": "OwnershipTransferred",
      "type": "event"
    },
    {
      "constant": true,
      "inputs": [],
      "name": "idRegistry",
      "outputs": [
        {
          "internalType": "contract IdRegistry",
          "name": "",
          "type": "address"
        }
      ],
      "payable": false,
      "stateMutability": "view",
      "type": "function"
    },
    {
      "constant": true,
      "inputs": [],
      "name": "isOwner",
      "outputs": [
        {
          "internalType": "bool",
          "name": "",
          "type": "bool"
        }
      ],
      "payable": false,
      "stateMutability": "view",
      "type": "function"
    },
    {
      "constant": true,
      "inputs": [],
      "name": "numOfAgreements",
      "outputs": [
        {
          "internalType": "uint256",
          "name": "",
          "type": "uint256"
        }
      ],
      "payable": false,
      "stateMutability": "view",
      "type": "function"
    },
    {
      "constant": true,
      "inputs": [],
      "name": "numOfVoters",
      "outputs": [
        {
          "internalType": "uint256",
          "name": "",
          "type": "uint256"
        }
      ],
      "payable": false,
      "stateMutability": "view",
      "type": "function"
    },
    {
      "constant": true,
      "inputs": [],
      "name": "owner",
      "outputs": [
        {
          "internalType": "address",
          "name": "",
          "type": "address"
        }
      ],
      "payable": false,
      "stateMutability": "view",
      "type": "function"
    },
    {
      "constant": true,
      "inputs": [],
      "name": "percentage",
      "outputs": [
        {
          "internalType": "uint256",
          "name": "",
          "type": "uint256"
        }
      ],
      "payable": false,
      "stateMutability": "view",
      "type": "function"
    },
    {
      "constant": false,
      "inputs": [],
      "name": "renounceOwnership",
      "outputs": [],
      "payable": false,
      "stateMutability": "nonpayable",
      "type": "function"
    },
    {
      "constant": true,
      "inputs": [],
      "name": "status",
      "outputs": [
        {
          "internalType": "enum GovernanceDecision.UpgraderStatus",
          "name": "",
          "type": "uint8"
        }
      ],
      "payable": false,
      "stateMutability": "view",
      "type": "function"
    },
    {
      "constant": false,
      "inputs": [
        {
          "internalType": "address",
          "name": "newOwner",
          "type": "address"
        }
      ],
      "name": "transferOwnership",
      "outputs": [],
      "payable": false,
      "stateMutability": "nonpayable",
      "type": "function"
    },
    {
      "constant": true,
      "inputs": [
        {
          "internalType": "uint256",
          "name": "",
          "type": "uint256"
        }
      ],
      "name": "voterRegistered",
      "outputs": [
        {
          "internalType": "bool",
          "name": "",
          "type": "bool"
        }
      ],
      "payable": false,
      "stateMutability": "view",
      "type": "function"
    },
    {
      "constant": true,
      "inputs": [
        {
          "internalType": "uint256",
          "name": "",
          "type": "uint256"
        }
      ],
      "name": "voting",
      "outputs": [
        {
          "internalType": "bool",
          "name": "",
          "type": "bool"
        }
      ],
      "payable": false,
      "stateMutability": "view",
      "type": "function"
    },
    {
      "constant": false,
      "inputs": [
        {
          "internalType": "bool",
          "name": "_choose",
          "type": "bool"
        }
      ],
      "name": "vote",
      "outputs": [],
      "payable": false,
      "stateMutability": "nonpayable",
      "type": "function"
    },
    {
      "constant": false,
      "inputs": [],
      "name": "makeResult",
      "outputs": [
        {
          "internalType": "bool",
          "name": "",
          "type": "bool"
        }
      ],
      "payable": false,
      "stateMutability": "nonpayable",
      "type": "function"
    }
  ],
  "bytecode": "0x6080604052600060065560006007553480156200001b57600080fd5b50604051620010b8380380620010b8833981810160405260808110156200004157600080fd5b8101908080519060200190929190805160405193929190846401000000008211156200006c57600080fd5b838201915060208201858111156200008357600080fd5b8251866020820283011164010000000082111715620000a157600080fd5b8083526020830192505050908051906020019060200280838360005b83811015620000da578082015181840152602081019050620000bd565b5050505090500160405260200180519060200190929190805190602001909291905050506000620001106200024760201b60201c565b9050806000806101000a81548173ffffffffffffffffffffffffffffffffffffffff021916908373ffffffffffffffffffffffffffffffffffffffff1602179055508073ffffffffffffffffffffffffffffffffffffffff16600073ffffffffffffffffffffffffffffffffffffffff167f8be0079c531659141344cd1fd0a4f28419497f9722a3daafe3b4186f6b6457e060405160405180910390a35083600281905550620001c6836200024f60201b60201c565b620001d782620002fe60201b60201c565b80600160006101000a81548173ffffffffffffffffffffffffffffffffffffffff021916908373ffffffffffffffffffffffffffffffffffffffff1602179055506000600160146101000a81548160ff021916908360038111156200023857fe5b0217905550505050506200031d565b600033905090565b60008090505b8151811015620002fa57600560008383815181106200027057fe5b6020026020010151815260200190815260200160002060009054906101000a900460ff16620002ec57600160056000848481518110620002ac57fe5b6020026020010151815260200190815260200160002060006101000a81548160ff0219169083151502179055506006600081548092919060010191905055505b808060010191505062000255565b5050565b80600381905550606460035411156200031a5760646003819055505b50565b610d8b806200032d6000396000f3fe608060405234801561001057600080fd5b50600436106100cf5760003560e01c806398f0b34c1161008c578063e14d58d911610066578063e14d58d914610272578063ef32fc5114610294578063f2fde38b146102b2578063fd4a77f1146102f6576100cf565b806398f0b34c146101f0578063be33dc4c1461020e578063c78ad77f14610254576100cf565b80630aa13b8c146100d4578063200d2ed21461011e5780634b9f5c981461014a578063715018a61461017a5780638da5cb5b146101845780638f32d59b146101ce575b600080fd5b6100dc61033c565b604051808273ffffffffffffffffffffffffffffffffffffffff1673ffffffffffffffffffffffffffffffffffffffff16815260200191505060405180910390f35b610126610362565b6040518082600381111561013657fe5b60ff16815260200191505060405180910390f35b6101786004803603602081101561016057600080fd5b81019080803515159060200190929190505050610375565b005b6101826105f0565b005b61018c610729565b604051808273ffffffffffffffffffffffffffffffffffffffff1673ffffffffffffffffffffffffffffffffffffffff16815260200191505060405180910390f35b6101d6610752565b604051808215151515815260200191505060405180910390f35b6101f86107b0565b6040518082815260200191505060405180910390f35b61023a6004803603602081101561022457600080fd5b81019080803590602001909291905050506107b6565b604051808215151515815260200191505060405180910390f35b61025c6107d6565b6040518082815260200191505060405180910390f35b61027a6107dc565b604051808215151515815260200191505060405180910390f35b61029c610960565b6040518082815260200191505060405180910390f35b6102f4600480360360208110156102c857600080fd5b81019080803573ffffffffffffffffffffffffffffffffffffffff169060200190929190505050610966565b005b6103226004803603602081101561030c57600080fd5b81019080803590602001909291905050506109ec565b604051808215151515815260200191505060405180910390f35b600160009054906101000a900473ffffffffffffffffffffffffffffffffffffffff1681565b600160149054906101000a900460ff1681565b6000600381111561038257fe5b600160149054906101000a900460ff16600381111561039d57fe5b146103f3576040517f08c379a0000000000000000000000000000000000000000000000000000000008152600401808060200182810382526021815260200180610d156021913960400191505060405180910390fd5b6000600160009054906101000a900473ffffffffffffffffffffffffffffffffffffffff1673ffffffffffffffffffffffffffffffffffffffff166365f68c89336040518263ffffffff1660e01b8152600401808273ffffffffffffffffffffffffffffffffffffffff1673ffffffffffffffffffffffffffffffffffffffff16815260200191505060206040518083038186803b15801561049457600080fd5b505afa1580156104a8573d6000803e3d6000fd5b505050506040513d60208110156104be57600080fd5b810190808051906020019092919050505090506005600082815260200190815260200160002060009054906101000a900460ff16610564576040517f08c379a000000000000000000000000000000000000000000000000000000000815260040180806020018281038252601b8152602001807f446f206e6f74206861766520746865207065726d697373696f6e21000000000081525060200191505060405180910390fd5b8115156004600083815260200190815260200160002060009054906101000a900460ff161515146105ec5781156105ac576007600081548092919060010191905055506105c0565b600760008154809291906001900391905055505b816004600083815260200190815260200160002060006101000a81548160ff0219169083151502179055505b5050565b6105f8610752565b61066a576040517f08c379a00000000000000000000000000000000000000000000000000000000081526004018080602001828103825260208152602001807f4f776e61626c653a2063616c6c6572206973206e6f7420746865206f776e657281525060200191505060405180910390fd5b600073ffffffffffffffffffffffffffffffffffffffff166000809054906101000a900473ffffffffffffffffffffffffffffffffffffffff1673ffffffffffffffffffffffffffffffffffffffff167f8be0079c531659141344cd1fd0a4f28419497f9722a3daafe3b4186f6b6457e060405160405180910390a360008060006101000a81548173ffffffffffffffffffffffffffffffffffffffff021916908373ffffffffffffffffffffffffffffffffffffffff160217905550565b60008060009054906101000a900473ffffffffffffffffffffffffffffffffffffffff16905090565b60008060009054906101000a900473ffffffffffffffffffffffffffffffffffffffff1673ffffffffffffffffffffffffffffffffffffffff16610794610a0c565b73ffffffffffffffffffffffffffffffffffffffff1614905090565b60065481565b60056020528060005260406000206000915054906101000a900460ff1681565b60035481565b60008060038111156107ea57fe5b600160149054906101000a900460ff16600381111561080557fe5b1461085b576040517f08c379a0000000000000000000000000000000000000000000000000000000008152600401808060200182810382526021815260200180610d156021913960400191505060405180910390fd5b610863610752565b6108d5576040517f08c379a00000000000000000000000000000000000000000000000000000000081526004018080602001828103825260208152602001807f4f776e61626c653a2063616c6c6572206973206e6f7420746865206f776e657281525060200191505060405180910390fd5b6108ff60646108f1600354600654610a1490919063ffffffff16565b610a9a90919063ffffffff16565b60075411156109345760018060146101000a81548160ff0219169083600381111561092657fe5b02179055506001905061095d565b6002600160146101000a81548160ff0219169083600381111561095357fe5b0217905550600090505b90565b60075481565b61096e610752565b6109e0576040517f08c379a00000000000000000000000000000000000000000000000000000000081526004018080602001828103825260208152602001807f4f776e61626c653a2063616c6c6572206973206e6f7420746865206f776e657281525060200191505060405180910390fd5b6109e981610ae4565b50565b60046020528060005260406000206000915054906101000a900460ff1681565b600033905090565b600080831415610a275760009050610a94565b6000828402905082848281610a3857fe5b0414610a8f576040517f08c379a0000000000000000000000000000000000000000000000000000000008152600401808060200182810382526021815260200180610d366021913960400191505060405180910390fd5b809150505b92915050565b6000610adc83836040518060400160405280601a81526020017f536166654d6174683a206469766973696f6e206279207a65726f000000000000815250610c28565b905092915050565b600073ffffffffffffffffffffffffffffffffffffffff168173ffffffffffffffffffffffffffffffffffffffff161415610b6a576040517f08c379a0000000000000000000000000000000000000000000000000000000008152600401808060200182810382526026815260200180610cef6026913960400191505060405180910390fd5b8073ffffffffffffffffffffffffffffffffffffffff166000809054906101000a900473ffffffffffffffffffffffffffffffffffffffff1673ffffffffffffffffffffffffffffffffffffffff167f8be0079c531659141344cd1fd0a4f28419497f9722a3daafe3b4186f6b6457e060405160405180910390a3806000806101000a81548173ffffffffffffffffffffffffffffffffffffffff021916908373ffffffffffffffffffffffffffffffffffffffff16021790555050565b60008083118290610cd4576040517f08c379a00000000000000000000000000000000000000000000000000000000081526004018080602001828103825283818151815260200191508051906020019080838360005b83811015610c99578082015181840152602081019050610c7e565b50505050905090810190601f168015610cc65780820380516001836020036101000a031916815260200191505b509250505060405180910390fd5b506000838581610ce057fe5b04905080915050939250505056fe4f776e61626c653a206e6577206f776e657220697320746865207a65726f20616464726573734465636973696f6e206e6f7420696e2074686520766f74696e6720737461746521536166654d6174683a206d756c7469706c69636174696f6e206f766572666c6f77a265627a7a7231582012c3d7ee7d24764bad2470eb422484b12dbcb2a791c30de362c3285d702ff41a64736f6c63430005100032",
  "source": "pragma solidity ^0.5.0;\n\nimport \"openzeppelin-solidity/contracts/math/SafeMath.sol\";\nimport \"openzeppelin-solidity/contracts/ownership/Ownable.sol\";\nimport \"../appCommonUpgrade/IdRegistry.sol\";\n\n\ncontract GovernanceDecision is Ownable() {\n\n\tusing SafeMath for uint256;\n\n\tIdRegistry public idRegistry;\n\n\tenum UpgraderStatus {\n\t\tVoting,\n\t\tApproved,\n\t\tRejected,\n\t\tCancelled\n\t}\n\n\tUpgraderStatus public status;\n\n\tbytes32 _hashChangeMotivation;\n\n\t/** Voting mechanism related */\n\tuint256 public percentage;\n\tmapping(uint => bool) public voting;\n\tmapping(uint => bool) public voterRegistered;\n\tuint256 public numOfVoters = 0;\n\tuint256 public numOfAgreements = 0;\n\n\tmodifier onlyInVotingState {\n\t\trequire(status == UpgraderStatus.Voting, \"Decision not in the voting state!\");\n\t\t_;\n\t}\n\n//If idRegistryAddr changes, the old contract will be still able to answer id Queries (unless it is destroyed).\n//If the answer of the old version of the contract is not ok, the decision contract should be cancelled.\n\n\tconstructor (bytes32 hashChangeMotivation, uint[] memory votersId, \n\t\tuint256 _percentage, address idRegistryAddr) public {\n\n\t\t_hashChangeMotivation = hashChangeMotivation;\n\t\t_addVoters(votersId);\n\t\t_setPercentage(_percentage);\n\n\t\tidRegistry = IdRegistry(idRegistryAddr);\n\n\t\t// Mark the contract as voting.\n\t\tstatus = UpgraderStatus.Voting;\n\n\t}\n\n\t//TODO: cancel change\n\n\n\t/**\n\t * Vote.\n\t *\n\t * @param\t_choose\tif the voter agrees with the proposal.\n\t *\n\t * exception\tPermissionException\tmsg.sender is not a voter.\n\t * \n\t */\n\tfunction vote (bool _choose) external onlyInVotingState {\n\t\tuint voterId = idRegistry.getId(msg.sender);\n\t\trequire(voterRegistered[voterId], \"Do not have the permission!\");\n\t\tif (voting[voterId] != _choose) {\n\t\t\tif (_choose) {\n\t\t\t\tnumOfAgreements++;\n\t\t\t} else {\n\t\t\t\tnumOfAgreements--;\n\t\t\t}\n\t\t\tvoting[voterId] = _choose;\n\t\t}\n\t}\n\n\n\n\tfunction makeResult() public onlyInVotingState onlyOwner returns(bool) {\n\n\t\tif (numOfAgreements > numOfVoters.mul(percentage).div(100)) {\n\t\t\tstatus = UpgraderStatus.Approved;\n\t\t\treturn true;\n\t\t}\n\t\telse {\n\t\t\tstatus = UpgraderStatus.Rejected;\n\t\t\treturn false;\n\t\t}\n\n\t}\n\n\n\t/**\n\t * Destruct itself.\n\t *\n\t * exception\tPermissionException\tmsg.sender is not the owner.\n\t */\n/*\tfunction done() external onlyOwner {\n\t\tselfdestruct(owner());\n\t}\n*/\n\n\n\tfunction _addVoters (uint[] memory _votersId) internal {\n\t\tfor (uint256 i = 0; i < _votersId.length; i++) {\n\t\t\tif (!voterRegistered[_votersId[i]]) {\n\t\t\t\tvoterRegistered[_votersId[i]] = true;\n\t\t\t\tnumOfVoters++;\n\t\t\t}\n\t\t}\n\t}\n\n\n\tfunction _setPercentage(uint256 _percentage) internal {\n\t\tpercentage = _percentage;\n\t\tif (percentage > 100) {\n\t\t\tpercentage = 100;\n\t\t}\n\t}\n\n}",
  "sourcePath": "/Users/suzana.moreno/workspace/bndestoken-d/ChangeManagementFramework/contracts/appGovernanceUpgrade/GovernanceDecision.sol",
  "compiler": {
    "name": "solc",
    "version": "0.5.16+commit.9c3226ce.Emscripten.clang"
  },
  "schemaVersion": "3.0.23",
  "updatedAt": "2020-04-17T19:44:12.121Z",
  "devdoc": {
    "methods": {
      "isOwner()": {
        "details": "Returns true if the caller is the current owner."
      },
      "owner()": {
        "details": "Returns the address of the current owner."
      },
      "renounceOwnership()": {
        "details": "Leaves the contract without owner. It will not be possible to call `onlyOwner` functions anymore. Can only be called by the current owner.     * NOTE: Renouncing ownership will leave the contract without an owner, thereby removing any functionality that is only available to the owner."
      },
      "transferOwnership(address)": {
        "details": "Transfers ownership of the contract to a new account (`newOwner`). Can only be called by the current owner."
      },
      "vote(bool)": {
        "params": {
          "_choose": "if the voter agrees with the proposal.\t * exception\tPermissionException\tmsg.sender is not a voter. \t "
        }
      }
    }
  },
  "userdoc": {
    "methods": {
      "vote(bool)": {
        "notice": "Vote."
      }
    }
  }
}