{
  "contractName": "Governance",
  "abi": [
    {
      "inputs": [
        {
          "internalType": "uint256[]",
          "name": "initialGovernanceMembersId",
          "type": "uint256[]"
        },
        {
          "internalType": "address",
          "name": "resposibleForAssigningGovernanceMembers",
          "type": "address"
        },
        {
          "internalType": "address",
          "name": "changeManagementAddr",
          "type": "address"
        }
      ],
      "payable": false,
      "stateMutability": "nonpayable",
      "type": "constructor"
    },
    {
      "anonymous": false,
      "inputs": [
        {
          "indexed": false,
          "internalType": "uint256",
          "name": "memberId",
          "type": "uint256"
        }
      ],
      "name": "GovernanceMemberRemoved",
      "type": "event"
    },
    {
      "anonymous": false,
      "inputs": [
        {
          "indexed": false,
          "internalType": "uint256",
          "name": "memberId",
          "type": "uint256"
        }
      ],
      "name": "NewGovernanceMemberAdded",
      "type": "event"
    },
    {
      "anonymous": false,
      "inputs": [
        {
          "indexed": true,
          "internalType": "address",
          "name": "previousOwner",
          "type": "address"
        },
        {
          "indexed": true,
          "internalType": "address",
          "name": "newOwner",
          "type": "address"
        }
      ],
      "name": "OwnershipTransferred",
      "type": "event"
    },
    {
      "anonymous": false,
      "inputs": [
        {
          "indexed": false,
          "internalType": "address",
          "name": "account",
          "type": "address"
        }
      ],
      "name": "Paused",
      "type": "event"
    },
    {
      "anonymous": false,
      "inputs": [
        {
          "indexed": true,
          "internalType": "address",
          "name": "account",
          "type": "address"
        }
      ],
      "name": "PauserAdded",
      "type": "event"
    },
    {
      "anonymous": false,
      "inputs": [
        {
          "indexed": true,
          "internalType": "address",
          "name": "account",
          "type": "address"
        }
      ],
      "name": "PauserRemoved",
      "type": "event"
    },
    {
      "anonymous": false,
      "inputs": [
        {
          "indexed": false,
          "internalType": "address",
          "name": "account",
          "type": "address"
        }
      ],
      "name": "Unpaused",
      "type": "event"
    },
    {
      "constant": false,
      "inputs": [
        {
          "internalType": "address",
          "name": "account",
          "type": "address"
        }
      ],
      "name": "addPauser",
      "outputs": [],
      "payable": false,
      "stateMutability": "nonpayable",
      "type": "function"
    },
    {
      "constant": true,
      "inputs": [],
      "name": "isOwner",
      "outputs": [
        {
          "internalType": "bool",
          "name": "",
          "type": "bool"
        }
      ],
      "payable": false,
      "stateMutability": "view",
      "type": "function"
    },
    {
      "constant": true,
      "inputs": [
        {
          "internalType": "address",
          "name": "account",
          "type": "address"
        }
      ],
      "name": "isPauser",
      "outputs": [
        {
          "internalType": "bool",
          "name": "",
          "type": "bool"
        }
      ],
      "payable": false,
      "stateMutability": "view",
      "type": "function"
    },
    {
      "constant": true,
      "inputs": [],
      "name": "owner",
      "outputs": [
        {
          "internalType": "address",
          "name": "",
          "type": "address"
        }
      ],
      "payable": false,
      "stateMutability": "view",
      "type": "function"
    },
    {
      "constant": false,
      "inputs": [],
      "name": "pause",
      "outputs": [],
      "payable": false,
      "stateMutability": "nonpayable",
      "type": "function"
    },
    {
      "constant": true,
      "inputs": [],
      "name": "paused",
      "outputs": [
        {
          "internalType": "bool",
          "name": "",
          "type": "bool"
        }
      ],
      "payable": false,
      "stateMutability": "view",
      "type": "function"
    },
    {
      "constant": false,
      "inputs": [],
      "name": "renounceOwnership",
      "outputs": [],
      "payable": false,
      "stateMutability": "nonpayable",
      "type": "function"
    },
    {
      "constant": false,
      "inputs": [],
      "name": "renouncePauser",
      "outputs": [],
      "payable": false,
      "stateMutability": "nonpayable",
      "type": "function"
    },
    {
      "constant": false,
      "inputs": [
        {
          "internalType": "address",
          "name": "newOwner",
          "type": "address"
        }
      ],
      "name": "transferOwnership",
      "outputs": [],
      "payable": false,
      "stateMutability": "nonpayable",
      "type": "function"
    },
    {
      "constant": false,
      "inputs": [],
      "name": "unpause",
      "outputs": [],
      "payable": false,
      "stateMutability": "nonpayable",
      "type": "function"
    },
    {
      "constant": false,
      "inputs": [
        {
          "internalType": "address",
          "name": "idRegistryAddr",
          "type": "address"
        }
      ],
      "name": "setIdRegistryAddr",
      "outputs": [],
      "payable": false,
      "stateMutability": "nonpayable",
      "type": "function"
    },
    {
      "constant": false,
      "inputs": [
        {
          "internalType": "uint256",
          "name": "changeNumber",
          "type": "uint256"
        }
      ],
      "name": "makeResult",
      "outputs": [
        {
          "internalType": "bool",
          "name": "",
          "type": "bool"
        }
      ],
      "payable": false,
      "stateMutability": "nonpayable",
      "type": "function"
    },
    {
      "constant": false,
      "inputs": [
        {
          "internalType": "uint256",
          "name": "newMember",
          "type": "uint256"
        }
      ],
      "name": "includeNewGovernanceMember",
      "outputs": [],
      "payable": false,
      "stateMutability": "nonpayable",
      "type": "function"
    },
    {
      "constant": false,
      "inputs": [
        {
          "internalType": "uint256",
          "name": "memberId",
          "type": "uint256"
        }
      ],
      "name": "removeGovernanceMember",
      "outputs": [],
      "payable": false,
      "stateMutability": "nonpayable",
      "type": "function"
    },
    {
      "constant": true,
      "inputs": [],
      "name": "governanceMembers",
      "outputs": [
        {
          "internalType": "uint256[]",
          "name": "",
          "type": "uint256[]"
        }
      ],
      "payable": false,
      "stateMutability": "view",
      "type": "function"
    },
    {
      "constant": true,
      "inputs": [],
      "name": "idRegistryAddr",
      "outputs": [
        {
          "internalType": "address",
          "name": "",
          "type": "address"
        }
      ],
      "payable": false,
      "stateMutability": "view",
      "type": "function"
    }
  ],
  "bytecode": "0x60806040523480156200001157600080fd5b5060405162001c8c38038062001c8c833981810160405260608110156200003757600080fd5b81019080805160405193929190846401000000008211156200005857600080fd5b838201915060208201858111156200006f57600080fd5b82518660208202830111640100000000821117156200008d57600080fd5b8083526020830192505050908051906020019060200280838360005b83811015620000c6578082015181840152602081019050620000a9565b5050505090500160405260200180519060200190929190805190602001909291905050506200010a620000fe6200027960201b60201c565b6200028160201b60201c565b6000600160006101000a81548160ff0219169083151502179055506000620001376200027960201b60201c565b9050806001806101000a81548173ffffffffffffffffffffffffffffffffffffffff021916908373ffffffffffffffffffffffffffffffffffffffff1602179055508073ffffffffffffffffffffffffffffffffffffffff16600073ffffffffffffffffffffffffffffffffffffffff167f8be0079c531659141344cd1fd0a4f28419497f9722a3daafe3b4186f6b6457e060405160405180910390a3508260029080519060200190620001ed929190620004a6565b5080600560006101000a81548173ffffffffffffffffffffffffffffffffffffffff021916908373ffffffffffffffffffffffffffffffffffffffff16021790555081600460006101000a81548173ffffffffffffffffffffffffffffffffffffffff021916908373ffffffffffffffffffffffffffffffffffffffff16021790555050505062000520565b600033905090565b6200029c816000620002e260201b620014f41790919060201c565b8073ffffffffffffffffffffffffffffffffffffffff167f6719d08c1888103bea251a4ed56406bd0c3e69723c8a1686e017e7bbe159b6f860405160405180910390a250565b620002f48282620003c660201b60201c565b1562000368576040517f08c379a000000000000000000000000000000000000000000000000000000000815260040180806020018281038252601f8152602001807f526f6c65733a206163636f756e7420616c72656164792068617320726f6c650081525060200191505060405180910390fd5b60018260000160008373ffffffffffffffffffffffffffffffffffffffff1673ffffffffffffffffffffffffffffffffffffffff16815260200190815260200160002060006101000a81548160ff0219169083151502179055505050565b60008073ffffffffffffffffffffffffffffffffffffffff168273ffffffffffffffffffffffffffffffffffffffff1614156200044f576040517f08c379a000000000000000000000000000000000000000000000000000000000815260040180806020018281038252602281526020018062001c6a6022913960400191505060405180910390fd5b8260000160008373ffffffffffffffffffffffffffffffffffffffff1673ffffffffffffffffffffffffffffffffffffffff16815260200190815260200160002060009054906101000a900460ff16905092915050565b828054828255906000526020600020908101928215620004e5579160200282015b82811115620004e4578251825591602001919060010190620004c7565b5b509050620004f49190620004f8565b5090565b6200051d91905b8082111562000519576000816000905550600101620004ff565b5090565b90565b61173a80620005306000396000f3fe608060405234801561001057600080fd5b50600436106101005760003560e01c80638456cb5911610097578063a5026b8311610066578063a5026b8314610316578063abbae7de1461035c578063b7087288146103a6578063f2fde38b146103ea57610100565b80638456cb59146102415780638da5cb5b1461024b5780638f32d59b1461029557806391a44cf7146102b757610100565b80636ef8d66d116100d35780636ef8d66d146101bb578063715018a6146101c557806377dce43c146101cf57806382dc1ec4146101fd57610100565b80633f4ba83a14610105578063441f1ff11461010f57806346fbf68e1461013d5780635c975abb14610199575b600080fd5b61010d61042e565b005b61013b6004803603602081101561012557600080fd5b810190808035906020019092919050505061059c565b005b61017f6004803603602081101561015357600080fd5b81019080803573ffffffffffffffffffffffffffffffffffffffff1690602001909291905050506106a8565b604051808215151515815260200191505060405180910390f35b6101a16106c5565b604051808215151515815260200191505060405180910390f35b6101c36106dc565b005b6101cd6106ee565b005b6101fb600480360360208110156101e557600080fd5b8101908080359060200190929190505050610827565b005b61023f6004803603602081101561021357600080fd5b81019080803573ffffffffffffffffffffffffffffffffffffffff1690602001909291905050506109e4565b005b610249610a55565b005b610253610bc3565b604051808273ffffffffffffffffffffffffffffffffffffffff1673ffffffffffffffffffffffffffffffffffffffff16815260200191505060405180910390f35b61029d610bec565b604051808215151515815260200191505060405180910390f35b6102bf610c4a565b6040518080602001828103825283818151815260200191508051906020019060200280838360005b838110156103025780820151818401526020810190506102e7565b505050509050019250505060405180910390f35b6103426004803603602081101561032c57600080fd5b8101908080359060200190929190505050610ca2565b604051808215151515815260200191505060405180910390f35b610364610f8e565b604051808273ffffffffffffffffffffffffffffffffffffffff1673ffffffffffffffffffffffffffffffffffffffff16815260200191505060405180910390f35b6103e8600480360360208110156103bc57600080fd5b81019080803573ffffffffffffffffffffffffffffffffffffffff169060200190929190505050610fb8565b005b61042c6004803603602081101561040057600080fd5b81019080803573ffffffffffffffffffffffffffffffffffffffff169060200190929190505050611076565b005b61043e6104396110fc565b6106a8565b610493576040517f08c379a000000000000000000000000000000000000000000000000000000000815260040180806020018281038252603081526020018061166d6030913960400191505060405180910390fd5b600160009054906101000a900460ff16610515576040517f08c379a00000000000000000000000000000000000000000000000000000000081526004018080602001828103825260148152602001807f5061757361626c653a206e6f742070617573656400000000000000000000000081525060200191505060405180910390fd5b6000600160006101000a81548160ff0219169083151502179055507f5db9ee0a495bf2e6ff9c91a7834c1ba4fdd244a5e8aa4e537bd38aeae4b073aa6105596110fc565b604051808273ffffffffffffffffffffffffffffffffffffffff1673ffffffffffffffffffffffffffffffffffffffff16815260200191505060405180910390a1565b600460009054906101000a900473ffffffffffffffffffffffffffffffffffffffff1673ffffffffffffffffffffffffffffffffffffffff163373ffffffffffffffffffffffffffffffffffffffff1614610642576040517f08c379a000000000000000000000000000000000000000000000000000000000815260040180806020018281038252604c815260200180611621604c913960600191505060405180910390fd5b60028190806001815401808255809150509060018203906000526020600020016000909192909190915055507fd0d6e87f03b0a9aa964da58b3b1115f70ba7ab1f934594708c1875a123d518cc816040518082815260200191505060405180910390a150565b60006106be82600061110490919063ffffffff16565b9050919050565b6000600160009054906101000a900460ff16905090565b6106ec6106e76110fc565b6111e2565b565b6106f6610bec565b610768576040517f08c379a00000000000000000000000000000000000000000000000000000000081526004018080602001828103825260208152602001807f4f776e61626c653a2063616c6c6572206973206e6f7420746865206f776e657281525060200191505060405180910390fd5b600073ffffffffffffffffffffffffffffffffffffffff166001809054906101000a900473ffffffffffffffffffffffffffffffffffffffff1673ffffffffffffffffffffffffffffffffffffffff167f8be0079c531659141344cd1fd0a4f28419497f9722a3daafe3b4186f6b6457e060405160405180910390a360006001806101000a81548173ffffffffffffffffffffffffffffffffffffffff021916908373ffffffffffffffffffffffffffffffffffffffff160217905550565b600460009054906101000a900473ffffffffffffffffffffffffffffffffffffffff1673ffffffffffffffffffffffffffffffffffffffff163373ffffffffffffffffffffffffffffffffffffffff16146108cd576040517f08c379a000000000000000000000000000000000000000000000000000000000815260040180806020018281038252604c815260200180611621604c913960600191505060405180910390fd5b6000806108d98361123c565b915091506001151582151514610957576040517f08c379a00000000000000000000000000000000000000000000000000000000081526004018080602001828103825260108152602001807f4d656d626572206e6f7420666f756e640000000000000000000000000000000081525060200191505060405180910390fd5b60026001600280549050038154811061096c57fe5b90600052602060002001546002828154811061098457fe5b906000526020600020018190555060028054809190600190036109a791906115cf565b507f29520f0717e5e24930f787e501ceb9365ecd6c0b957114c0bc3f6d26f29c4ec7836040518082815260200191505060405180910390a1505050565b6109f46109ef6110fc565b6106a8565b610a49576040517f08c379a000000000000000000000000000000000000000000000000000000000815260040180806020018281038252603081526020018061166d6030913960400191505060405180910390fd5b610a5281611299565b50565b610a65610a606110fc565b6106a8565b610aba576040517f08c379a000000000000000000000000000000000000000000000000000000000815260040180806020018281038252603081526020018061166d6030913960400191505060405180910390fd5b600160009054906101000a900460ff1615610b3d576040517f08c379a00000000000000000000000000000000000000000000000000000000081526004018080602001828103825260108152602001807f5061757361626c653a207061757365640000000000000000000000000000000081525060200191505060405180910390fd5b60018060006101000a81548160ff0219169083151502179055507f62e78cea01bee320cd4e420270b5ea74000d11b0c9f74754ebdbfc544b05a258610b806110fc565b604051808273ffffffffffffffffffffffffffffffffffffffff1673ffffffffffffffffffffffffffffffffffffffff16815260200191505060405180910390a1565b60006001809054906101000a900473ffffffffffffffffffffffffffffffffffffffff16905090565b60006001809054906101000a900473ffffffffffffffffffffffffffffffffffffffff1673ffffffffffffffffffffffffffffffffffffffff16610c2e6110fc565b73ffffffffffffffffffffffffffffffffffffffff1614905090565b60606002805480602002602001604051908101604052809291908181526020018280548015610c9857602002820191906000526020600020905b815481526020019060010190808311610c84575b5050505050905090565b6000610cac610bec565b610d1e576040517f08c379a00000000000000000000000000000000000000000000000000000000081526004018080602001828103825260208152602001807f4f776e61626c653a2063616c6c6572206973206e6f7420746865206f776e657281525060200191505060405180910390fd5b6000600560009054906101000a900473ffffffffffffffffffffffffffffffffffffffff1673ffffffffffffffffffffffffffffffffffffffff1663e741940d846040518263ffffffff1660e01b81526004018082815260200191505060206040518083038186803b158015610d9357600080fd5b505afa158015610da7573d6000803e3d6000fd5b505050506040513d6020811015610dbd57600080fd5b8101908080519060200190929190505050905060008190508073ffffffffffffffffffffffffffffffffffffffff1663e14d58d96040518163ffffffff1660e01b8152600401602060405180830381600087803b158015610e1d57600080fd5b505af1158015610e31573d6000803e3d6000fd5b505050506040513d6020811015610e4757600080fd5b810190808051906020019092919050505015610ef557600560009054906101000a900473ffffffffffffffffffffffffffffffffffffffff1673ffffffffffffffffffffffffffffffffffffffff166335e3aa21856040518263ffffffff1660e01b815260040180828152602001915050600060405180830381600087803b158015610ed257600080fd5b505af1158015610ee6573d6000803e3d6000fd5b50505050600192505050610f89565b600560009054906101000a900473ffffffffffffffffffffffffffffffffffffffff1673ffffffffffffffffffffffffffffffffffffffff1663e92bdfe7856040518263ffffffff1660e01b815260040180828152602001915050600060405180830381600087803b158015610f6a57600080fd5b505af1158015610f7e573d6000803e3d6000fd5b505050506000925050505b919050565b6000600360009054906101000a900473ffffffffffffffffffffffffffffffffffffffff16905090565b610fc0610bec565b611032576040517f08c379a00000000000000000000000000000000000000000000000000000000081526004018080602001828103825260208152602001807f4f776e61626c653a2063616c6c6572206973206e6f7420746865206f776e657281525060200191505060405180910390fd5b80600360006101000a81548173ffffffffffffffffffffffffffffffffffffffff021916908373ffffffffffffffffffffffffffffffffffffffff16021790555050565b61107e610bec565b6110f0576040517f08c379a00000000000000000000000000000000000000000000000000000000081526004018080602001828103825260208152602001807f4f776e61626c653a2063616c6c6572206973206e6f7420746865206f776e657281525060200191505060405180910390fd5b6110f9816112f3565b50565b600033905090565b60008073ffffffffffffffffffffffffffffffffffffffff168273ffffffffffffffffffffffffffffffffffffffff16141561118b576040517f08c379a00000000000000000000000000000000000000000000000000000000081526004018080602001828103825260228152602001806116e46022913960400191505060405180910390fd5b8260000160008373ffffffffffffffffffffffffffffffffffffffff1673ffffffffffffffffffffffffffffffffffffffff16815260200190815260200160002060009054906101000a900460ff16905092915050565b6111f681600061143790919063ffffffff16565b8073ffffffffffffffffffffffffffffffffffffffff167fcd265ebaf09df2871cc7bd4133404a235ba12eff2041bb89d9c714a2621c7c7e60405160405180910390a250565b600080600080905060008090505b60028054905082101561128c57846002838154811061126557fe5b9060005260206000200154141561127f576001905061128c565b818060010192505061124a565b8082935093505050915091565b6112ad8160006114f490919063ffffffff16565b8073ffffffffffffffffffffffffffffffffffffffff167f6719d08c1888103bea251a4ed56406bd0c3e69723c8a1686e017e7bbe159b6f860405160405180910390a250565b600073ffffffffffffffffffffffffffffffffffffffff168173ffffffffffffffffffffffffffffffffffffffff161415611379576040517f08c379a000000000000000000000000000000000000000000000000000000000815260040180806020018281038252602681526020018061169d6026913960400191505060405180910390fd5b8073ffffffffffffffffffffffffffffffffffffffff166001809054906101000a900473ffffffffffffffffffffffffffffffffffffffff1673ffffffffffffffffffffffffffffffffffffffff167f8be0079c531659141344cd1fd0a4f28419497f9722a3daafe3b4186f6b6457e060405160405180910390a3806001806101000a81548173ffffffffffffffffffffffffffffffffffffffff021916908373ffffffffffffffffffffffffffffffffffffffff16021790555050565b6114418282611104565b611496576040517f08c379a00000000000000000000000000000000000000000000000000000000081526004018080602001828103825260218152602001806116c36021913960400191505060405180910390fd5b60008260000160008373ffffffffffffffffffffffffffffffffffffffff1673ffffffffffffffffffffffffffffffffffffffff16815260200190815260200160002060006101000a81548160ff0219169083151502179055505050565b6114fe8282611104565b15611571576040517f08c379a000000000000000000000000000000000000000000000000000000000815260040180806020018281038252601f8152602001807f526f6c65733a206163636f756e7420616c72656164792068617320726f6c650081525060200191505060405180910390fd5b60018260000160008373ffffffffffffffffffffffffffffffffffffffff1673ffffffffffffffffffffffffffffffffffffffff16815260200190815260200160002060006101000a81548160ff0219169083151502179055505050565b8154818355818111156115f6578183600052602060002091820191016115f591906115fb565b5b505050565b61161d91905b80821115611619576000816000905550600101611601565b5090565b9056fe53686f756c642062652063616c6c656420627920746865206164647265737320726573706f6e7369626c6520666f722061737369676e696e6720676f7665726e616e6365206d656d62657273506175736572526f6c653a2063616c6c657220646f6573206e6f742068617665207468652050617573657220726f6c654f776e61626c653a206e6577206f776e657220697320746865207a65726f2061646472657373526f6c65733a206163636f756e7420646f6573206e6f74206861766520726f6c65526f6c65733a206163636f756e7420697320746865207a65726f2061646472657373a265627a7a72315820963e8e65af32a53c7fb593a7ce8ff77b9e9d73c3530a7d21e8e066f32ac07d5364736f6c63430005100032526f6c65733a206163636f756e7420697320746865207a65726f2061646472657373",
  "source": "pragma solidity ^0.5.0;\n\nimport \"openzeppelin-solidity/contracts/ownership/Ownable.sol\";\nimport \"openzeppelin-solidity/contracts/lifecycle/Pausable.sol\";\n\nimport \"../appCommonUpgrade/IdRegistry.sol\";\n\nimport \"../appChangeManagementUpgrade/ChangeManagement.sol\";\nimport \"../appChangeManagementUpgrade/UpgraderInfo.sol\";\nimport \"../appChangeManagementUpgrade/Upgrader.sol\";\n\nimport \"./GovernanceDecision.sol\";\n\n\ncontract Governance is Pausable, Ownable() {\n\n    uint[] private governanceMembersId;\n\n    IdRegistry private idRegistry;\n    address private _resposibleForAssigningGovernanceMembers;\n    ChangeManagement changeManagement;\n\n    event NewGovernanceMemberAdded(uint memberId);\n    event GovernanceMemberRemoved(uint memberId);\n\n    constructor (uint[] memory initialGovernanceMembersId,\n        address resposibleForAssigningGovernanceMembers,\n        address changeManagementAddr) public {\n        governanceMembersId = initialGovernanceMembersId;\n        changeManagement = ChangeManagement(changeManagementAddr);\n        _resposibleForAssigningGovernanceMembers = resposibleForAssigningGovernanceMembers;\n    }\n\n    //It is necessary to call this function before any governance decision\n    function setIdRegistryAddr(address idRegistryAddr) public onlyOwner {\n        idRegistry = IdRegistry(idRegistryAddr);\n    }\n\n\tfunction makeResult(uint changeNumber) public onlyOwner returns(bool) {\n\n        address decisionContractAddr = changeManagement.getDecisionContractToMakeResult(changeNumber);\n        \n        GovernanceDecision governanceDecision = GovernanceDecision(decisionContractAddr);\n\n        if (governanceDecision.makeResult()) {\n            changeManagement.approveChange(changeNumber);\n            return true;\n        }\n\t\telse {\n            changeManagement.reproveChange(changeNumber);\n\t\t\treturn false;\n\t\t}\n\n\t}\n\n    function includeNewGovernanceMember(uint newMember) public {\n        require (msg.sender == _resposibleForAssigningGovernanceMembers, \"Should be called by the address responsible for assigning governance members\");\n        governanceMembersId.push(newMember);\n        emit NewGovernanceMemberAdded(newMember);\n    }\n\n\n    function removeGovernanceMember(uint memberId) public {\n        require (msg.sender == _resposibleForAssigningGovernanceMembers, \"Should be called by the address responsible for assigning governance members\");\n        (bool find, uint index) = findIndexGovernanceMember(memberId);\n        require (find==true, \"Member not found\");\n        governanceMembersId[index]=governanceMembersId[governanceMembersId.length-1];\n        governanceMembersId.length--;\n        emit GovernanceMemberRemoved(memberId);\n    }\n\n    function findIndexGovernanceMember(uint newMember) view internal returns (bool, uint) {\n        uint i=0;\n        bool find = false;\n        for (;i<governanceMembersId.length; i++) {\n            if (governanceMembersId[i]==newMember) {\n                find = true;\n                break;\n            }\n        }\n        return (find,i);\n    }\n\n    function governanceMembers() view public returns (uint[] memory) {\n        return governanceMembersId;\n    }\n\n    function idRegistryAddr() public view returns (address) {\n        return address(idRegistry);\n    }\n\n   \n }",
  "sourcePath": "/Users/suzana.moreno/workspace/bndestoken-d/ChangeManagementFramework/contracts/appGovernanceUpgrade/Governance.sol",
  "compiler": {
    "name": "solc",
    "version": "0.5.16+commit.9c3226ce.Emscripten.clang"
  },
  "schemaVersion": "3.0.23",
  "updatedAt": "2020-04-18T01:38:27.245Z",
  "devdoc": {
    "methods": {
      "isOwner()": {
        "details": "Returns true if the caller is the current owner."
      },
      "owner()": {
        "details": "Returns the address of the current owner."
      },
      "pause()": {
        "details": "Called by a pauser to pause, triggers stopped state."
      },
      "paused()": {
        "details": "Returns true if the contract is paused, and false otherwise."
      },
      "renounceOwnership()": {
        "details": "Leaves the contract without owner. It will not be possible to call `onlyOwner` functions anymore. Can only be called by the current owner.     * NOTE: Renouncing ownership will leave the contract without an owner, thereby removing any functionality that is only available to the owner."
      },
      "transferOwnership(address)": {
        "details": "Transfers ownership of the contract to a new account (`newOwner`). Can only be called by the current owner."
      },
      "unpause()": {
        "details": "Called by a pauser to unpause, returns to normal state."
      }
    }
  },
  "userdoc": {
    "methods": {}
  }
}