{
  "contractName": "LegalEntityMapping",
  "abi": [
    {
      "inputs": [
        {
          "internalType": "address",
          "name": "upgraderInfo",
          "type": "address"
        },
        {
          "internalType": "address",
          "name": "storageContractAddr",
          "type": "address"
        }
      ],
      "payable": false,
      "stateMutability": "nonpayable",
      "type": "constructor"
    },
    {
      "anonymous": false,
      "inputs": [
        {
          "indexed": false,
          "internalType": "address",
          "name": "account",
          "type": "address"
        }
      ],
      "name": "Paused",
      "type": "event"
    },
    {
      "anonymous": false,
      "inputs": [
        {
          "indexed": true,
          "internalType": "address",
          "name": "account",
          "type": "address"
        }
      ],
      "name": "PauserAdded",
      "type": "event"
    },
    {
      "anonymous": false,
      "inputs": [
        {
          "indexed": true,
          "internalType": "address",
          "name": "account",
          "type": "address"
        }
      ],
      "name": "PauserRemoved",
      "type": "event"
    },
    {
      "anonymous": false,
      "inputs": [
        {
          "indexed": false,
          "internalType": "address",
          "name": "account",
          "type": "address"
        }
      ],
      "name": "Unpaused",
      "type": "event"
    },
    {
      "constant": true,
      "inputs": [],
      "name": "_dataAvailable",
      "outputs": [
        {
          "internalType": "bool",
          "name": "",
          "type": "bool"
        }
      ],
      "payable": false,
      "stateMutability": "view",
      "type": "function"
    },
    {
      "constant": false,
      "inputs": [
        {
          "internalType": "address",
          "name": "_handlerAddr",
          "type": "address"
        }
      ],
      "name": "addHandler",
      "outputs": [
        {
          "internalType": "bool",
          "name": "",
          "type": "bool"
        }
      ],
      "payable": false,
      "stateMutability": "nonpayable",
      "type": "function"
    },
    {
      "constant": false,
      "inputs": [
        {
          "internalType": "address",
          "name": "account",
          "type": "address"
        }
      ],
      "name": "addPauser",
      "outputs": [],
      "payable": false,
      "stateMutability": "nonpayable",
      "type": "function"
    },
    {
      "constant": true,
      "inputs": [],
      "name": "dataAvailable",
      "outputs": [
        {
          "internalType": "bool",
          "name": "",
          "type": "bool"
        }
      ],
      "payable": false,
      "stateMutability": "view",
      "type": "function"
    },
    {
      "constant": true,
      "inputs": [
        {
          "internalType": "address",
          "name": "",
          "type": "address"
        }
      ],
      "name": "handlerAddrPermission",
      "outputs": [
        {
          "internalType": "bool",
          "name": "",
          "type": "bool"
        }
      ],
      "payable": false,
      "stateMutability": "view",
      "type": "function"
    },
    {
      "constant": true,
      "inputs": [],
      "name": "isAllowedUpgrader",
      "outputs": [
        {
          "internalType": "bool",
          "name": "",
          "type": "bool"
        }
      ],
      "payable": false,
      "stateMutability": "view",
      "type": "function"
    },
    {
      "constant": true,
      "inputs": [],
      "name": "isHandler",
      "outputs": [
        {
          "internalType": "bool",
          "name": "",
          "type": "bool"
        }
      ],
      "payable": false,
      "stateMutability": "view",
      "type": "function"
    },
    {
      "constant": true,
      "inputs": [
        {
          "internalType": "address",
          "name": "account",
          "type": "address"
        }
      ],
      "name": "isPauser",
      "outputs": [
        {
          "internalType": "bool",
          "name": "",
          "type": "bool"
        }
      ],
      "payable": false,
      "stateMutability": "view",
      "type": "function"
    },
    {
      "constant": false,
      "inputs": [],
      "name": "pause",
      "outputs": [],
      "payable": false,
      "stateMutability": "nonpayable",
      "type": "function"
    },
    {
      "constant": true,
      "inputs": [],
      "name": "paused",
      "outputs": [
        {
          "internalType": "bool",
          "name": "",
          "type": "bool"
        }
      ],
      "payable": false,
      "stateMutability": "view",
      "type": "function"
    },
    {
      "constant": false,
      "inputs": [
        {
          "internalType": "address",
          "name": "_handlerAddr",
          "type": "address"
        }
      ],
      "name": "removeHandler",
      "outputs": [
        {
          "internalType": "bool",
          "name": "",
          "type": "bool"
        }
      ],
      "payable": false,
      "stateMutability": "nonpayable",
      "type": "function"
    },
    {
      "constant": false,
      "inputs": [],
      "name": "renouncePauser",
      "outputs": [],
      "payable": false,
      "stateMutability": "nonpayable",
      "type": "function"
    },
    {
      "constant": false,
      "inputs": [
        {
          "internalType": "bool",
          "name": "b",
          "type": "bool"
        }
      ],
      "name": "setDataAvailable",
      "outputs": [],
      "payable": false,
      "stateMutability": "nonpayable",
      "type": "function"
    },
    {
      "constant": false,
      "inputs": [],
      "name": "setHANDTESTE",
      "outputs": [],
      "payable": false,
      "stateMutability": "nonpayable",
      "type": "function"
    },
    {
      "constant": true,
      "inputs": [],
      "name": "storageContract",
      "outputs": [
        {
          "internalType": "contract Storage",
          "name": "",
          "type": "address"
        }
      ],
      "payable": false,
      "stateMutability": "view",
      "type": "function"
    },
    {
      "constant": false,
      "inputs": [],
      "name": "unpause",
      "outputs": [],
      "payable": false,
      "stateMutability": "nonpayable",
      "type": "function"
    },
    {
      "constant": true,
      "inputs": [],
      "name": "upgraderInfo",
      "outputs": [
        {
          "internalType": "contract UpgraderInfo",
          "name": "",
          "type": "address"
        }
      ],
      "payable": false,
      "stateMutability": "view",
      "type": "function"
    },
    {
      "constant": true,
      "inputs": [],
      "name": "upgraderInfoAddr",
      "outputs": [
        {
          "internalType": "address",
          "name": "",
          "type": "address"
        }
      ],
      "payable": false,
      "stateMutability": "view",
      "type": "function"
    },
    {
      "constant": false,
      "inputs": [],
      "name": "setTESTE",
      "outputs": [],
      "payable": false,
      "stateMutability": "nonpayable",
      "type": "function"
    },
    {
      "constant": true,
      "inputs": [
        {
          "internalType": "address",
          "name": "addrLegalEntity",
          "type": "address"
        }
      ],
      "name": "getId",
      "outputs": [
        {
          "internalType": "uint256",
          "name": "",
          "type": "uint256"
        }
      ],
      "payable": false,
      "stateMutability": "view",
      "type": "function"
    },
    {
      "constant": false,
      "inputs": [
        {
          "internalType": "address",
          "name": "addrLegalEntity",
          "type": "address"
        },
        {
          "internalType": "uint256",
          "name": "id",
          "type": "uint256"
        }
      ],
      "name": "setId",
      "outputs": [],
      "payable": false,
      "stateMutability": "nonpayable",
      "type": "function"
    },
    {
      "constant": true,
      "inputs": [
        {
          "internalType": "address",
          "name": "addrLegalEntity",
          "type": "address"
        }
      ],
      "name": "getIdProofHash",
      "outputs": [
        {
          "internalType": "string",
          "name": "",
          "type": "string"
        }
      ],
      "payable": false,
      "stateMutability": "view",
      "type": "function"
    },
    {
      "constant": false,
      "inputs": [
        {
          "internalType": "address",
          "name": "addrLegalEntity",
          "type": "address"
        },
        {
          "internalType": "string",
          "name": "idProofHash",
          "type": "string"
        }
      ],
      "name": "setIdProofHash",
      "outputs": [],
      "payable": false,
      "stateMutability": "nonpayable",
      "type": "function"
    },
    {
      "constant": true,
      "inputs": [
        {
          "internalType": "address",
          "name": "addrLegalEntity",
          "type": "address"
        }
      ],
      "name": "isAvailable",
      "outputs": [
        {
          "internalType": "bool",
          "name": "",
          "type": "bool"
        }
      ],
      "payable": false,
      "stateMutability": "view",
      "type": "function"
    },
    {
      "constant": true,
      "inputs": [
        {
          "internalType": "address",
          "name": "addrLegalEntity",
          "type": "address"
        }
      ],
      "name": "isWaitingValidation",
      "outputs": [
        {
          "internalType": "bool",
          "name": "",
          "type": "bool"
        }
      ],
      "payable": false,
      "stateMutability": "view",
      "type": "function"
    },
    {
      "constant": true,
      "inputs": [
        {
          "internalType": "address",
          "name": "addrLegalEntity",
          "type": "address"
        }
      ],
      "name": "isValidated",
      "outputs": [
        {
          "internalType": "bool",
          "name": "",
          "type": "bool"
        }
      ],
      "payable": false,
      "stateMutability": "view",
      "type": "function"
    },
    {
      "constant": true,
      "inputs": [
        {
          "internalType": "address",
          "name": "addrLegalEntity",
          "type": "address"
        }
      ],
      "name": "isInvalidatedByValidator",
      "outputs": [
        {
          "internalType": "bool",
          "name": "",
          "type": "bool"
        }
      ],
      "payable": false,
      "stateMutability": "view",
      "type": "function"
    },
    {
      "constant": true,
      "inputs": [
        {
          "internalType": "address",
          "name": "addrLegalEntity",
          "type": "address"
        }
      ],
      "name": "isValidatedByChange",
      "outputs": [
        {
          "internalType": "bool",
          "name": "",
          "type": "bool"
        }
      ],
      "payable": false,
      "stateMutability": "view",
      "type": "function"
    },
    {
      "constant": true,
      "inputs": [
        {
          "internalType": "address",
          "name": "addrLegalEntity",
          "type": "address"
        }
      ],
      "name": "getIdFinancialSupportAgreement",
      "outputs": [
        {
          "internalType": "uint256",
          "name": "",
          "type": "uint256"
        }
      ],
      "payable": false,
      "stateMutability": "view",
      "type": "function"
    },
    {
      "constant": false,
      "inputs": [
        {
          "internalType": "address",
          "name": "addrLegalEntity",
          "type": "address"
        },
        {
          "internalType": "uint256",
          "name": "id",
          "type": "uint256"
        }
      ],
      "name": "setIdFinancialSupportAgreement",
      "outputs": [],
      "payable": false,
      "stateMutability": "nonpayable",
      "type": "function"
    },
    {
      "constant": true,
      "inputs": [
        {
          "internalType": "address",
          "name": "addrLegalEntity",
          "type": "address"
        }
      ],
      "name": "isDonor",
      "outputs": [
        {
          "internalType": "bool",
          "name": "",
          "type": "bool"
        }
      ],
      "payable": false,
      "stateMutability": "view",
      "type": "function"
    },
    {
      "constant": true,
      "inputs": [
        {
          "internalType": "address",
          "name": "addrLegalEntity",
          "type": "address"
        }
      ],
      "name": "isClient",
      "outputs": [
        {
          "internalType": "bool",
          "name": "",
          "type": "bool"
        }
      ],
      "payable": false,
      "stateMutability": "view",
      "type": "function"
    },
    {
      "constant": true,
      "inputs": [
        {
          "internalType": "address",
          "name": "addrLegalEntity",
          "type": "address"
        }
      ],
      "name": "isSupplier",
      "outputs": [
        {
          "internalType": "bool",
          "name": "",
          "type": "bool"
        }
      ],
      "payable": false,
      "stateMutability": "view",
      "type": "function"
    },
    {
      "constant": true,
      "inputs": [
        {
          "internalType": "address",
          "name": "addrLegalEntity",
          "type": "address"
        }
      ],
      "name": "isOtherRole",
      "outputs": [
        {
          "internalType": "bool",
          "name": "",
          "type": "bool"
        }
      ],
      "payable": false,
      "stateMutability": "view",
      "type": "function"
    }
  ],
  "bytecode": "0x60806040523480156200001157600080fd5b5060405162002c6938038062002c69833981810160405260408110156200003757600080fd5b810190808051906020019092919080519060200190929190505050818062000074620000686200013460201b60201c565b6200013c60201b60201c565b6000600160006101000a81548160ff021916908315150217905550806001806101000a81548173ffffffffffffffffffffffffffffffffffffffff021916908373ffffffffffffffffffffffffffffffffffffffff16021790555060018060156101000a81548160ff021916908315150217905550505080600360026101000a81548173ffffffffffffffffffffffffffffffffffffffff021916908373ffffffffffffffffffffffffffffffffffffffff160217905550505062000361565b600033905090565b620001578160006200019d60201b620026f81790919060201c565b8073ffffffffffffffffffffffffffffffffffffffff167f6719d08c1888103bea251a4ed56406bd0c3e69723c8a1686e017e7bbe159b6f860405160405180910390a250565b620001af82826200028160201b60201c565b1562000223576040517f08c379a000000000000000000000000000000000000000000000000000000000815260040180806020018281038252601f8152602001807f526f6c65733a206163636f756e7420616c72656164792068617320726f6c650081525060200191505060405180910390fd5b60018260000160008373ffffffffffffffffffffffffffffffffffffffff1673ffffffffffffffffffffffffffffffffffffffff16815260200190815260200160002060006101000a81548160ff0219169083151502179055505050565b60008073ffffffffffffffffffffffffffffffffffffffff168273ffffffffffffffffffffffffffffffffffffffff1614156200030a576040517f08c379a000000000000000000000000000000000000000000000000000000000815260040180806020018281038252602281526020018062002c476022913960400191505060405180910390fd5b8260000160008373ffffffffffffffffffffffffffffffffffffffff1673ffffffffffffffffffffffffffffffffffffffff16815260200190815260200160002060009054906101000a900460ff16905092915050565b6128d680620003716000396000f3fe608060405234801561001057600080fd5b50600436106102065760003560e01c80635fa037ca1161011a578063900126f4116100ad578063b43f06ad1161007c578063b43f06ad146109aa578063dda85121146109f8578063e857738a14610ab5578063f085865a14610b11578063fb7d8a1e14610b6d57610206565b8063900126f4146108c4578063901fe0471461090e57806396a0604a14610930578063b06267411461095257610206565b806382dc1ec4116100e957806382dc1ec414610810578063841e0084146108545780638456cb591461085e57806384b7964f1461086857610206565b80635fa037ca1461073057806365f68c89146107525780636ef8d66d146107aa578063823d005b146107b457610206565b80632bc3d7aa1161019d57806344df585d1161016c57806344df585d14610531578063463365421461060c57806346fbf68e1461066857806352bf2c3c146106c45780635c975abb1461070e57610206565b80632bc3d7aa14610421578063306c1f0c1461047d5780633d4a02e0146104d95780633f4ba83a1461052757610206565b8063134bb038116101d9578063134bb0381461033d57806316d3ffc3146103475780631b49f03a146103a35780632896f60b146103c557610206565b806308194ea81461020b57806309ea2709146102675780630b91eaf91461029757806311ce0267146102f3575b600080fd5b61024d6004803603602081101561022157600080fd5b81019080803573ffffffffffffffffffffffffffffffffffffffff169060200190929190505050610bc9565b604051808215151515815260200191505060405180910390f35b6102956004803603602081101561027d57600080fd5b81019080803515159060200190929190505050610bee565b005b6102d9600480360360208110156102ad57600080fd5b81019080803573ffffffffffffffffffffffffffffffffffffffff169060200190929190505050610d39565b604051808215151515815260200191505060405180910390f35b6102fb610d5e565b604051808273ffffffffffffffffffffffffffffffffffffffff1673ffffffffffffffffffffffffffffffffffffffff16815260200191505060405180910390f35b610345610d84565b005b6103896004803603602081101561035d57600080fd5b81019080803573ffffffffffffffffffffffffffffffffffffffff169060200190929190505050610de3565b604051808215151515815260200191505060405180910390f35b6103ab610f74565b604051808215151515815260200191505060405180910390f35b610407600480360360208110156103db57600080fd5b81019080803573ffffffffffffffffffffffffffffffffffffffff169060200190929190505050610f87565b604051808215151515815260200191505060405180910390f35b6104636004803603602081101561043757600080fd5b81019080803573ffffffffffffffffffffffffffffffffffffffff169060200190929190505050610f9b565b604051808215151515815260200191505060405180910390f35b6104bf6004803603602081101561049357600080fd5b81019080803573ffffffffffffffffffffffffffffffffffffffff169060200190929190505050610fc0565b604051808215151515815260200191505060405180910390f35b610525600480360360408110156104ef57600080fd5b81019080803573ffffffffffffffffffffffffffffffffffffffff16906020019092919080359060200190929190505050610fe5565b005b61052f611186565b005b61060a6004803603604081101561054757600080fd5b81019080803573ffffffffffffffffffffffffffffffffffffffff1690602001909291908035906020019064010000000081111561058457600080fd5b82018360208201111561059657600080fd5b803590602001918460018302840111640100000000831117156105b857600080fd5b91908080601f016020809104026020016040519081016040528093929190818152602001838380828437600081840152601f19601f8201169050808301925050505050505091929192905050506112f4565b005b61064e6004803603602081101561062257600080fd5b81019080803573ffffffffffffffffffffffffffffffffffffffff1690602001909291905050506114fa565b604051808215151515815260200191505060405180910390f35b6106aa6004803603602081101561067e57600080fd5b81019080803573ffffffffffffffffffffffffffffffffffffffff16906020019092919050505061151f565b604051808215151515815260200191505060405180910390f35b6106cc61153c565b604051808273ffffffffffffffffffffffffffffffffffffffff1673ffffffffffffffffffffffffffffffffffffffff16815260200191505060405180910390f35b610716611565565b604051808215151515815260200191505060405180910390f35b61073861157c565b604051808215151515815260200191505060405180910390f35b6107946004803603602081101561076857600080fd5b81019080803573ffffffffffffffffffffffffffffffffffffffff1690602001909291905050506115d0565b6040518082815260200191505060405180910390f35b6107b2611731565b005b6107f6600480360360208110156107ca57600080fd5b81019080803573ffffffffffffffffffffffffffffffffffffffff169060200190929190505050611743565b604051808215151515815260200191505060405180910390f35b6108526004803603602081101561082657600080fd5b81019080803573ffffffffffffffffffffffffffffffffffffffff169060200190929190505050611768565b005b61085c6117d9565b005b610866611838565b005b6108aa6004803603602081101561087e57600080fd5b81019080803573ffffffffffffffffffffffffffffffffffffffff1690602001909291905050506119a6565b604051808215151515815260200191505060405180910390f35b6108cc6119cb565b604051808273ffffffffffffffffffffffffffffffffffffffff1673ffffffffffffffffffffffffffffffffffffffff16815260200191505060405180910390f35b6109166119f0565b604051808215151515815260200191505060405180910390f35b610938611a07565b604051808215151515815260200191505060405180910390f35b6109946004803603602081101561096857600080fd5b81019080803573ffffffffffffffffffffffffffffffffffffffff169060200190929190505050611ae7565b6040518082815260200191505060405180910390f35b6109f6600480360360408110156109c057600080fd5b81019080803573ffffffffffffffffffffffffffffffffffffffff16906020019092919080359060200190929190505050611c48565b005b610a3a60048036036020811015610a0e57600080fd5b81019080803573ffffffffffffffffffffffffffffffffffffffff169060200190929190505050611de9565b6040518080602001828103825283818151815260200191508051906020019080838360005b83811015610a7a578082015181840152602081019050610a5f565b50505050905090810190601f168015610aa75780820380516001836020036101000a031916815260200191505b509250505060405180910390f35b610af760048036036020811015610acb57600080fd5b81019080803573ffffffffffffffffffffffffffffffffffffffff169060200190929190505050612009565b604051808215151515815260200191505060405180910390f35b610b5360048036036020811015610b2757600080fd5b81019080803573ffffffffffffffffffffffffffffffffffffffff169060200190929190505050612029565b604051808215151515815260200191505060405180910390f35b610baf60048036036020811015610b8357600080fd5b81019080803573ffffffffffffffffffffffffffffffffffffffff16906020019092919050505061204e565b604051808215151515815260200191505060405180910390f35b60008060039050806004811115610bdc57fe5b610be5846121df565b14915050919050565b6001809054906101000a900473ffffffffffffffffffffffffffffffffffffffff1673ffffffffffffffffffffffffffffffffffffffff16637e96549f336040518263ffffffff1660e01b8152600401808273ffffffffffffffffffffffffffffffffffffffff1673ffffffffffffffffffffffffffffffffffffffff16815260200191505060206040518083038186803b158015610c8c57600080fd5b505afa158015610ca0573d6000803e3d6000fd5b505050506040513d6020811015610cb657600080fd5b8101908080519060200190929190505050610d1c576040517f08c379a000000000000000000000000000000000000000000000000000000000815260040180806020018281038252602f8152602001806127d4602f913960400191505060405180910390fd5b80600160156101000a81548160ff02191690831515021790555050565b60008060029050806004811115610d4c57fe5b610d55846121df565b14915050919050565b600360029054906101000a900473ffffffffffffffffffffffffffffffffffffffff1681565b610d8c61157c565b610de1576040517f08c379a000000000000000000000000000000000000000000000000000000000815260040180806020018281038252602c815260200180612876602c913960400191505060405180910390fd5b565b60006001809054906101000a900473ffffffffffffffffffffffffffffffffffffffff1673ffffffffffffffffffffffffffffffffffffffff16637e96549f336040518263ffffffff1660e01b8152600401808273ffffffffffffffffffffffffffffffffffffffff1673ffffffffffffffffffffffffffffffffffffffff16815260200191505060206040518083038186803b158015610e8357600080fd5b505afa158015610e97573d6000803e3d6000fd5b505050506040513d6020811015610ead57600080fd5b8101908080519060200190929190505050610f13576040517f08c379a000000000000000000000000000000000000000000000000000000000815260040180806020018281038252602f8152602001806127d4602f913960400191505060405180910390fd5b6000600260008473ffffffffffffffffffffffffffffffffffffffff1673ffffffffffffffffffffffffffffffffffffffff16815260200190815260200160002060006101000a81548160ff02191690831515021790555060019050919050565b600160159054906101000a900460ff1681565b600080610f93836121df565b149050919050565b60008060009050806003811115610fae57fe5b610fb784612340565b14915050919050565b60008060019050806004811115610fd357fe5b610fdc846121df565b14915050919050565b610fed61157c565b611042576040517f08c379a000000000000000000000000000000000000000000000000000000000815260040180806020018281038252602c815260200180612876602c913960400191505060405180910390fd5b60008260405160200180807f4c6567616c456e74697479496e666f0000000000000000000000000000000000815250600f018273ffffffffffffffffffffffffffffffffffffffff1673ffffffffffffffffffffffffffffffffffffffff1660601b8152601401807f696446696e616e6369616c537570706f727441677265656d656e740000000000815250601b01915050604051602081830303815290604052805190602001209050600360029054906101000a900473ffffffffffffffffffffffffffffffffffffffff1673ffffffffffffffffffffffffffffffffffffffff1663e2a4853a82846040518363ffffffff1660e01b81526004018083815260200182815260200192505050600060405180830381600087803b15801561116957600080fd5b505af115801561117d573d6000803e3d6000fd5b50505050505050565b6111966111916124a1565b61151f565b6111eb576040517f08c379a00000000000000000000000000000000000000000000000000000000081526004018080602001828103825260308152602001806128036030913960400191505060405180910390fd5b600160009054906101000a900460ff1661126d576040517f08c379a00000000000000000000000000000000000000000000000000000000081526004018080602001828103825260148152602001807f5061757361626c653a206e6f742070617573656400000000000000000000000081525060200191505060405180910390fd5b6000600160006101000a81548160ff0219169083151502179055507f5db9ee0a495bf2e6ff9c91a7834c1ba4fdd244a5e8aa4e537bd38aeae4b073aa6112b16124a1565b604051808273ffffffffffffffffffffffffffffffffffffffff1673ffffffffffffffffffffffffffffffffffffffff16815260200191505060405180910390a1565b6112fc61157c565b611351576040517f08c379a000000000000000000000000000000000000000000000000000000000815260040180806020018281038252602c815260200180612876602c913960400191505060405180910390fd5b60008260405160200180807f4c6567616c456e74697479496e666f0000000000000000000000000000000000815250600f018273ffffffffffffffffffffffffffffffffffffffff1673ffffffffffffffffffffffffffffffffffffffff1660601b8152601401807f696450726f6f6648617368000000000000000000000000000000000000000000815250600b01915050604051602081830303815290604052805190602001209050600360029054906101000a900473ffffffffffffffffffffffffffffffffffffffff1673ffffffffffffffffffffffffffffffffffffffff16636e89955082846040518363ffffffff1660e01b81526004018083815260200180602001828103825283818151815260200191508051906020019080838360005b83811015611490578082015181840152602081019050611475565b50505050905090810190601f1680156114bd5780820380516001836020036101000a031916815260200191505b509350505050600060405180830381600087803b1580156114dd57600080fd5b505af11580156114f1573d6000803e3d6000fd5b50505050505050565b6000806002905080600381111561150d57fe5b61151684612340565b14915050919050565b60006115358260006124a990919063ffffffff16565b9050919050565b60006001809054906101000a900473ffffffffffffffffffffffffffffffffffffffff16905090565b6000600160009054906101000a900460ff16905090565b6000600260003373ffffffffffffffffffffffffffffffffffffffff1673ffffffffffffffffffffffffffffffffffffffff16815260200190815260200160002060009054906101000a900460ff16905090565b6000808260405160200180807f4c6567616c456e74697479496e666f0000000000000000000000000000000000815250600f018273ffffffffffffffffffffffffffffffffffffffff1673ffffffffffffffffffffffffffffffffffffffff1660601b8152601401807f6964000000000000000000000000000000000000000000000000000000000000815250600201915050604051602081830303815290604052805190602001209050600360029054906101000a900473ffffffffffffffffffffffffffffffffffffffff1673ffffffffffffffffffffffffffffffffffffffff1663bd02d0f5826040518263ffffffff1660e01b81526004018082815260200191505060206040518083038186803b1580156116ee57600080fd5b505afa158015611702573d6000803e3d6000fd5b505050506040513d602081101561171857600080fd5b8101908080519060200190929190505050915050919050565b61174161173c6124a1565b612587565b565b6000806004905080600481111561175657fe5b61175f846121df565b14915050919050565b6117786117736124a1565b61151f565b6117cd576040517f08c379a00000000000000000000000000000000000000000000000000000000081526004018080602001828103825260308152602001806128036030913960400191505060405180910390fd5b6117d6816125e1565b50565b6117e161157c565b611836576040517f08c379a000000000000000000000000000000000000000000000000000000000815260040180806020018281038252602c815260200180612876602c913960400191505060405180910390fd5b565b6118486118436124a1565b61151f565b61189d576040517f08c379a00000000000000000000000000000000000000000000000000000000081526004018080602001828103825260308152602001806128036030913960400191505060405180910390fd5b600160009054906101000a900460ff1615611920576040517f08c379a00000000000000000000000000000000000000000000000000000000081526004018080602001828103825260108152602001807f5061757361626c653a207061757365640000000000000000000000000000000081525060200191505060405180910390fd5b60018060006101000a81548160ff0219169083151502179055507f62e78cea01bee320cd4e420270b5ea74000d11b0c9f74754ebdbfc544b05a2586119636124a1565b604051808273ffffffffffffffffffffffffffffffffffffffff1673ffffffffffffffffffffffffffffffffffffffff16815260200191505060405180910390a1565b600080600190508060038111156119b957fe5b6119c284612340565b14915050919050565b6001809054906101000a900473ffffffffffffffffffffffffffffffffffffffff1681565b6000600160159054906101000a900460ff16905090565b60006001809054906101000a900473ffffffffffffffffffffffffffffffffffffffff1673ffffffffffffffffffffffffffffffffffffffff16637e96549f336040518263ffffffff1660e01b8152600401808273ffffffffffffffffffffffffffffffffffffffff1673ffffffffffffffffffffffffffffffffffffffff16815260200191505060206040518083038186803b158015611aa757600080fd5b505afa158015611abb573d6000803e3d6000fd5b505050506040513d6020811015611ad157600080fd5b8101908080519060200190929190505050905090565b6000808260405160200180807f4c6567616c456e74697479496e666f0000000000000000000000000000000000815250600f018273ffffffffffffffffffffffffffffffffffffffff1673ffffffffffffffffffffffffffffffffffffffff1660601b8152601401807f696446696e616e6369616c537570706f727441677265656d656e740000000000815250601b01915050604051602081830303815290604052805190602001209050600360029054906101000a900473ffffffffffffffffffffffffffffffffffffffff1673ffffffffffffffffffffffffffffffffffffffff1663bd02d0f5826040518263ffffffff1660e01b81526004018082815260200191505060206040518083038186803b158015611c0557600080fd5b505afa158015611c19573d6000803e3d6000fd5b505050506040513d6020811015611c2f57600080fd5b8101908080519060200190929190505050915050919050565b611c5061157c565b611ca5576040517f08c379a000000000000000000000000000000000000000000000000000000000815260040180806020018281038252602c815260200180612876602c913960400191505060405180910390fd5b60008260405160200180807f4c6567616c456e74697479496e666f0000000000000000000000000000000000815250600f018273ffffffffffffffffffffffffffffffffffffffff1673ffffffffffffffffffffffffffffffffffffffff1660601b8152601401807f6964000000000000000000000000000000000000000000000000000000000000815250600201915050604051602081830303815290604052805190602001209050600360029054906101000a900473ffffffffffffffffffffffffffffffffffffffff1673ffffffffffffffffffffffffffffffffffffffff1663e2a4853a82846040518363ffffffff1660e01b81526004018083815260200182815260200192505050600060405180830381600087803b158015611dcc57600080fd5b505af1158015611de0573d6000803e3d6000fd5b50505050505050565b606060008260405160200180807f4c6567616c456e74697479496e666f0000000000000000000000000000000000815250600f018273ffffffffffffffffffffffffffffffffffffffff1673ffffffffffffffffffffffffffffffffffffffff1660601b8152601401807f696450726f6f6648617368000000000000000000000000000000000000000000815250600b01915050604051602081830303815290604052805190602001209050600360029054906101000a900473ffffffffffffffffffffffffffffffffffffffff1673ffffffffffffffffffffffffffffffffffffffff1663986e791a826040518263ffffffff1660e01b81526004018082815260200191505060006040518083038186803b158015611f0857600080fd5b505afa158015611f1c573d6000803e3d6000fd5b505050506040513d6000823e3d601f19601f820116820180604052506020811015611f4657600080fd5b8101908080516040519392919084640100000000821115611f6657600080fd5b83820191506020820185811115611f7c57600080fd5b8251866001820283011164010000000082111715611f9957600080fd5b8083526020830192505050908051906020019080838360005b83811015611fcd578082015181840152602081019050611fb2565b50505050905090810190601f168015611ffa5780820380516001836020036101000a031916815260200191505b50604052505050915050919050565b60026020528060005260406000206000915054906101000a900460ff1681565b6000806003905080600381111561203c57fe5b61204584612340565b14915050919050565b60006001809054906101000a900473ffffffffffffffffffffffffffffffffffffffff1673ffffffffffffffffffffffffffffffffffffffff16637e96549f336040518263ffffffff1660e01b8152600401808273ffffffffffffffffffffffffffffffffffffffff1673ffffffffffffffffffffffffffffffffffffffff16815260200191505060206040518083038186803b1580156120ee57600080fd5b505afa158015612102573d6000803e3d6000fd5b505050506040513d602081101561211857600080fd5b810190808051906020019092919050505061217e576040517f08c379a000000000000000000000000000000000000000000000000000000000815260040180806020018281038252602f8152602001806127d4602f913960400191505060405180910390fd5b6001600260008473ffffffffffffffffffffffffffffffffffffffff1673ffffffffffffffffffffffffffffffffffffffff16815260200190815260200160002060006101000a81548160ff02191690831515021790555060019050919050565b6000808260405160200180807f4c6567616c456e74697479496e666f0000000000000000000000000000000000815250600f018273ffffffffffffffffffffffffffffffffffffffff1673ffffffffffffffffffffffffffffffffffffffff1660601b8152601401807f7374617465000000000000000000000000000000000000000000000000000000815250600501915050604051602081830303815290604052805190602001209050600360029054906101000a900473ffffffffffffffffffffffffffffffffffffffff1673ffffffffffffffffffffffffffffffffffffffff1663bd02d0f5826040518263ffffffff1660e01b81526004018082815260200191505060206040518083038186803b1580156122fd57600080fd5b505afa158015612311573d6000803e3d6000fd5b505050506040513d602081101561232757600080fd5b8101908080519060200190929190505050915050919050565b6000808260405160200180807f4c6567616c456e74697479496e666f0000000000000000000000000000000000815250600f018273ffffffffffffffffffffffffffffffffffffffff1673ffffffffffffffffffffffffffffffffffffffff1660601b8152601401807f726f6c6500000000000000000000000000000000000000000000000000000000815250600401915050604051602081830303815290604052805190602001209050600360029054906101000a900473ffffffffffffffffffffffffffffffffffffffff1673ffffffffffffffffffffffffffffffffffffffff1663bd02d0f5826040518263ffffffff1660e01b81526004018082815260200191505060206040518083038186803b15801561245e57600080fd5b505afa158015612472573d6000803e3d6000fd5b505050506040513d602081101561248857600080fd5b8101908080519060200190929190505050915050919050565b600033905090565b60008073ffffffffffffffffffffffffffffffffffffffff168273ffffffffffffffffffffffffffffffffffffffff161415612530576040517f08c379a00000000000000000000000000000000000000000000000000000000081526004018080602001828103825260228152602001806128546022913960400191505060405180910390fd5b8260000160008373ffffffffffffffffffffffffffffffffffffffff1673ffffffffffffffffffffffffffffffffffffffff16815260200190815260200160002060009054906101000a900460ff16905092915050565b61259b81600061263b90919063ffffffff16565b8073ffffffffffffffffffffffffffffffffffffffff167fcd265ebaf09df2871cc7bd4133404a235ba12eff2041bb89d9c714a2621c7c7e60405160405180910390a250565b6125f58160006126f890919063ffffffff16565b8073ffffffffffffffffffffffffffffffffffffffff167f6719d08c1888103bea251a4ed56406bd0c3e69723c8a1686e017e7bbe159b6f860405160405180910390a250565b61264582826124a9565b61269a576040517f08c379a00000000000000000000000000000000000000000000000000000000081526004018080602001828103825260218152602001806128336021913960400191505060405180910390fd5b60008260000160008373ffffffffffffffffffffffffffffffffffffffff1673ffffffffffffffffffffffffffffffffffffffff16815260200190815260200160002060006101000a81548160ff0219169083151502179055505050565b61270282826124a9565b15612775576040517f08c379a000000000000000000000000000000000000000000000000000000000815260040180806020018281038252601f8152602001807f526f6c65733a206163636f756e7420616c72656164792068617320726f6c650081525060200191505060405180910390fd5b60018260000160008373ffffffffffffffffffffffffffffffffffffffff1673ffffffffffffffffffffffffffffffffffffffff16815260200190815260200160002060006101000a81548160ff021916908315150217905550505056fe546869732066756e6374696f6e2063616e206f6e6c7920626520657865637574656420627920557067726164657273506175736572526f6c653a2063616c6c657220646f6573206e6f742068617665207468652050617573657220726f6c65526f6c65733a206163636f756e7420646f6573206e6f74206861766520726f6c65526f6c65733a206163636f756e7420697320746865207a65726f2061646472657373446f206e6f742068617665207468652068616e646c6572207065726d697373696f6e20746f20777269746521a265627a7a72315820b9ac2606993cfe3470f17412e7f89c0b03cb886e7919b3745338a3dbe1947a5664736f6c63430005100032526f6c65733a206163636f756e7420697320746865207a65726f2061646472657373",
  "source": "pragma solidity ^0.5.0;\n\nimport \"../appChangeManagementUpgrade/Storage.sol\";\nimport \"../appChangeManagementUpgrade/UpdatableHandleable.sol\";\n\n/*\n    struct LegalEntityInfo {\n        uint64 id; //Brazilian identification of legal entity (cnpj)\n        string idProofHash; //hash of declaration\n        BlockchainAccountState state;\n        Role role;\n        uint64 idFinancialSupportAgreement; //SCC contract (only to clients)\n    }\n    \n    //Links Ethereum addresses to LegalEntityInfo\n    mapping(address => LegalEntityInfo) public legalEntitiesInfo;\n\n    The user should registry once for each role.\n    The client should registry once for EACH contract in order to segregate the money to each project --- TODO: improve this\n\n*/\ncontract LegalEntityMapping is UpdatableHandleable {\n\n    /**\n        The account of clients and suppliers are assigned to states.\n        AVAILABLE - The account is not yet assigned any role (any of them - client, supplier or any reserved addresses).\n        WAITING_VALIDATION - The account was linked to a legal entity but it still needs to be validated\n        VALIDATED - The account was validated\n        INVALIDATED_BY_VALIDATOR - The account was invalidated\n        INVALIDATED_BY_CHANGE - The client or supplier changed the ethereum account so the original one must be invalidated.\n     */\n    enum BlockchainAccountState {AVAILABLE,WAITING_VALIDATION,VALIDATED,INVALIDATED_BY_VALIDATOR,INVALIDATED_BY_CHANGE}\n    BlockchainAccountState blockchainStateEnum; //Not used. Defined to create the enum type.\n\n    enum Role {DONOR, CLIENT, SUPPLIER, OTHER}\n    Role roleEnum; //Not used. Defined to create the enum type\n\n\n    Storage public storageContract;\n\n    constructor (address upgraderInfo, address storageContractAddr) UpdatableHandleable (upgraderInfo) public {\n        storageContract = Storage(storageContractAddr);\n    }\n\n\n    //TESTE**************************\n    function setTESTE() public onlyHandler {\n\n    }\n   \n\n\n//Id\n    function getId(address addrLegalEntity) view public returns (uint) {\n        bytes32 key = keccak256(abi.encodePacked(\"LegalEntityInfo\",addrLegalEntity,\"id\"));\n        return storageContract.getUint(key);\n    }\n\n    function setId(address addrLegalEntity, uint id) public onlyHandler {\n        bytes32 key = keccak256(abi.encodePacked(\"LegalEntityInfo\",addrLegalEntity,\"id\"));\n        storageContract.setUint(key, id);\n    }\n\n//IdProofHash\n    function getIdProofHash(address addrLegalEntity) view public returns (string memory) {\n        bytes32 key = keccak256(abi.encodePacked(\"LegalEntityInfo\",addrLegalEntity,\"idProofHash\"));\n        return storageContract.getString(key);\n    }\n\n    function setIdProofHash(address addrLegalEntity, string memory idProofHash) public onlyHandler {\n        bytes32 key = keccak256(abi.encodePacked(\"LegalEntityInfo\",addrLegalEntity,\"idProofHash\"));\n        storageContract.setString(key, idProofHash);\n    }\n\n//State\n    function isAvailable(address addrLegalEntity) view public returns (bool) {\n        return _getStateAsUint(addrLegalEntity) == 0;\n    }\n\n    function isWaitingValidation(address addrLegalEntity) view public returns (bool) {\n        BlockchainAccountState state = BlockchainAccountState.WAITING_VALIDATION;\n        return _getStateAsUint(addrLegalEntity) == (uint) (state);\n    }\n\n    function isValidated(address addrLegalEntity) view public returns (bool) {\n        BlockchainAccountState state = BlockchainAccountState.VALIDATED;\n        return _getStateAsUint(addrLegalEntity) == (uint) (state);\n    }\n\n    function isInvalidatedByValidator(address addrLegalEntity) view public returns (bool) {\n        BlockchainAccountState state = BlockchainAccountState.INVALIDATED_BY_VALIDATOR;\n        return _getStateAsUint(addrLegalEntity) == (uint) (state);\n    }\n\n    function isValidatedByChange(address addrLegalEntity) view public returns (bool) {\n        BlockchainAccountState state = BlockchainAccountState.INVALIDATED_BY_CHANGE;\n        return _getStateAsUint(addrLegalEntity) == (uint) (state);\n    }\n\n    function _getStateAsUint(address addrLegalEntity) view private returns (uint) {\n        bytes32 key = keccak256(abi.encodePacked(\"LegalEntityInfo\",addrLegalEntity,\"state\"));\n        return storageContract.getUint(key);\n    }\n\n    function _setStateAsUint(address addrLegalEntity, uint id) private onlyHandler {\n        bytes32 key = keccak256(abi.encodePacked(\"LegalEntityInfo\",addrLegalEntity,\"state\"));\n        storageContract.setUint(key, id);\n    }\n\n//IdFinancialSupportAgreement\n    function getIdFinancialSupportAgreement(address addrLegalEntity) view public returns (uint) {\n        bytes32 key = keccak256(abi.encodePacked(\"LegalEntityInfo\",addrLegalEntity,\"idFinancialSupportAgreement\"));\n        return storageContract.getUint(key);\n    }\n\n    function setIdFinancialSupportAgreement(address addrLegalEntity, uint id) public onlyHandler {\n        bytes32 key = keccak256(abi.encodePacked(\"LegalEntityInfo\",addrLegalEntity,\"idFinancialSupportAgreement\"));\n        storageContract.setUint(key, id);\n    }\n\n//Role\n    function _getRoleAsUint(address addrLegalEntity) view private returns (uint) {\n        bytes32 key = keccak256(abi.encodePacked(\"LegalEntityInfo\",addrLegalEntity,\"role\"));\n        return storageContract.getUint(key);\n    }\n\n    function _setRoleAsUint(address addrLegalEntity, uint id) private onlyHandler {\n        bytes32 key = keccak256(abi.encodePacked(\"LegalEntityInfo\",addrLegalEntity,\"role\"));\n        storageContract.setUint(key, id);\n    }\n\n    function isDonor(address addrLegalEntity) view public returns (bool) {\n        Role role = Role.DONOR;\n        return _getRoleAsUint(addrLegalEntity) == (uint) (role);\n    }\n\n    function isClient(address addrLegalEntity) view public returns (bool) {\n        Role role = Role.CLIENT;\n        return _getRoleAsUint(addrLegalEntity) == (uint) (role);\n    }\n\n    function isSupplier(address addrLegalEntity) view public returns (bool) {\n        Role role = Role.SUPPLIER;\n        return _getRoleAsUint(addrLegalEntity) == (uint) (role);\n    }\n\n    function isOtherRole(address addrLegalEntity) view public returns (bool) {\n        Role role = Role.OTHER;\n        return _getRoleAsUint(addrLegalEntity) == (uint) (role);\n    }\n\n}",
  "sourcePath": "/Users/suzana.moreno/workspace/bndestoken-d/ChangeManagementFramework/contracts/appTestUpgrade/LegalEntityMapping.sol",
  "compiler": {
    "name": "solc",
    "version": "0.5.16+commit.9c3226ce.Emscripten.clang"
  },
  "schemaVersion": "3.0.23",
  "updatedAt": "2020-04-18T01:38:30.625Z",
  "networkType": "ethereum",
  "devdoc": {
    "methods": {
      "pause()": {
        "details": "Called by a pauser to pause, triggers stopped state."
      },
      "paused()": {
        "details": "Returns true if the contract is paused, and false otherwise."
      },
      "unpause()": {
        "details": "Called by a pauser to unpause, returns to normal state."
      }
    }
  },
  "userdoc": {
    "methods": {
      "setHANDTESTE()": {
        "notice": "TESTE******************"
      }
    }
  }
}