{
  "contractName": "PreUpgrader",
  "abi": [
    {
      "inputs": [
        {
          "internalType": "address",
          "name": "_changeManagementAddr",
          "type": "address"
        },
        {
          "internalType": "address",
          "name": "_resolverAddr",
          "type": "address"
        },
        {
          "internalType": "address",
          "name": "_storageContractAddr",
          "type": "address"
        },
        {
          "internalType": "address",
          "name": "_legalEntityMappingAddr",
          "type": "address"
        },
        {
          "internalType": "address",
          "name": "_bndesRegistryAddr",
          "type": "address"
        }
      ],
      "payable": false,
      "stateMutability": "nonpayable",
      "type": "constructor"
    },
    {
      "constant": true,
      "inputs": [],
      "name": "bndesRegistryInstance",
      "outputs": [
        {
          "internalType": "contract BNDESRegistry",
          "name": "",
          "type": "address"
        }
      ],
      "payable": false,
      "stateMutability": "view",
      "type": "function"
    },
    {
      "constant": true,
      "inputs": [],
      "name": "changeManagementAddr",
      "outputs": [
        {
          "internalType": "address",
          "name": "",
          "type": "address"
        }
      ],
      "payable": false,
      "stateMutability": "view",
      "type": "function"
    },
    {
      "constant": true,
      "inputs": [],
      "name": "changeManagementInstance",
      "outputs": [
        {
          "internalType": "contract ChangeManagement",
          "name": "",
          "type": "address"
        }
      ],
      "payable": false,
      "stateMutability": "view",
      "type": "function"
    },
    {
      "constant": true,
      "inputs": [],
      "name": "legalEntityMappingInstance",
      "outputs": [
        {
          "internalType": "contract LegalEntityMapping",
          "name": "",
          "type": "address"
        }
      ],
      "payable": false,
      "stateMutability": "view",
      "type": "function"
    },
    {
      "constant": true,
      "inputs": [],
      "name": "resolverInstance",
      "outputs": [
        {
          "internalType": "contract Resolver",
          "name": "",
          "type": "address"
        }
      ],
      "payable": false,
      "stateMutability": "view",
      "type": "function"
    },
    {
      "constant": true,
      "inputs": [],
      "name": "storageContractInstance",
      "outputs": [
        {
          "internalType": "contract Storage",
          "name": "",
          "type": "address"
        }
      ],
      "payable": false,
      "stateMutability": "view",
      "type": "function"
    },
    {
      "constant": false,
      "inputs": [],
      "name": "upgrade",
      "outputs": [],
      "payable": false,
      "stateMutability": "nonpayable",
      "type": "function"
    },
    {
      "constant": true,
      "inputs": [],
      "name": "getChangeManagementAddr",
      "outputs": [
        {
          "internalType": "address",
          "name": "",
          "type": "address"
        }
      ],
      "payable": false,
      "stateMutability": "view",
      "type": "function"
    },
    {
      "constant": true,
      "inputs": [],
      "name": "getResolverAddr",
      "outputs": [
        {
          "internalType": "address",
          "name": "",
          "type": "address"
        }
      ],
      "payable": false,
      "stateMutability": "view",
      "type": "function"
    },
    {
      "constant": true,
      "inputs": [],
      "name": "getStorageContractAddr",
      "outputs": [
        {
          "internalType": "address",
          "name": "",
          "type": "address"
        }
      ],
      "payable": false,
      "stateMutability": "view",
      "type": "function"
    },
    {
      "constant": true,
      "inputs": [],
      "name": "getLegalEntityMappingAddr",
      "outputs": [
        {
          "internalType": "address",
          "name": "",
          "type": "address"
        }
      ],
      "payable": false,
      "stateMutability": "view",
      "type": "function"
    },
    {
      "constant": true,
      "inputs": [],
      "name": "getBNDESRegistryAddr",
      "outputs": [
        {
          "internalType": "address",
          "name": "",
          "type": "address"
        }
      ],
      "payable": false,
      "stateMutability": "view",
      "type": "function"
    }
  ],
  "bytecode": "0x608060405234801561001057600080fd5b50604051610c04380380610c04833981810160405260a081101561003357600080fd5b810190808051906020019092919080519060200190929190805190602001909291908051906020019092919080519060200190929190505050846000806101000a81548173ffffffffffffffffffffffffffffffffffffffff021916908373ffffffffffffffffffffffffffffffffffffffff16021790555084600160006101000a81548173ffffffffffffffffffffffffffffffffffffffff021916908373ffffffffffffffffffffffffffffffffffffffff16021790555083600260006101000a81548173ffffffffffffffffffffffffffffffffffffffff021916908373ffffffffffffffffffffffffffffffffffffffff16021790555082600360006101000a81548173ffffffffffffffffffffffffffffffffffffffff021916908373ffffffffffffffffffffffffffffffffffffffff16021790555081600460006101000a81548173ffffffffffffffffffffffffffffffffffffffff021916908373ffffffffffffffffffffffffffffffffffffffff16021790555080600560006101000a81548173ffffffffffffffffffffffffffffffffffffffff021916908373ffffffffffffffffffffffffffffffffffffffff16021790555050505050506109ff806102056000396000f3fe608060405234801561001057600080fd5b50600436106100b45760003560e01c80639b7c2618116100715780639b7c261814610275578063aa3a7ce3146102bf578063c3c3b45914610309578063c7b755af14610353578063d55ec6971461039d578063f9fb3ed4146103a7576100b4565b806309117d26146100b957806333822ba4146101035780633daf3f681461014d57806344e0d57314610197578063522fe4b7146101e15780635f59b8d61461022b575b600080fd5b6100c16103f1565b604051808273ffffffffffffffffffffffffffffffffffffffff1673ffffffffffffffffffffffffffffffffffffffff16815260200191505060405180910390f35b61010b61041b565b604051808273ffffffffffffffffffffffffffffffffffffffff1673ffffffffffffffffffffffffffffffffffffffff16815260200191505060405180910390f35b610155610445565b604051808273ffffffffffffffffffffffffffffffffffffffff1673ffffffffffffffffffffffffffffffffffffffff16815260200191505060405180910390f35b61019f61046b565b604051808273ffffffffffffffffffffffffffffffffffffffff1673ffffffffffffffffffffffffffffffffffffffff16815260200191505060405180910390f35b6101e9610491565b604051808273ffffffffffffffffffffffffffffffffffffffff1673ffffffffffffffffffffffffffffffffffffffff16815260200191505060405180910390f35b6102336104bb565b604051808273ffffffffffffffffffffffffffffffffffffffff1673ffffffffffffffffffffffffffffffffffffffff16815260200191505060405180910390f35b61027d6104e0565b604051808273ffffffffffffffffffffffffffffffffffffffff1673ffffffffffffffffffffffffffffffffffffffff16815260200191505060405180910390f35b6102c761050a565b604051808273ffffffffffffffffffffffffffffffffffffffff1673ffffffffffffffffffffffffffffffffffffffff16815260200191505060405180910390f35b610311610530565b604051808273ffffffffffffffffffffffffffffffffffffffff1673ffffffffffffffffffffffffffffffffffffffff16815260200191505060405180910390f35b61035b610556565b604051808273ffffffffffffffffffffffffffffffffffffffff1673ffffffffffffffffffffffffffffffffffffffff16815260200191505060405180910390f35b6103a561057f565b005b6103af61095c565b604051808273ffffffffffffffffffffffffffffffffffffffff1673ffffffffffffffffffffffffffffffffffffffff16815260200191505060405180910390f35b6000600260009054906101000a900473ffffffffffffffffffffffffffffffffffffffff16905090565b6000600460009054906101000a900473ffffffffffffffffffffffffffffffffffffffff16905090565b600460009054906101000a900473ffffffffffffffffffffffffffffffffffffffff1681565b600160009054906101000a900473ffffffffffffffffffffffffffffffffffffffff1681565b6000600560009054906101000a900473ffffffffffffffffffffffffffffffffffffffff16905090565b6000809054906101000a900473ffffffffffffffffffffffffffffffffffffffff1681565b6000600360009054906101000a900473ffffffffffffffffffffffffffffffffffffffff16905090565b600560009054906101000a900473ffffffffffffffffffffffffffffffffffffffff1681565b600260009054906101000a900473ffffffffffffffffffffffffffffffffffffffff1681565b60008060009054906101000a900473ffffffffffffffffffffffffffffffffffffffff16905090565b6000809054906101000a900473ffffffffffffffffffffffffffffffffffffffff1673ffffffffffffffffffffffffffffffffffffffff163373ffffffffffffffffffffffffffffffffffffffff1614610624576040517f08c379a00000000000000000000000000000000000000000000000000000000081526004018080602001828103825260488152602001806109836048913960600191505060405180910390fd5b600360009054906101000a900473ffffffffffffffffffffffffffffffffffffffff1673ffffffffffffffffffffffffffffffffffffffff1663fb7d8a1e600460009054906101000a900473ffffffffffffffffffffffffffffffffffffffff166040518263ffffffff1660e01b8152600401808273ffffffffffffffffffffffffffffffffffffffff1673ffffffffffffffffffffffffffffffffffffffff168152602001915050602060405180830381600087803b1580156106e757600080fd5b505af11580156106fb573d6000803e3d6000fd5b505050506040513d602081101561071157600080fd5b810190808051906020019092919050505050600460009054906101000a900473ffffffffffffffffffffffffffffffffffffffff1673ffffffffffffffffffffffffffffffffffffffff1663fb7d8a1e600560009054906101000a900473ffffffffffffffffffffffffffffffffffffffff166040518263ffffffff1660e01b8152600401808273ffffffffffffffffffffffffffffffffffffffff1673ffffffffffffffffffffffffffffffffffffffff168152602001915050602060405180830381600087803b1580156107e657600080fd5b505af11580156107fa573d6000803e3d6000fd5b505050506040513d602081101561081057600080fd5b810190808051906020019092919050505050600260009054906101000a900473ffffffffffffffffffffffffffffffffffffffff1673ffffffffffffffffffffffffffffffffffffffff1663cf1a652f600560009054906101000a900473ffffffffffffffffffffffffffffffffffffffff166040518263ffffffff1660e01b815260040180806020018373ffffffffffffffffffffffffffffffffffffffff1673ffffffffffffffffffffffffffffffffffffffff1681526020018281038252600d8152602001807f424e44455352656769737472790000000000000000000000000000000000000081525060200192505050602060405180830381600087803b15801561091e57600080fd5b505af1158015610932573d6000803e3d6000fd5b505050506040513d602081101561094857600080fd5b810190808051906020019092919050505050565b600360009054906101000a900473ffffffffffffffffffffffffffffffffffffffff168156fe5072655570677261646572202d20546869732066756e6374696f6e2063616e206f6e6c7920626520657865637574656420627920746865204368616e67654d616e6167656d656e74a265627a7a72315820fd22970f9dbeeefa91d8416b0fdb9792fbdef5d655d8dfca31e171d1212ecee464736f6c63430005100032",
  "source": "pragma solidity ^0.5.0;\n\nimport \"../appChangeManagementUpgrade/Upgrader.sol\";\nimport \"../appChangeManagementUpgrade/ChangeManagement.sol\";\nimport \"../appChangeManagementUpgrade/Resolver.sol\";\nimport \"../appChangeManagementUpgrade/Storage.sol\";\nimport \"../appTestUpgrade/BNDESRegistry.sol\";\n\n\ncontract PreUpgrader is Upgrader {\n\n    address public changeManagementAddr;\n    ChangeManagement public changeManagementInstance;\n    Resolver public resolverInstance;\n    Storage public storageContractInstance;\n    LegalEntityMapping public legalEntityMappingInstance;\n    BNDESRegistry public bndesRegistryInstance;\n\n\n    constructor(address _changeManagementAddr, address _resolverAddr, address _storageContractAddr,\n            address _legalEntityMappingAddr, address _bndesRegistryAddr) public {\n        \n        changeManagementAddr = _changeManagementAddr;\n        changeManagementInstance = ChangeManagement(_changeManagementAddr);\n        resolverInstance = Resolver(_resolverAddr);\n        storageContractInstance = Storage(_storageContractAddr);\n        legalEntityMappingInstance = LegalEntityMapping(_legalEntityMappingAddr);\n        bndesRegistryInstance = BNDESRegistry(_bndesRegistryAddr);\n    }\n\n\n    modifier onlyChangeManagement() {\n        require(msg.sender==changeManagementAddr, \"PreUpgrader - This function can only be executed by the ChangeManagement\");\n        _;\n    }\n\n    function upgrade () external onlyChangeManagement {\n\n        storageContractInstance.addHandler(address(legalEntityMappingInstance));\n        legalEntityMappingInstance.addHandler(address(bndesRegistryInstance));\n        resolverInstance.changeContract(\"BNDESRegistry\", address(bndesRegistryInstance));\n\n    }\n\n    function getChangeManagementAddr() public view returns (address) {\n        return changeManagementAddr;\n    }\n\n    function getResolverAddr() public view returns (address) {\n        return address(resolverInstance);\n    }\n\n    function getStorageContractAddr() public view returns (address) {\n        return address(storageContractInstance);\n    }\n\n    function getLegalEntityMappingAddr() public view returns (address) {\n        return address(legalEntityMappingInstance);\n    }\n\n    function getBNDESRegistryAddr() public view returns (address) {\n        return address(bndesRegistryInstance);\n    }\n\n}",
  "sourcePath": "/Users/suzana.moreno/workspace/bndestoken-d/ChangeManagementFramework/contracts/appUpgraders/PreUpgrader.sol",
  "compiler": {
    "name": "solc",
    "version": "0.5.16+commit.9c3226ce.Emscripten.clang"
  },
  "schemaVersion": "3.0.23",
  "updatedAt": "2020-04-18T01:38:30.630Z",
  "networkType": "ethereum",
  "devdoc": {
    "methods": {}
  },
  "userdoc": {
    "methods": {}
  }
}