{
  "contractName": "Resolver",
  "abi": [
    {
      "inputs": [
        {
          "internalType": "address",
          "name": "upgraderInfoAddr",
          "type": "address"
        }
      ],
      "payable": false,
      "stateMutability": "nonpayable",
      "type": "constructor"
    },
    {
      "anonymous": false,
      "inputs": [
        {
          "indexed": false,
          "internalType": "address",
          "name": "account",
          "type": "address"
        }
      ],
      "name": "Paused",
      "type": "event"
    },
    {
      "anonymous": false,
      "inputs": [
        {
          "indexed": true,
          "internalType": "address",
          "name": "account",
          "type": "address"
        }
      ],
      "name": "PauserAdded",
      "type": "event"
    },
    {
      "anonymous": false,
      "inputs": [
        {
          "indexed": true,
          "internalType": "address",
          "name": "account",
          "type": "address"
        }
      ],
      "name": "PauserRemoved",
      "type": "event"
    },
    {
      "anonymous": false,
      "inputs": [
        {
          "indexed": false,
          "internalType": "address",
          "name": "account",
          "type": "address"
        }
      ],
      "name": "Unpaused",
      "type": "event"
    },
    {
      "constant": true,
      "inputs": [],
      "name": "_dataAvailable",
      "outputs": [
        {
          "internalType": "bool",
          "name": "",
          "type": "bool"
        }
      ],
      "payable": false,
      "stateMutability": "view",
      "type": "function"
    },
    {
      "constant": false,
      "inputs": [
        {
          "internalType": "address",
          "name": "account",
          "type": "address"
        }
      ],
      "name": "addPauser",
      "outputs": [],
      "payable": false,
      "stateMutability": "nonpayable",
      "type": "function"
    },
    {
      "constant": true,
      "inputs": [
        {
          "internalType": "uint256",
          "name": "",
          "type": "uint256"
        }
      ],
      "name": "allValidContracts",
      "outputs": [
        {
          "internalType": "address",
          "name": "",
          "type": "address"
        }
      ],
      "payable": false,
      "stateMutability": "view",
      "type": "function"
    },
    {
      "constant": true,
      "inputs": [],
      "name": "dataAvailable",
      "outputs": [
        {
          "internalType": "bool",
          "name": "",
          "type": "bool"
        }
      ],
      "payable": false,
      "stateMutability": "view",
      "type": "function"
    },
    {
      "constant": true,
      "inputs": [],
      "name": "isAllowedUpgrader",
      "outputs": [
        {
          "internalType": "bool",
          "name": "",
          "type": "bool"
        }
      ],
      "payable": false,
      "stateMutability": "view",
      "type": "function"
    },
    {
      "constant": true,
      "inputs": [
        {
          "internalType": "address",
          "name": "account",
          "type": "address"
        }
      ],
      "name": "isPauser",
      "outputs": [
        {
          "internalType": "bool",
          "name": "",
          "type": "bool"
        }
      ],
      "payable": false,
      "stateMutability": "view",
      "type": "function"
    },
    {
      "constant": false,
      "inputs": [],
      "name": "pause",
      "outputs": [],
      "payable": false,
      "stateMutability": "nonpayable",
      "type": "function"
    },
    {
      "constant": true,
      "inputs": [],
      "name": "paused",
      "outputs": [
        {
          "internalType": "bool",
          "name": "",
          "type": "bool"
        }
      ],
      "payable": false,
      "stateMutability": "view",
      "type": "function"
    },
    {
      "constant": false,
      "inputs": [],
      "name": "renouncePauser",
      "outputs": [],
      "payable": false,
      "stateMutability": "nonpayable",
      "type": "function"
    },
    {
      "constant": false,
      "inputs": [
        {
          "internalType": "bool",
          "name": "b",
          "type": "bool"
        }
      ],
      "name": "setDataAvailable",
      "outputs": [],
      "payable": false,
      "stateMutability": "nonpayable",
      "type": "function"
    },
    {
      "constant": false,
      "inputs": [],
      "name": "unpause",
      "outputs": [],
      "payable": false,
      "stateMutability": "nonpayable",
      "type": "function"
    },
    {
      "constant": true,
      "inputs": [],
      "name": "upgraderInfo",
      "outputs": [
        {
          "internalType": "contract UpgraderInfo",
          "name": "",
          "type": "address"
        }
      ],
      "payable": false,
      "stateMutability": "view",
      "type": "function"
    },
    {
      "constant": true,
      "inputs": [],
      "name": "upgraderInfoAddr",
      "outputs": [
        {
          "internalType": "address",
          "name": "",
          "type": "address"
        }
      ],
      "payable": false,
      "stateMutability": "view",
      "type": "function"
    },
    {
      "constant": false,
      "inputs": [
        {
          "internalType": "string",
          "name": "name",
          "type": "string"
        },
        {
          "internalType": "address",
          "name": "newAddr",
          "type": "address"
        }
      ],
      "name": "changeContract",
      "outputs": [
        {
          "internalType": "bool",
          "name": "",
          "type": "bool"
        }
      ],
      "payable": false,
      "stateMutability": "nonpayable",
      "type": "function"
    },
    {
      "constant": true,
      "inputs": [
        {
          "internalType": "string",
          "name": "name",
          "type": "string"
        }
      ],
      "name": "getAddr",
      "outputs": [
        {
          "internalType": "address",
          "name": "",
          "type": "address"
        }
      ],
      "payable": false,
      "stateMutability": "view",
      "type": "function"
    },
    {
      "constant": false,
      "inputs": [],
      "name": "pauseAll",
      "outputs": [],
      "payable": false,
      "stateMutability": "nonpayable",
      "type": "function"
    }
  ],
  "bytecode": "0x60806040523480156200001157600080fd5b5060405162001b4e38038062001b4e833981810160405260208110156200003757600080fd5b810190808051906020019092919050505080620000696200005d620000e660201b60201c565b620000ee60201b60201c565b6000600160006101000a81548160ff021916908315150217905550806001806101000a81548173ffffffffffffffffffffffffffffffffffffffff021916908373ffffffffffffffffffffffffffffffffffffffff16021790555060018060156101000a81548160ff021916908315150217905550505062000313565b600033905090565b620001098160006200014f60201b6200161e1790919060201c565b8073ffffffffffffffffffffffffffffffffffffffff167f6719d08c1888103bea251a4ed56406bd0c3e69723c8a1686e017e7bbe159b6f860405160405180910390a250565b6200016182826200023360201b60201c565b15620001d5576040517f08c379a000000000000000000000000000000000000000000000000000000000815260040180806020018281038252601f8152602001807f526f6c65733a206163636f756e7420616c72656164792068617320726f6c650081525060200191505060405180910390fd5b60018260000160008373ffffffffffffffffffffffffffffffffffffffff1673ffffffffffffffffffffffffffffffffffffffff16815260200190815260200160002060006101000a81548160ff0219169083151502179055505050565b60008073ffffffffffffffffffffffffffffffffffffffff168273ffffffffffffffffffffffffffffffffffffffff161415620002bc576040517f08c379a000000000000000000000000000000000000000000000000000000000815260040180806020018281038252602281526020018062001b2c6022913960400191505060405180910390fd5b8260000160008373ffffffffffffffffffffffffffffffffffffffff1673ffffffffffffffffffffffffffffffffffffffff16815260200190815260200160002060009054906101000a900460ff16905092915050565b61180980620003236000396000f3fe608060405234801561001057600080fd5b50600436106101005760003560e01c806382dc1ec41161009757806396a0604a1161006657806396a0604a146102f7578063c54d0c9514610319578063cf1a652f14610387578063d502db971461047a57610100565b806382dc1ec41461023d5780638456cb5914610281578063900126f41461028b578063901fe047146102d557610100565b806352bf2c3c116100d357806352bf2c3c146101bd578063595c6a67146102075780635c975abb146102115780636ef8d66d1461023357610100565b806309ea2709146101055780631b49f03a146101355780633f4ba83a1461015757806346fbf68e14610161575b600080fd5b6101336004803603602081101561011b57600080fd5b81019080803515159060200190929190505050610575565b005b61013d6106c0565b604051808215151515815260200191505060405180910390f35b61015f6106d3565b005b6101a36004803603602081101561017757600080fd5b81019080803573ffffffffffffffffffffffffffffffffffffffff169060200190929190505050610841565b604051808215151515815260200191505060405180910390f35b6101c561085e565b604051808273ffffffffffffffffffffffffffffffffffffffff1673ffffffffffffffffffffffffffffffffffffffff16815260200191505060405180910390f35b61020f610887565b005b610219610a61565b604051808215151515815260200191505060405180910390f35b61023b610a78565b005b61027f6004803603602081101561025357600080fd5b81019080803573ffffffffffffffffffffffffffffffffffffffff169060200190929190505050610a8a565b005b610289610afb565b005b610293610c69565b604051808273ffffffffffffffffffffffffffffffffffffffff1673ffffffffffffffffffffffffffffffffffffffff16815260200191505060405180910390f35b6102dd610c8e565b604051808215151515815260200191505060405180910390f35b6102ff610ca5565b604051808215151515815260200191505060405180910390f35b6103456004803603602081101561032f57600080fd5b8101908080359060200190929190505050610d85565b604051808273ffffffffffffffffffffffffffffffffffffffff1673ffffffffffffffffffffffffffffffffffffffff16815260200191505060405180910390f35b6104606004803603604081101561039d57600080fd5b81019080803590602001906401000000008111156103ba57600080fd5b8201836020820111156103cc57600080fd5b803590602001918460018302840111640100000000831117156103ee57600080fd5b91908080601f016020809104026020016040519081016040528093929190818152602001838380828437600081840152601f19601f820116905080830192505050505050509192919290803573ffffffffffffffffffffffffffffffffffffffff169060200190929190505050610dc1565b604051808215151515815260200191505060405180910390f35b6105336004803603602081101561049057600080fd5b81019080803590602001906401000000008111156104ad57600080fd5b8201836020820111156104bf57600080fd5b803590602001918460018302840111640100000000831117156104e157600080fd5b91908080601f016020809104026020016040519081016040528093929190818152602001838380828437600081840152601f19601f82011690508083019250505050505050919291929050505061124d565b604051808273ffffffffffffffffffffffffffffffffffffffff1673ffffffffffffffffffffffffffffffffffffffff16815260200191505060405180910390f35b6001809054906101000a900473ffffffffffffffffffffffffffffffffffffffff1673ffffffffffffffffffffffffffffffffffffffff16637e96549f336040518263ffffffff1660e01b8152600401808273ffffffffffffffffffffffffffffffffffffffff1673ffffffffffffffffffffffffffffffffffffffff16815260200191505060206040518083038186803b15801561061357600080fd5b505afa158015610627573d6000803e3d6000fd5b505050506040513d602081101561063d57600080fd5b81019080805190602001909291905050506106a3576040517f08c379a000000000000000000000000000000000000000000000000000000000815260040180806020018281038252602f8152602001806116fa602f913960400191505060405180910390fd5b80600160156101000a81548160ff02191690831515021790555050565b600160159054906101000a900460ff1681565b6106e36106de6112e0565b610841565b610738576040517f08c379a00000000000000000000000000000000000000000000000000000000081526004018080602001828103825260308152602001806117296030913960400191505060405180910390fd5b600160009054906101000a900460ff166107ba576040517f08c379a00000000000000000000000000000000000000000000000000000000081526004018080602001828103825260148152602001807f5061757361626c653a206e6f742070617573656400000000000000000000000081525060200191505060405180910390fd5b6000600160006101000a81548160ff0219169083151502179055507f5db9ee0a495bf2e6ff9c91a7834c1ba4fdd244a5e8aa4e537bd38aeae4b073aa6107fe6112e0565b604051808273ffffffffffffffffffffffffffffffffffffffff1673ffffffffffffffffffffffffffffffffffffffff16815260200191505060405180910390a1565b60006108578260006112e890919063ffffffff16565b9050919050565b60006001809054906101000a900473ffffffffffffffffffffffffffffffffffffffff16905090565b600061089161085e565b90508073ffffffffffffffffffffffffffffffffffffffff166324d7806c336040518263ffffffff1660e01b8152600401808273ffffffffffffffffffffffffffffffffffffffff1673ffffffffffffffffffffffffffffffffffffffff16815260200191505060206040518083038186803b15801561091057600080fd5b505afa158015610924573d6000803e3d6000fd5b505050506040513d602081101561093a57600080fd5b81019080805190602001909291905050506109a0576040517f08c379a000000000000000000000000000000000000000000000000000000000815260040180806020018281038252603981526020018061179c6039913960400191505060405180910390fd5b60008090505b600480549050811015610a5d576000600482815481106109c257fe5b9060005260206000200160009054906101000a900473ffffffffffffffffffffffffffffffffffffffff1690508073ffffffffffffffffffffffffffffffffffffffff16638456cb596040518163ffffffff1660e01b8152600401600060405180830381600087803b158015610a3757600080fd5b505af1158015610a4b573d6000803e3d6000fd5b505050505080806001019150506109a6565b5050565b6000600160009054906101000a900460ff16905090565b610a88610a836112e0565b6113c6565b565b610a9a610a956112e0565b610841565b610aef576040517f08c379a00000000000000000000000000000000000000000000000000000000081526004018080602001828103825260308152602001806117296030913960400191505060405180910390fd5b610af881611420565b50565b610b0b610b066112e0565b610841565b610b60576040517f08c379a00000000000000000000000000000000000000000000000000000000081526004018080602001828103825260308152602001806117296030913960400191505060405180910390fd5b600160009054906101000a900460ff1615610be3576040517f08c379a00000000000000000000000000000000000000000000000000000000081526004018080602001828103825260108152602001807f5061757361626c653a207061757365640000000000000000000000000000000081525060200191505060405180910390fd5b60018060006101000a81548160ff0219169083151502179055507f62e78cea01bee320cd4e420270b5ea74000d11b0c9f74754ebdbfc544b05a258610c266112e0565b604051808273ffffffffffffffffffffffffffffffffffffffff1673ffffffffffffffffffffffffffffffffffffffff16815260200191505060405180910390a1565b6001809054906101000a900473ffffffffffffffffffffffffffffffffffffffff1681565b6000600160159054906101000a900460ff16905090565b60006001809054906101000a900473ffffffffffffffffffffffffffffffffffffffff1673ffffffffffffffffffffffffffffffffffffffff16637e96549f336040518263ffffffff1660e01b8152600401808273ffffffffffffffffffffffffffffffffffffffff1673ffffffffffffffffffffffffffffffffffffffff16815260200191505060206040518083038186803b158015610d4557600080fd5b505afa158015610d59573d6000803e3d6000fd5b505050506040513d6020811015610d6f57600080fd5b8101908080519060200190929190505050905090565b60048181548110610d9257fe5b906000526020600020016000915054906101000a900473ffffffffffffffffffffffffffffffffffffffff1681565b60006001809054906101000a900473ffffffffffffffffffffffffffffffffffffffff1673ffffffffffffffffffffffffffffffffffffffff16637e96549f336040518263ffffffff1660e01b8152600401808273ffffffffffffffffffffffffffffffffffffffff1673ffffffffffffffffffffffffffffffffffffffff16815260200191505060206040518083038186803b158015610e6157600080fd5b505afa158015610e75573d6000803e3d6000fd5b505050506040513d6020811015610e8b57600080fd5b8101908080519060200190929190505050610ef1576040517f08c379a000000000000000000000000000000000000000000000000000000000815260040180806020018281038252602f8152602001806116fa602f913960400191505060405180910390fd5b60006002846040518082805190602001908083835b60208310610f295780518252602082019150602081019050602083039250610f06565b6001836020036101000a038019825116818451168082178552505050505050905001915050908152602001604051809103902060009054906101000a900473ffffffffffffffffffffffffffffffffffffffff1690508073ffffffffffffffffffffffffffffffffffffffff168373ffffffffffffffffffffffffffffffffffffffff161461124157600073ffffffffffffffffffffffffffffffffffffffff168173ffffffffffffffffffffffffffffffffffffffff161461105b5760008190508073ffffffffffffffffffffffffffffffffffffffff16638456cb596040518163ffffffff1660e01b8152600401600060405180830381600087803b15801561103357600080fd5b505af1158015611047573d6000803e3d6000fd5b50505050611055828561147a565b506110c2565b60048390806001815401808255809150509060018203906000526020600020016000909192909190916101000a81548173ffffffffffffffffffffffffffffffffffffffff021916908373ffffffffffffffffffffffffffffffffffffffff160217905550505b6003846040518082805190602001908083835b602083106110f857805182526020820191506020810190506020830392506110d5565b6001836020036101000a03801982511681845116808217855250505050505090500191505090815260200160405180910390208390806001815401808255809150509060018203906000526020600020016000909192909190916101000a81548173ffffffffffffffffffffffffffffffffffffffff021916908373ffffffffffffffffffffffffffffffffffffffff16021790555050826002856040518082805190602001908083835b602083106111c657805182526020820191506020810190506020830392506111a3565b6001836020036101000a038019825116818451168082178552505050505050905001915050908152602001604051809103902060006101000a81548173ffffffffffffffffffffffffffffffffffffffff021916908373ffffffffffffffffffffffffffffffffffffffff1602179055506001915050611247565b60009150505b92915050565b60006002826040518082805190602001908083835b602083106112855780518252602082019150602081019050602083039250611262565b6001836020036101000a038019825116818451168082178552505050505050905001915050908152602001604051809103902060009054906101000a900473ffffffffffffffffffffffffffffffffffffffff169050919050565b600033905090565b60008073ffffffffffffffffffffffffffffffffffffffff168273ffffffffffffffffffffffffffffffffffffffff16141561136f576040517f08c379a000000000000000000000000000000000000000000000000000000000815260040180806020018281038252602281526020018061177a6022913960400191505060405180910390fd5b8260000160008373ffffffffffffffffffffffffffffffffffffffff1673ffffffffffffffffffffffffffffffffffffffff16815260200190815260200160002060009054906101000a900460ff16905092915050565b6113da81600061156190919063ffffffff16565b8073ffffffffffffffffffffffffffffffffffffffff167fcd265ebaf09df2871cc7bd4133404a235ba12eff2041bb89d9c714a2621c7c7e60405160405180910390a250565b61143481600061161e90919063ffffffff16565b8073ffffffffffffffffffffffffffffffffffffffff167f6719d08c1888103bea251a4ed56406bd0c3e69723c8a1686e017e7bbe159b6f860405160405180910390a250565b60008090505b60048054905081101561155c578273ffffffffffffffffffffffffffffffffffffffff16600482815481106114b157fe5b9060005260206000200160009054906101000a900473ffffffffffffffffffffffffffffffffffffffff1673ffffffffffffffffffffffffffffffffffffffff16141561154f57816004828154811061150657fe5b9060005260206000200160006101000a81548173ffffffffffffffffffffffffffffffffffffffff021916908373ffffffffffffffffffffffffffffffffffffffff1602179055505b8080600101915050611480565b505050565b61156b82826112e8565b6115c0576040517f08c379a00000000000000000000000000000000000000000000000000000000081526004018080602001828103825260218152602001806117596021913960400191505060405180910390fd5b60008260000160008373ffffffffffffffffffffffffffffffffffffffff1673ffffffffffffffffffffffffffffffffffffffff16815260200190815260200160002060006101000a81548160ff0219169083151502179055505050565b61162882826112e8565b1561169b576040517f08c379a000000000000000000000000000000000000000000000000000000000815260040180806020018281038252601f8152602001807f526f6c65733a206163636f756e7420616c72656164792068617320726f6c650081525060200191505060405180910390fd5b60018260000160008373ffffffffffffffffffffffffffffffffffffffff1673ffffffffffffffffffffffffffffffffffffffff16815260200190815260200160002060006101000a81548160ff021916908315150217905550505056fe546869732066756e6374696f6e2063616e206f6e6c7920626520657865637574656420627920557067726164657273506175736572526f6c653a2063616c6c657220646f6573206e6f742068617665207468652050617573657220726f6c65526f6c65733a206163636f756e7420646f6573206e6f74206861766520726f6c65526f6c65733a206163636f756e7420697320746865207a65726f2061646472657373412061c3a7c3a36f2073c3b320706f646520736572206578656375746164612070656c6f2061646d696e20646120676f7665726e616ec3a761a265627a7a723158206237671d36257a68c9c05f1450b74d3ed8889a944cb9169f298df5b9aeb38f6f64736f6c63430005100032526f6c65733a206163636f756e7420697320746865207a65726f2061646472657373",
  "source": "pragma solidity ^0.5.0;\n\nimport \"./Updatable.sol\";\n\ncontract Resolver is Updatable {\n    \n    mapping (string => address) nameToAddress;\n    mapping (string => address[]) nameToPreviousAddresses;\n\n    address[] public allValidContracts;\n\n    constructor (address upgraderInfoAddr) Updatable (upgraderInfoAddr) public {\n    }\n    \n    function changeContract(string memory name, address newAddr) public onlyAllowedUpgrader returns (bool) {\n\n        address contractAddr = nameToAddress[name];\n        if(newAddr != contractAddr) {\n\n            if (contractAddr != address(0)) {\n                Pausable pausable = Pausable(contractAddr);\n                pausable.pause();\n                updateValidContracts(contractAddr, newAddr);\n            }\n            else {\n                allValidContracts.push(newAddr);\n            }\n\n            nameToPreviousAddresses[name].push(newAddr);\n            nameToAddress[name] = newAddr;\n            return true;\n        }\n\n        return false;\n    }\n\n    function updateValidContracts(address contractAddr, address newAddr) internal {\n        for (uint i=0; i<allValidContracts.length; i++) {\n            if (allValidContracts[i]==contractAddr) {\n                allValidContracts[i]=newAddr;\n            }\n        }\n    }\n\n\n    function getAddr(string memory name) public view returns (address) {\n        return nameToAddress[name];\n    }\n\n    function pauseAll() public {\n        UpgraderInfo upgraderInfo = UpgraderInfo (upgraderInfoAddr());\n        require (upgraderInfo.isAdmin(msg.sender), \"A ao s pode ser executada pelo admin da governana\");\n        for (uint i=0; i<allValidContracts.length; i++) {\n            Pausable pausable = Pausable(allValidContracts[i]);\n            pausable.pause();\n        }\n\n    }\n}",
  "sourcePath": "/Users/suzana.moreno/workspace/bndestoken-d/ChangeManagementFramework/contracts/appChangeManagementUpgrade/Resolver.sol",
  "compiler": {
    "name": "solc",
    "version": "0.5.16+commit.9c3226ce.Emscripten.clang"
  },
  "schemaVersion": "3.0.23",
  "updatedAt": "2020-04-18T01:38:30.615Z",
  "networkType": "ethereum",
  "devdoc": {
    "methods": {
      "pause()": {
        "details": "Called by a pauser to pause, triggers stopped state."
      },
      "paused()": {
        "details": "Returns true if the contract is paused, and false otherwise."
      },
      "unpause()": {
        "details": "Called by a pauser to unpause, returns to normal state."
      }
    }
  },
  "userdoc": {
    "methods": {}
  }
}