{
  "contractName": "Storage",
  "abi": [
    {
      "inputs": [
        {
          "internalType": "address",
          "name": "upgraderInfo",
          "type": "address"
        }
      ],
      "payable": false,
      "stateMutability": "nonpayable",
      "type": "constructor"
    },
    {
      "anonymous": false,
      "inputs": [
        {
          "indexed": false,
          "internalType": "address",
          "name": "account",
          "type": "address"
        }
      ],
      "name": "Paused",
      "type": "event"
    },
    {
      "anonymous": false,
      "inputs": [
        {
          "indexed": true,
          "internalType": "address",
          "name": "account",
          "type": "address"
        }
      ],
      "name": "PauserAdded",
      "type": "event"
    },
    {
      "anonymous": false,
      "inputs": [
        {
          "indexed": true,
          "internalType": "address",
          "name": "account",
          "type": "address"
        }
      ],
      "name": "PauserRemoved",
      "type": "event"
    },
    {
      "anonymous": false,
      "inputs": [
        {
          "indexed": false,
          "internalType": "address",
          "name": "account",
          "type": "address"
        }
      ],
      "name": "Unpaused",
      "type": "event"
    },
    {
      "constant": true,
      "inputs": [],
      "name": "_dataAvailable",
      "outputs": [
        {
          "internalType": "bool",
          "name": "",
          "type": "bool"
        }
      ],
      "payable": false,
      "stateMutability": "view",
      "type": "function"
    },
    {
      "constant": false,
      "inputs": [
        {
          "internalType": "address",
          "name": "_handlerAddr",
          "type": "address"
        }
      ],
      "name": "addHandler",
      "outputs": [
        {
          "internalType": "bool",
          "name": "",
          "type": "bool"
        }
      ],
      "payable": false,
      "stateMutability": "nonpayable",
      "type": "function"
    },
    {
      "constant": false,
      "inputs": [
        {
          "internalType": "address",
          "name": "account",
          "type": "address"
        }
      ],
      "name": "addPauser",
      "outputs": [],
      "payable": false,
      "stateMutability": "nonpayable",
      "type": "function"
    },
    {
      "constant": true,
      "inputs": [],
      "name": "dataAvailable",
      "outputs": [
        {
          "internalType": "bool",
          "name": "",
          "type": "bool"
        }
      ],
      "payable": false,
      "stateMutability": "view",
      "type": "function"
    },
    {
      "constant": true,
      "inputs": [
        {
          "internalType": "address",
          "name": "",
          "type": "address"
        }
      ],
      "name": "handlerAddrPermission",
      "outputs": [
        {
          "internalType": "bool",
          "name": "",
          "type": "bool"
        }
      ],
      "payable": false,
      "stateMutability": "view",
      "type": "function"
    },
    {
      "constant": true,
      "inputs": [],
      "name": "isAllowedUpgrader",
      "outputs": [
        {
          "internalType": "bool",
          "name": "",
          "type": "bool"
        }
      ],
      "payable": false,
      "stateMutability": "view",
      "type": "function"
    },
    {
      "constant": true,
      "inputs": [],
      "name": "isHandler",
      "outputs": [
        {
          "internalType": "bool",
          "name": "",
          "type": "bool"
        }
      ],
      "payable": false,
      "stateMutability": "view",
      "type": "function"
    },
    {
      "constant": true,
      "inputs": [
        {
          "internalType": "address",
          "name": "account",
          "type": "address"
        }
      ],
      "name": "isPauser",
      "outputs": [
        {
          "internalType": "bool",
          "name": "",
          "type": "bool"
        }
      ],
      "payable": false,
      "stateMutability": "view",
      "type": "function"
    },
    {
      "constant": false,
      "inputs": [],
      "name": "pause",
      "outputs": [],
      "payable": false,
      "stateMutability": "nonpayable",
      "type": "function"
    },
    {
      "constant": true,
      "inputs": [],
      "name": "paused",
      "outputs": [
        {
          "internalType": "bool",
          "name": "",
          "type": "bool"
        }
      ],
      "payable": false,
      "stateMutability": "view",
      "type": "function"
    },
    {
      "constant": false,
      "inputs": [
        {
          "internalType": "address",
          "name": "_handlerAddr",
          "type": "address"
        }
      ],
      "name": "removeHandler",
      "outputs": [
        {
          "internalType": "bool",
          "name": "",
          "type": "bool"
        }
      ],
      "payable": false,
      "stateMutability": "nonpayable",
      "type": "function"
    },
    {
      "constant": false,
      "inputs": [],
      "name": "renouncePauser",
      "outputs": [],
      "payable": false,
      "stateMutability": "nonpayable",
      "type": "function"
    },
    {
      "constant": false,
      "inputs": [
        {
          "internalType": "bool",
          "name": "b",
          "type": "bool"
        }
      ],
      "name": "setDataAvailable",
      "outputs": [],
      "payable": false,
      "stateMutability": "nonpayable",
      "type": "function"
    },
    {
      "constant": false,
      "inputs": [],
      "name": "setHANDTESTE",
      "outputs": [],
      "payable": false,
      "stateMutability": "nonpayable",
      "type": "function"
    },
    {
      "constant": false,
      "inputs": [],
      "name": "unpause",
      "outputs": [],
      "payable": false,
      "stateMutability": "nonpayable",
      "type": "function"
    },
    {
      "constant": true,
      "inputs": [],
      "name": "upgraderInfo",
      "outputs": [
        {
          "internalType": "contract UpgraderInfo",
          "name": "",
          "type": "address"
        }
      ],
      "payable": false,
      "stateMutability": "view",
      "type": "function"
    },
    {
      "constant": true,
      "inputs": [],
      "name": "upgraderInfoAddr",
      "outputs": [
        {
          "internalType": "address",
          "name": "",
          "type": "address"
        }
      ],
      "payable": false,
      "stateMutability": "view",
      "type": "function"
    },
    {
      "constant": false,
      "inputs": [
        {
          "internalType": "bytes32",
          "name": "h",
          "type": "bytes32"
        },
        {
          "internalType": "bool",
          "name": "v",
          "type": "bool"
        }
      ],
      "name": "setBoolean",
      "outputs": [],
      "payable": false,
      "stateMutability": "nonpayable",
      "type": "function"
    },
    {
      "constant": false,
      "inputs": [
        {
          "internalType": "bytes32",
          "name": "h",
          "type": "bytes32"
        },
        {
          "internalType": "int256",
          "name": "v",
          "type": "int256"
        }
      ],
      "name": "setInt",
      "outputs": [],
      "payable": false,
      "stateMutability": "nonpayable",
      "type": "function"
    },
    {
      "constant": false,
      "inputs": [
        {
          "internalType": "bytes32",
          "name": "h",
          "type": "bytes32"
        },
        {
          "internalType": "uint256",
          "name": "v",
          "type": "uint256"
        }
      ],
      "name": "setUint",
      "outputs": [],
      "payable": false,
      "stateMutability": "nonpayable",
      "type": "function"
    },
    {
      "constant": false,
      "inputs": [
        {
          "internalType": "bytes32",
          "name": "h",
          "type": "bytes32"
        },
        {
          "internalType": "address",
          "name": "v",
          "type": "address"
        }
      ],
      "name": "setAddress",
      "outputs": [],
      "payable": false,
      "stateMutability": "nonpayable",
      "type": "function"
    },
    {
      "constant": false,
      "inputs": [
        {
          "internalType": "bytes32",
          "name": "h",
          "type": "bytes32"
        },
        {
          "internalType": "string",
          "name": "v",
          "type": "string"
        }
      ],
      "name": "setString",
      "outputs": [],
      "payable": false,
      "stateMutability": "nonpayable",
      "type": "function"
    },
    {
      "constant": false,
      "inputs": [
        {
          "internalType": "bytes32",
          "name": "h",
          "type": "bytes32"
        },
        {
          "internalType": "bytes",
          "name": "v",
          "type": "bytes"
        }
      ],
      "name": "setBytes",
      "outputs": [],
      "payable": false,
      "stateMutability": "nonpayable",
      "type": "function"
    },
    {
      "constant": true,
      "inputs": [
        {
          "internalType": "bytes32",
          "name": "h",
          "type": "bytes32"
        }
      ],
      "name": "getBoolean",
      "outputs": [
        {
          "internalType": "bool",
          "name": "",
          "type": "bool"
        }
      ],
      "payable": false,
      "stateMutability": "view",
      "type": "function"
    },
    {
      "constant": true,
      "inputs": [
        {
          "internalType": "bytes32",
          "name": "h",
          "type": "bytes32"
        }
      ],
      "name": "getInt",
      "outputs": [
        {
          "internalType": "int256",
          "name": "",
          "type": "int256"
        }
      ],
      "payable": false,
      "stateMutability": "view",
      "type": "function"
    },
    {
      "constant": true,
      "inputs": [
        {
          "internalType": "bytes32",
          "name": "h",
          "type": "bytes32"
        }
      ],
      "name": "getUint",
      "outputs": [
        {
          "internalType": "uint256",
          "name": "",
          "type": "uint256"
        }
      ],
      "payable": false,
      "stateMutability": "view",
      "type": "function"
    },
    {
      "constant": true,
      "inputs": [
        {
          "internalType": "bytes32",
          "name": "h",
          "type": "bytes32"
        }
      ],
      "name": "getAddress",
      "outputs": [
        {
          "internalType": "address",
          "name": "",
          "type": "address"
        }
      ],
      "payable": false,
      "stateMutability": "view",
      "type": "function"
    },
    {
      "constant": true,
      "inputs": [
        {
          "internalType": "bytes32",
          "name": "h",
          "type": "bytes32"
        }
      ],
      "name": "getString",
      "outputs": [
        {
          "internalType": "string",
          "name": "",
          "type": "string"
        }
      ],
      "payable": false,
      "stateMutability": "view",
      "type": "function"
    },
    {
      "constant": true,
      "inputs": [
        {
          "internalType": "bytes32",
          "name": "h",
          "type": "bytes32"
        }
      ],
      "name": "getBytes",
      "outputs": [
        {
          "internalType": "bytes",
          "name": "",
          "type": "bytes"
        }
      ],
      "payable": false,
      "stateMutability": "view",
      "type": "function"
    }
  ],
  "bytecode": "0x60806040523480156200001157600080fd5b50604051620022bc380380620022bc833981810160405260208110156200003757600080fd5b810190808051906020019092919050505080806200006a6200005e620000e860201b60201c565b620000f060201b60201c565b6000600160006101000a81548160ff021916908315150217905550806001806101000a81548173ffffffffffffffffffffffffffffffffffffffff021916908373ffffffffffffffffffffffffffffffffffffffff16021790555060018060156101000a81548160ff02191690831515021790555050505062000315565b600033905090565b6200010b8160006200015160201b62001c721790919060201c565b8073ffffffffffffffffffffffffffffffffffffffff167f6719d08c1888103bea251a4ed56406bd0c3e69723c8a1686e017e7bbe159b6f860405160405180910390a250565b6200016382826200023560201b60201c565b15620001d7576040517f08c379a000000000000000000000000000000000000000000000000000000000815260040180806020018281038252601f8152602001807f526f6c65733a206163636f756e7420616c72656164792068617320726f6c650081525060200191505060405180910390fd5b60018260000160008373ffffffffffffffffffffffffffffffffffffffff1673ffffffffffffffffffffffffffffffffffffffff16815260200190815260200160002060006101000a81548160ff0219169083151502179055505050565b60008073ffffffffffffffffffffffffffffffffffffffff168273ffffffffffffffffffffffffffffffffffffffff161415620002be576040517f08c379a00000000000000000000000000000000000000000000000000000000081526004018080602001828103825260228152602001806200229a6022913960400191505060405180910390fd5b8260000160008373ffffffffffffffffffffffffffffffffffffffff1673ffffffffffffffffffffffffffffffffffffffff16815260200190815260200160002060009054906101000a900460ff16905092915050565b611f7580620003256000396000f3fe608060405234801561001057600080fd5b50600436106101cf5760003560e01c80636ef8d66d11610104578063bd02d0f5116100a2578063e2a4853a11610071578063e2a4853a146108fc578063e857738a14610934578063f8715b3e14610990578063fb7d8a1e146109ca576101cf565b8063bd02d0f514610783578063c031a180146107c5578063ca446dd91461086c578063dc97d962146108ba576101cf565b8063900126f4116100de578063900126f41461064e578063901fe0471461069857806396a0604a146106ba578063986e791a146106dc576101cf565b80636ef8d66d146105f657806382dc1ec4146106005780638456cb5914610644576101cf565b80633e49bed01161017157806352bf2c3c1161014b57806352bf2c3c146104a35780635c975abb146104ed5780635fa037ca1461050f5780636e89955014610531576101cf565b80633e49bed0146104055780633f4ba83a1461043d57806346fbf68e14610447576101cf565b80631b49f03a116101ad5780631b49f03a1461026a57806321f8a7211461028c5780632e28d084146102fa5780633848207a146103bf576101cf565b806309ea2709146101d4578063134bb0381461020457806316d3ffc31461020e575b600080fd5b610202600480360360208110156101ea57600080fd5b81019080803515159060200190929190505050610a26565b005b61020c610b71565b005b6102506004803603602081101561022457600080fd5b81019080803573ffffffffffffffffffffffffffffffffffffffff169060200190929190505050610bd0565b604051808215151515815260200191505060405180910390f35b610272610d61565b604051808215151515815260200191505060405180910390f35b6102b8600480360360208110156102a257600080fd5b8101908080359060200190929190505050610d74565b604051808273ffffffffffffffffffffffffffffffffffffffff1673ffffffffffffffffffffffffffffffffffffffff16815260200191505060405180910390f35b6103bd6004803603604081101561031057600080fd5b81019080803590602001909291908035906020019064010000000081111561033757600080fd5b82018360208201111561034957600080fd5b8035906020019184600183028401116401000000008311171561036b57600080fd5b91908080601f016020809104026020016040519081016040528093929190818152602001838380828437600081840152601f19601f820116905080830192505050505050509192919290505050610db4565b005b6103eb600480360360208110156103d557600080fd5b8101908080359060200190929190505050610e4f565b604051808215151515815260200191505060405180910390f35b61043b6004803603604081101561041b57600080fd5b810190808035906020019092919080359060200190929190505050610e7c565b005b610445610f07565b005b6104896004803603602081101561045d57600080fd5b81019080803573ffffffffffffffffffffffffffffffffffffffff169060200190929190505050611075565b604051808215151515815260200191505060405180910390f35b6104ab611092565b604051808273ffffffffffffffffffffffffffffffffffffffff1673ffffffffffffffffffffffffffffffffffffffff16815260200191505060405180910390f35b6104f56110bb565b604051808215151515815260200191505060405180910390f35b6105176110d2565b604051808215151515815260200191505060405180910390f35b6105f46004803603604081101561054757600080fd5b81019080803590602001909291908035906020019064010000000081111561056e57600080fd5b82018360208201111561058057600080fd5b803590602001918460018302840111640100000000831117156105a257600080fd5b91908080601f016020809104026020016040519081016040528093929190818152602001838380828437600081840152601f19601f820116905080830192505050505050509192919290505050611126565b005b6105fe6111c0565b005b6106426004803603602081101561061657600080fd5b81019080803573ffffffffffffffffffffffffffffffffffffffff1690602001909291905050506111d2565b005b61064c611243565b005b6106566113b1565b604051808273ffffffffffffffffffffffffffffffffffffffff1673ffffffffffffffffffffffffffffffffffffffff16815260200191505060405180910390f35b6106a06113d6565b604051808215151515815260200191505060405180910390f35b6106c26113ed565b604051808215151515815260200191505060405180910390f35b610708600480360360208110156106f257600080fd5b81019080803590602001909291905050506114cd565b6040518080602001828103825283818151815260200191508051906020019080838360005b8381101561074857808201518184015260208101905061072d565b50505050905090810190601f1680156107755780820380516001836020036101000a031916815260200191505b509250505060405180910390f35b6107af6004803603602081101561079957600080fd5b8101908080359060200190929190505050611584565b6040518082815260200191505060405180910390f35b6107f1600480360360208110156107db57600080fd5b81019080803590602001909291905050506115a4565b6040518080602001828103825283818151815260200191508051906020019080838360005b83811015610831578082015181840152602081019050610816565b50505050905090810190601f16801561085e5780820380516001836020036101000a031916815260200191505b509250505060405180910390f35b6108b86004803603604081101561088257600080fd5b8101908080359060200190929190803573ffffffffffffffffffffffffffffffffffffffff16906020019092919050505061165c565b005b6108e6600480360360208110156108d057600080fd5b8101908080359060200190929190505050611721565b6040518082815260200191505060405180910390f35b6109326004803603604081101561091257600080fd5b810190808035906020019092919080359060200190929190505050611741565b005b6109766004803603602081101561094a57600080fd5b81019080803573ffffffffffffffffffffffffffffffffffffffff1690602001909291905050506117cc565b604051808215151515815260200191505060405180910390f35b6109c8600480360360408110156109a657600080fd5b81019080803590602001909291908035151590602001909291905050506117ec565b005b610a0c600480360360208110156109e057600080fd5b81019080803573ffffffffffffffffffffffffffffffffffffffff16906020019092919050505061188a565b604051808215151515815260200191505060405180910390f35b6001809054906101000a900473ffffffffffffffffffffffffffffffffffffffff1673ffffffffffffffffffffffffffffffffffffffff16637e96549f336040518263ffffffff1660e01b8152600401808273ffffffffffffffffffffffffffffffffffffffff1673ffffffffffffffffffffffffffffffffffffffff16815260200191505060206040518083038186803b158015610ac457600080fd5b505afa158015610ad8573d6000803e3d6000fd5b505050506040513d6020811015610aee57600080fd5b8101908080519060200190929190505050610b54576040517f08c379a000000000000000000000000000000000000000000000000000000000815260040180806020018281038252602f815260200180611e73602f913960400191505060405180910390fd5b80600160156101000a81548160ff02191690831515021790555050565b610b796110d2565b610bce576040517f08c379a000000000000000000000000000000000000000000000000000000000815260040180806020018281038252602c815260200180611f15602c913960400191505060405180910390fd5b565b60006001809054906101000a900473ffffffffffffffffffffffffffffffffffffffff1673ffffffffffffffffffffffffffffffffffffffff16637e96549f336040518263ffffffff1660e01b8152600401808273ffffffffffffffffffffffffffffffffffffffff1673ffffffffffffffffffffffffffffffffffffffff16815260200191505060206040518083038186803b158015610c7057600080fd5b505afa158015610c84573d6000803e3d6000fd5b505050506040513d6020811015610c9a57600080fd5b8101908080519060200190929190505050610d00576040517f08c379a000000000000000000000000000000000000000000000000000000000815260040180806020018281038252602f815260200180611e73602f913960400191505060405180910390fd5b6000600260008473ffffffffffffffffffffffffffffffffffffffff1673ffffffffffffffffffffffffffffffffffffffff16815260200190815260200160002060006101000a81548160ff02191690831515021790555060019050919050565b600160159054906101000a900460ff1681565b60006003600401600083815260200190815260200160002060009054906101000a900473ffffffffffffffffffffffffffffffffffffffff169050919050565b610dbc6110d2565b80610dcb5750610dca6113ed565b5b610e20576040517f08c379a000000000000000000000000000000000000000000000000000000000815260040180806020018281038252602c815260200180611f15602c913960400191505060405180910390fd5b80600360050160008481526020019081526020016000209080519060200190610e4a929190611d4d565b505050565b60006003600001600083815260200190815260200160002060009054906101000a900460ff169050919050565b610e846110d2565b80610e935750610e926113ed565b5b610ee8576040517f08c379a000000000000000000000000000000000000000000000000000000000815260040180806020018281038252602c815260200180611f15602c913960400191505060405180910390fd5b8060036001016000848152602001908152602001600020819055505050565b610f17610f12611a1b565b611075565b610f6c576040517f08c379a0000000000000000000000000000000000000000000000000000000008152600401808060200182810382526030815260200180611ea26030913960400191505060405180910390fd5b600160009054906101000a900460ff16610fee576040517f08c379a00000000000000000000000000000000000000000000000000000000081526004018080602001828103825260148152602001807f5061757361626c653a206e6f742070617573656400000000000000000000000081525060200191505060405180910390fd5b6000600160006101000a81548160ff0219169083151502179055507f5db9ee0a495bf2e6ff9c91a7834c1ba4fdd244a5e8aa4e537bd38aeae4b073aa611032611a1b565b604051808273ffffffffffffffffffffffffffffffffffffffff1673ffffffffffffffffffffffffffffffffffffffff16815260200191505060405180910390a1565b600061108b826000611a2390919063ffffffff16565b9050919050565b60006001809054906101000a900473ffffffffffffffffffffffffffffffffffffffff16905090565b6000600160009054906101000a900460ff16905090565b6000600260003373ffffffffffffffffffffffffffffffffffffffff1673ffffffffffffffffffffffffffffffffffffffff16815260200190815260200160002060009054906101000a900460ff16905090565b61112e6110d2565b8061113d575061113c6113ed565b5b611192576040517f08c379a000000000000000000000000000000000000000000000000000000000815260040180806020018281038252602c815260200180611f15602c913960400191505060405180910390fd5b8060038001600084815260200190815260200160002090805190602001906111bb929190611dcd565b505050565b6111d06111cb611a1b565b611b01565b565b6111e26111dd611a1b565b611075565b611237576040517f08c379a0000000000000000000000000000000000000000000000000000000008152600401808060200182810382526030815260200180611ea26030913960400191505060405180910390fd5b61124081611b5b565b50565b61125361124e611a1b565b611075565b6112a8576040517f08c379a0000000000000000000000000000000000000000000000000000000008152600401808060200182810382526030815260200180611ea26030913960400191505060405180910390fd5b600160009054906101000a900460ff161561132b576040517f08c379a00000000000000000000000000000000000000000000000000000000081526004018080602001828103825260108152602001807f5061757361626c653a207061757365640000000000000000000000000000000081525060200191505060405180910390fd5b60018060006101000a81548160ff0219169083151502179055507f62e78cea01bee320cd4e420270b5ea74000d11b0c9f74754ebdbfc544b05a25861136e611a1b565b604051808273ffffffffffffffffffffffffffffffffffffffff1673ffffffffffffffffffffffffffffffffffffffff16815260200191505060405180910390a1565b6001809054906101000a900473ffffffffffffffffffffffffffffffffffffffff1681565b6000600160159054906101000a900460ff16905090565b60006001809054906101000a900473ffffffffffffffffffffffffffffffffffffffff1673ffffffffffffffffffffffffffffffffffffffff16637e96549f336040518263ffffffff1660e01b8152600401808273ffffffffffffffffffffffffffffffffffffffff1673ffffffffffffffffffffffffffffffffffffffff16815260200191505060206040518083038186803b15801561148d57600080fd5b505afa1580156114a1573d6000803e3d6000fd5b505050506040513d60208110156114b757600080fd5b8101908080519060200190929190505050905090565b60606003800160008381526020019081526020016000208054600181600116156101000203166002900480601f0160208091040260200160405190810160405280929190818152602001828054600181600116156101000203166002900480156115785780601f1061154d57610100808354040283529160200191611578565b820191906000526020600020905b81548152906001019060200180831161155b57829003601f168201915b50505050509050919050565b600060036002016000838152602001908152602001600020549050919050565b6060600360050160008381526020019081526020016000208054600181600116156101000203166002900480601f0160208091040260200160405190810160405280929190818152602001828054600181600116156101000203166002900480156116505780601f1061162557610100808354040283529160200191611650565b820191906000526020600020905b81548152906001019060200180831161163357829003601f168201915b50505050509050919050565b6116646110d2565b8061167357506116726113ed565b5b6116c8576040517f08c379a000000000000000000000000000000000000000000000000000000000815260040180806020018281038252602c815260200180611f15602c913960400191505060405180910390fd5b806003600401600084815260200190815260200160002060006101000a81548173ffffffffffffffffffffffffffffffffffffffff021916908373ffffffffffffffffffffffffffffffffffffffff1602179055505050565b600060036001016000838152602001908152602001600020549050919050565b6117496110d2565b8061175857506117576113ed565b5b6117ad576040517f08c379a000000000000000000000000000000000000000000000000000000000815260040180806020018281038252602c815260200180611f15602c913960400191505060405180910390fd5b8060036002016000848152602001908152602001600020819055505050565b60026020528060005260406000206000915054906101000a900460ff1681565b6117f46110d2565b8061180357506118026113ed565b5b611858576040517f08c379a000000000000000000000000000000000000000000000000000000000815260040180806020018281038252602c815260200180611f15602c913960400191505060405180910390fd5b806003600001600084815260200190815260200160002060006101000a81548160ff0219169083151502179055505050565b60006001809054906101000a900473ffffffffffffffffffffffffffffffffffffffff1673ffffffffffffffffffffffffffffffffffffffff16637e96549f336040518263ffffffff1660e01b8152600401808273ffffffffffffffffffffffffffffffffffffffff1673ffffffffffffffffffffffffffffffffffffffff16815260200191505060206040518083038186803b15801561192a57600080fd5b505afa15801561193e573d6000803e3d6000fd5b505050506040513d602081101561195457600080fd5b81019080805190602001909291905050506119ba576040517f08c379a000000000000000000000000000000000000000000000000000000000815260040180806020018281038252602f815260200180611e73602f913960400191505060405180910390fd5b6001600260008473ffffffffffffffffffffffffffffffffffffffff1673ffffffffffffffffffffffffffffffffffffffff16815260200190815260200160002060006101000a81548160ff02191690831515021790555060019050919050565b600033905090565b60008073ffffffffffffffffffffffffffffffffffffffff168273ffffffffffffffffffffffffffffffffffffffff161415611aaa576040517f08c379a0000000000000000000000000000000000000000000000000000000008152600401808060200182810382526022815260200180611ef36022913960400191505060405180910390fd5b8260000160008373ffffffffffffffffffffffffffffffffffffffff1673ffffffffffffffffffffffffffffffffffffffff16815260200190815260200160002060009054906101000a900460ff16905092915050565b611b15816000611bb590919063ffffffff16565b8073ffffffffffffffffffffffffffffffffffffffff167fcd265ebaf09df2871cc7bd4133404a235ba12eff2041bb89d9c714a2621c7c7e60405160405180910390a250565b611b6f816000611c7290919063ffffffff16565b8073ffffffffffffffffffffffffffffffffffffffff167f6719d08c1888103bea251a4ed56406bd0c3e69723c8a1686e017e7bbe159b6f860405160405180910390a250565b611bbf8282611a23565b611c14576040517f08c379a0000000000000000000000000000000000000000000000000000000008152600401808060200182810382526021815260200180611ed26021913960400191505060405180910390fd5b60008260000160008373ffffffffffffffffffffffffffffffffffffffff1673ffffffffffffffffffffffffffffffffffffffff16815260200190815260200160002060006101000a81548160ff0219169083151502179055505050565b611c7c8282611a23565b15611cef576040517f08c379a000000000000000000000000000000000000000000000000000000000815260040180806020018281038252601f8152602001807f526f6c65733a206163636f756e7420616c72656164792068617320726f6c650081525060200191505060405180910390fd5b60018260000160008373ffffffffffffffffffffffffffffffffffffffff1673ffffffffffffffffffffffffffffffffffffffff16815260200190815260200160002060006101000a81548160ff0219169083151502179055505050565b828054600181600116156101000203166002900490600052602060002090601f016020900481019282601f10611d8e57805160ff1916838001178555611dbc565b82800160010185558215611dbc579182015b82811115611dbb578251825591602001919060010190611da0565b5b509050611dc99190611e4d565b5090565b828054600181600116156101000203166002900490600052602060002090601f016020900481019282601f10611e0e57805160ff1916838001178555611e3c565b82800160010185558215611e3c579182015b82811115611e3b578251825591602001919060010190611e20565b5b509050611e499190611e4d565b5090565b611e6f91905b80821115611e6b576000816000905550600101611e53565b5090565b9056fe546869732066756e6374696f6e2063616e206f6e6c7920626520657865637574656420627920557067726164657273506175736572526f6c653a2063616c6c657220646f6573206e6f742068617665207468652050617573657220726f6c65526f6c65733a206163636f756e7420646f6573206e6f74206861766520726f6c65526f6c65733a206163636f756e7420697320746865207a65726f2061646472657373446f206e6f742068617665207468652068616e646c6572207065726d697373696f6e20746f20777269746521a265627a7a723158206ee252fad668257ea4c4e0b4603299306c93c116816800a441efac7dd0dc818364736f6c63430005100032526f6c65733a206163636f756e7420697320746865207a65726f2061646472657373",
  "source": "pragma solidity ^0.5.0;\n\nimport \"./UpdatableHandleable.sol\";\n\n\n//ERC930 -https://github.com/ethereum/EIPs/issues/930\ncontract Storage is UpdatableHandleable {\n\n    struct StorageStruct {\n        mapping(bytes32 => bool) _bool;\n        mapping(bytes32 => int) _int;\n        mapping(bytes32 => uint) _uint;\n        mapping(bytes32 => string) _string;\n        mapping(bytes32 => address) _address;\n        mapping(bytes32 => bytes) _bytes;\n    }\n\n    StorageStruct internal s;\n\n    constructor (address upgraderInfo) UpdatableHandleable (upgraderInfo) public {\n    }\n\n    function setBoolean(bytes32 h, bool v) public onlyHandlerOrUpgrader {\n        s._bool[h] = v;\n    }\n    function setInt(bytes32 h, int v) public onlyHandlerOrUpgrader {\n        s._int[h] = v;\n    }\n    function setUint(bytes32 h, uint256 v) public onlyHandlerOrUpgrader {\n        s._uint[h] = v;\n    }\n    function setAddress(bytes32 h, address v) public onlyHandlerOrUpgrader {\n        s._address[h] = v;\n    }\n    function setString(bytes32 h, string memory v) public onlyHandlerOrUpgrader {\n        s._string[h] = v;\n    }\n    function setBytes(bytes32 h, bytes memory v) public onlyHandlerOrUpgrader {\n        s._bytes[h] = v;\n    }\n\n\n    function getBoolean(bytes32 h) public view returns (bool){\n        return s._bool[h];\n    }\n    function getInt(bytes32 h) public view returns (int){\n        return s._int[h];\n    }\n    function getUint(bytes32 h) public view returns (uint256){\n        return s._uint[h];\n    }\n    function getAddress(bytes32 h) public view returns (address){\n        return s._address[h];\n    }\n    function getString(bytes32 h) public view returns (string memory){\n        return s._string[h];\n    }\n    function getBytes(bytes32 h) public view returns (bytes memory){\n        return s._bytes[h];\n    }\n\n}",
  "sourcePath": "/Users/suzana.moreno/workspace/bndestoken-d/ChangeManagementFramework/contracts/appChangeManagementUpgrade/Storage.sol",
  "compiler": {
    "name": "solc",
    "version": "0.5.16+commit.9c3226ce.Emscripten.clang"
  },
  "schemaVersion": "3.0.23",
  "updatedAt": "2020-04-17T19:44:27.964Z",
  "networkType": "ethereum",
  "devdoc": {
    "methods": {
      "pause()": {
        "details": "Called by a pauser to pause, triggers stopped state."
      },
      "paused()": {
        "details": "Returns true if the contract is paused, and false otherwise."
      },
      "unpause()": {
        "details": "Called by a pauser to unpause, returns to normal state."
      }
    }
  },
  "userdoc": {
    "methods": {
      "setHANDTESTE()": {
        "notice": "TESTE******************"
      }
    }
  }
}