{
  "contractName": "Upgrader1",
  "abi": [
    {
      "inputs": [
        {
          "internalType": "address",
          "name": "lastUpgraderAddr",
          "type": "address"
        }
      ],
      "payable": false,
      "stateMutability": "nonpayable",
      "type": "constructor"
    },
    {
      "constant": true,
      "inputs": [],
      "name": "bndesRegistryInstance",
      "outputs": [
        {
          "internalType": "contract BNDESRegistry",
          "name": "",
          "type": "address"
        }
      ],
      "payable": false,
      "stateMutability": "view",
      "type": "function"
    },
    {
      "constant": true,
      "inputs": [],
      "name": "changeManagementInstance",
      "outputs": [
        {
          "internalType": "contract ChangeManagement",
          "name": "",
          "type": "address"
        }
      ],
      "payable": false,
      "stateMutability": "view",
      "type": "function"
    },
    {
      "constant": true,
      "inputs": [],
      "name": "legalEntityMappingInstance",
      "outputs": [
        {
          "internalType": "contract LegalEntityMapping",
          "name": "",
          "type": "address"
        }
      ],
      "payable": false,
      "stateMutability": "view",
      "type": "function"
    },
    {
      "constant": true,
      "inputs": [],
      "name": "resolverInstance",
      "outputs": [
        {
          "internalType": "contract Resolver",
          "name": "",
          "type": "address"
        }
      ],
      "payable": false,
      "stateMutability": "view",
      "type": "function"
    },
    {
      "constant": true,
      "inputs": [],
      "name": "storageContractInstance",
      "outputs": [
        {
          "internalType": "contract Storage",
          "name": "",
          "type": "address"
        }
      ],
      "payable": false,
      "stateMutability": "view",
      "type": "function"
    },
    {
      "constant": false,
      "inputs": [],
      "name": "upgrade",
      "outputs": [],
      "payable": false,
      "stateMutability": "nonpayable",
      "type": "function"
    },
    {
      "constant": true,
      "inputs": [],
      "name": "getChangeManagementAddr",
      "outputs": [
        {
          "internalType": "address",
          "name": "",
          "type": "address"
        }
      ],
      "payable": false,
      "stateMutability": "view",
      "type": "function"
    },
    {
      "constant": true,
      "inputs": [],
      "name": "getResolverAddr",
      "outputs": [
        {
          "internalType": "address",
          "name": "",
          "type": "address"
        }
      ],
      "payable": false,
      "stateMutability": "view",
      "type": "function"
    },
    {
      "constant": true,
      "inputs": [],
      "name": "getStorageContractAddr",
      "outputs": [
        {
          "internalType": "address",
          "name": "",
          "type": "address"
        }
      ],
      "payable": false,
      "stateMutability": "view",
      "type": "function"
    },
    {
      "constant": true,
      "inputs": [],
      "name": "getLegalEntityMappingAddr",
      "outputs": [
        {
          "internalType": "address",
          "name": "",
          "type": "address"
        }
      ],
      "payable": false,
      "stateMutability": "view",
      "type": "function"
    },
    {
      "constant": true,
      "inputs": [],
      "name": "getBNDESRegistryAddr",
      "outputs": [
        {
          "internalType": "address",
          "name": "",
          "type": "address"
        }
      ],
      "payable": false,
      "stateMutability": "view",
      "type": "function"
    }
  ],
  "bytecode": "0x608060405234801561001057600080fd5b50604051610e58380380610e588339818101604052602081101561003357600080fd5b8101908080519060200190929190505050806000806101000a81548173ffffffffffffffffffffffffffffffffffffffff021916908373ffffffffffffffffffffffffffffffffffffffff1602179055506000809054906101000a900473ffffffffffffffffffffffffffffffffffffffff1673ffffffffffffffffffffffffffffffffffffffff1663c7b755af6040518163ffffffff1660e01b815260040160206040518083038186803b1580156100eb57600080fd5b505afa1580156100ff573d6000803e3d6000fd5b505050506040513d602081101561011557600080fd5b8101908080519060200190929190505050600160006101000a81548173ffffffffffffffffffffffffffffffffffffffff021916908373ffffffffffffffffffffffffffffffffffffffff1602179055506000809054906101000a900473ffffffffffffffffffffffffffffffffffffffff1673ffffffffffffffffffffffffffffffffffffffff166309117d266040518163ffffffff1660e01b815260040160206040518083038186803b1580156101cd57600080fd5b505afa1580156101e1573d6000803e3d6000fd5b505050506040513d60208110156101f757600080fd5b8101908080519060200190929190505050600260006101000a81548173ffffffffffffffffffffffffffffffffffffffff021916908373ffffffffffffffffffffffffffffffffffffffff1602179055506000809054906101000a900473ffffffffffffffffffffffffffffffffffffffff1673ffffffffffffffffffffffffffffffffffffffff16639b7c26186040518163ffffffff1660e01b815260040160206040518083038186803b1580156102af57600080fd5b505afa1580156102c3573d6000803e3d6000fd5b505050506040513d60208110156102d957600080fd5b8101908080519060200190929190505050600360006101000a81548173ffffffffffffffffffffffffffffffffffffffff021916908373ffffffffffffffffffffffffffffffffffffffff1602179055506000809054906101000a900473ffffffffffffffffffffffffffffffffffffffff1673ffffffffffffffffffffffffffffffffffffffff166333822ba46040518163ffffffff1660e01b815260040160206040518083038186803b15801561039157600080fd5b505afa1580156103a5573d6000803e3d6000fd5b505050506040513d60208110156103bb57600080fd5b8101908080519060200190929190505050600460006101000a81548173ffffffffffffffffffffffffffffffffffffffff021916908373ffffffffffffffffffffffffffffffffffffffff1602179055506000809054906101000a900473ffffffffffffffffffffffffffffffffffffffff1673ffffffffffffffffffffffffffffffffffffffff1663522fe4b76040518163ffffffff1660e01b815260040160206040518083038186803b15801561047357600080fd5b505afa158015610487573d6000803e3d6000fd5b505050506040513d602081101561049d57600080fd5b8101908080519060200190929190505050600560006101000a81548173ffffffffffffffffffffffffffffffffffffffff021916908373ffffffffffffffffffffffffffffffffffffffff1602179055505061095a806104fe6000396000f3fe608060405234801561001057600080fd5b50600436106100a95760003560e01c80639b7c2618116100715780639b7c261814610220578063aa3a7ce31461026a578063c3c3b459146102b4578063c7b755af146102fe578063d55ec69714610348578063f9fb3ed414610352576100a9565b806309117d26146100ae57806333822ba4146100f85780633daf3f681461014257806344e0d5731461018c578063522fe4b7146101d6575b600080fd5b6100b661039c565b604051808273ffffffffffffffffffffffffffffffffffffffff1673ffffffffffffffffffffffffffffffffffffffff16815260200191505060405180910390f35b6101006103c6565b604051808273ffffffffffffffffffffffffffffffffffffffff1673ffffffffffffffffffffffffffffffffffffffff16815260200191505060405180910390f35b61014a6103f0565b604051808273ffffffffffffffffffffffffffffffffffffffff1673ffffffffffffffffffffffffffffffffffffffff16815260200191505060405180910390f35b610194610416565b604051808273ffffffffffffffffffffffffffffffffffffffff1673ffffffffffffffffffffffffffffffffffffffff16815260200191505060405180910390f35b6101de61043c565b604051808273ffffffffffffffffffffffffffffffffffffffff1673ffffffffffffffffffffffffffffffffffffffff16815260200191505060405180910390f35b610228610466565b604051808273ffffffffffffffffffffffffffffffffffffffff1673ffffffffffffffffffffffffffffffffffffffff16815260200191505060405180910390f35b610272610490565b604051808273ffffffffffffffffffffffffffffffffffffffff1673ffffffffffffffffffffffffffffffffffffffff16815260200191505060405180910390f35b6102bc6104b6565b604051808273ffffffffffffffffffffffffffffffffffffffff1673ffffffffffffffffffffffffffffffffffffffff16815260200191505060405180910390f35b6103066104dc565b604051808273ffffffffffffffffffffffffffffffffffffffff1673ffffffffffffffffffffffffffffffffffffffff16815260200191505060405180910390f35b610350610506565b005b61035a6108b8565b604051808273ffffffffffffffffffffffffffffffffffffffff1673ffffffffffffffffffffffffffffffffffffffff16815260200191505060405180910390f35b6000600260009054906101000a900473ffffffffffffffffffffffffffffffffffffffff16905090565b6000600460009054906101000a900473ffffffffffffffffffffffffffffffffffffffff16905090565b600460009054906101000a900473ffffffffffffffffffffffffffffffffffffffff1681565b600160009054906101000a900473ffffffffffffffffffffffffffffffffffffffff1681565b6000600560009054906101000a900473ffffffffffffffffffffffffffffffffffffffff16905090565b6000600360009054906101000a900473ffffffffffffffffffffffffffffffffffffffff16905090565b600560009054906101000a900473ffffffffffffffffffffffffffffffffffffffff1681565b600260009054906101000a900473ffffffffffffffffffffffffffffffffffffffff1681565b6000600160009054906101000a900473ffffffffffffffffffffffffffffffffffffffff16905090565b61050e6104dc565b73ffffffffffffffffffffffffffffffffffffffff163373ffffffffffffffffffffffffffffffffffffffff1614610591576040517f08c379a00000000000000000000000000000000000000000000000000000000081526004018080602001828103825260478152602001806108df6047913960600191505060405180910390fd5b6000600160009054906101000a900473ffffffffffffffffffffffffffffffffffffffff1673ffffffffffffffffffffffffffffffffffffffff16638da5cb5b6040518163ffffffff1660e01b815260040160206040518083038186803b1580156105fb57600080fd5b505afa15801561060f573d6000803e3d6000fd5b505050506040513d602081101561062557600080fd5b81019080805190602001909291905050509050600460009054906101000a900473ffffffffffffffffffffffffffffffffffffffff1673ffffffffffffffffffffffffffffffffffffffff1663fb7d8a1e306040518263ffffffff1660e01b8152600401808273ffffffffffffffffffffffffffffffffffffffff1673ffffffffffffffffffffffffffffffffffffffff168152602001915050602060405180830381600087803b1580156106d957600080fd5b505af11580156106ed573d6000803e3d6000fd5b505050506040513d602081101561070357600080fd5b810190808051906020019092919050505050600460009054906101000a900473ffffffffffffffffffffffffffffffffffffffff1673ffffffffffffffffffffffffffffffffffffffff1663b43f06ad8261029a6040518363ffffffff1660e01b8152600401808373ffffffffffffffffffffffffffffffffffffffff1673ffffffffffffffffffffffffffffffffffffffff16815260200182815260200192505050600060405180830381600087803b1580156107c057600080fd5b505af11580156107d4573d6000803e3d6000fd5b50505050600460009054906101000a900473ffffffffffffffffffffffffffffffffffffffff1673ffffffffffffffffffffffffffffffffffffffff166316d3ffc3306040518263ffffffff1660e01b8152600401808273ffffffffffffffffffffffffffffffffffffffff1673ffffffffffffffffffffffffffffffffffffffff168152602001915050602060405180830381600087803b15801561087957600080fd5b505af115801561088d573d6000803e3d6000fd5b505050506040513d60208110156108a357600080fd5b81019080805190602001909291905050505050565b600360009054906101000a900473ffffffffffffffffffffffffffffffffffffffff168156fe55706772616465722031202d20546869732066756e6374696f6e2063616e206f6e6c7920626520657865637574656420627920746865204368616e67654d616e6167656d656e74a265627a7a723158200fe9b0a0bf8f44b59e9897946b1a78e89ea2533462240d20e78d9ccca2dea2b664736f6c63430005100032",
  "source": "pragma solidity ^0.5.0;\n\nimport \"../appChangeManagementUpgrade/Upgrader.sol\";\nimport \"../appChangeManagementUpgrade/ChangeManagement.sol\";\nimport \"../appChangeManagementUpgrade/Storage.sol\";\nimport \"../appChangeManagementUpgrade/Resolver.sol\";\n\nimport {PreUpgrader as LastUpgrader} from '../appUpgraders/PreUpgrader.sol';\nimport \"../appTestUpgrade/LegalEntityMapping.sol\";\nimport \"../appTestUpgrade/BNDESRegistry.sol\";\n\n\ncontract Upgrader1 is Upgrader {\n\n    LastUpgrader lastUpgrader;\n    \n    ChangeManagement public changeManagementInstance;\n    Resolver public resolverInstance;\n    Storage public storageContractInstance;\n    LegalEntityMapping public legalEntityMappingInstance;\n    BNDESRegistry public bndesRegistryInstance;\n\n    constructor (address lastUpgraderAddr) public {\n       \n        lastUpgrader = LastUpgrader(lastUpgraderAddr);\n        changeManagementInstance = ChangeManagement(lastUpgrader.getChangeManagementAddr());\n        resolverInstance = Resolver(lastUpgrader.getResolverAddr());\n        storageContractInstance = Storage(lastUpgrader.getStorageContractAddr());\n        legalEntityMappingInstance = LegalEntityMapping(lastUpgrader.getLegalEntityMappingAddr());\n        bndesRegistryInstance = BNDESRegistry(lastUpgrader.getBNDESRegistryAddr());\n    }\n\n    modifier onlyChangeManagement() {\n        require(msg.sender==getChangeManagementAddr(), \"Upgrader 1 - This function can only be executed by the ChangeManagement\");\n        _;\n    }\n\n    function upgrade () external onlyChangeManagement {\n\n        //Change data in storage\n        address ownerOfCMAddr = changeManagementInstance.owner();\n\n        legalEntityMappingInstance.addHandler(address(this));\n\n        legalEntityMappingInstance.setId(ownerOfCMAddr, 666);\n\n        legalEntityMappingInstance.removeHandler(address(this));\n    }\n\n\n    function getChangeManagementAddr() public view returns (address) {\n        return address(changeManagementInstance);\n    }\n\n    function getResolverAddr() public view returns (address) {\n        return address(resolverInstance);\n    }\n\n    function getStorageContractAddr() public view returns (address) {\n        return address(storageContractInstance);\n    }\n\n    function getLegalEntityMappingAddr() public view returns (address) {\n        return address(legalEntityMappingInstance);\n    }\n\n    function getBNDESRegistryAddr() public view returns (address) {\n        return address(bndesRegistryInstance);\n    }\n\n}\n",
  "sourcePath": "/Users/suzana.moreno/workspace/bndestoken-d/ChangeManagementFramework/contracts/upgraders/Upgrader1.sol",
  "compiler": {
    "name": "solc",
    "version": "0.5.16+commit.9c3226ce.Emscripten.clang"
  },
  "schemaVersion": "3.0.23",
  "updatedAt": "2020-04-18T01:38:30.633Z",
  "networkType": "ethereum",
  "devdoc": {
    "methods": {}
  },
  "userdoc": {
    "methods": {}
  }
}